{
  "_format": "hh-sol-artifact-1",
  "contractName": "Bridge",
  "sourceName": "contracts/Bridge.sol",
  "abi": [
    {
      "inputs": [
        {
          "internalType": "address",
          "name": "_governance",
          "type": "address"
        },
        {
          "internalType": "address",
          "name": "_tokenFacory",
          "type": "address"
        },
        {
          "internalType": "address",
          "name": "_feeCalculator",
          "type": "address"
        }
      ],
      "stateMutability": "nonpayable",
      "type": "constructor"
    },
    {
      "anonymous": false,
      "inputs": [
        {
          "indexed": true,
          "internalType": "address",
          "name": "from",
          "type": "address"
        },
        {
          "indexed": true,
          "internalType": "uint16",
          "name": "targetChainId",
          "type": "uint16"
        },
        {
          "indexed": false,
          "internalType": "address",
          "name": "wrappedToken",
          "type": "address"
        },
        {
          "indexed": false,
          "internalType": "uint256",
          "name": "amount",
          "type": "uint256"
        }
      ],
      "name": "Burn",
      "type": "event"
    },
    {
      "anonymous": false,
      "inputs": [
        {
          "indexed": true,
          "internalType": "address",
          "name": "from",
          "type": "address"
        },
        {
          "indexed": true,
          "internalType": "uint16",
          "name": "targetChainId",
          "type": "uint16"
        },
        {
          "indexed": false,
          "internalType": "address",
          "name": "token",
          "type": "address"
        },
        {
          "indexed": false,
          "internalType": "uint256",
          "name": "amount",
          "type": "uint256"
        }
      ],
      "name": "Lock",
      "type": "event"
    },
    {
      "anonymous": false,
      "inputs": [
        {
          "indexed": true,
          "internalType": "address",
          "name": "receiver",
          "type": "address"
        },
        {
          "indexed": false,
          "internalType": "address",
          "name": "token",
          "type": "address"
        },
        {
          "indexed": false,
          "internalType": "uint256",
          "name": "amount",
          "type": "uint256"
        }
      ],
      "name": "Mint",
      "type": "event"
    },
    {
      "anonymous": false,
      "inputs": [
        {
          "indexed": true,
          "internalType": "address",
          "name": "receiver",
          "type": "address"
        },
        {
          "indexed": false,
          "internalType": "address",
          "name": "token",
          "type": "address"
        },
        {
          "indexed": false,
          "internalType": "uint256",
          "name": "amount",
          "type": "uint256"
        }
      ],
      "name": "Release",
      "type": "event"
    },
    {
      "inputs": [
        {
          "internalType": "uint16",
          "name": "_targetChainId",
          "type": "uint16"
        },
        {
          "internalType": "address",
          "name": "_wrappedToken",
          "type": "address"
        },
        {
          "internalType": "uint256",
          "name": "_amount",
          "type": "uint256"
        },
        {
          "internalType": "uint256",
          "name": "_deadline",
          "type": "uint256"
        },
        {
          "internalType": "uint8",
          "name": "v",
          "type": "uint8"
        },
        {
          "internalType": "bytes32",
          "name": "r",
          "type": "bytes32"
        },
        {
          "internalType": "bytes32",
          "name": "s",
          "type": "bytes32"
        }
      ],
      "name": "burn",
      "outputs": [],
      "stateMutability": "nonpayable",
      "type": "function"
    },
    {
      "inputs": [],
      "name": "claimFees",
      "outputs": [],
      "stateMutability": "nonpayable",
      "type": "function"
    },
    {
      "inputs": [
        {
          "internalType": "string",
          "name": "_name",
          "type": "string"
        },
        {
          "internalType": "string",
          "name": "_symbol",
          "type": "string"
        }
      ],
      "name": "createToken",
      "outputs": [],
      "stateMutability": "nonpayable",
      "type": "function"
    },
    {
      "inputs": [],
      "name": "feeCalculator",
      "outputs": [
        {
          "internalType": "contract FeeCalculator",
          "name": "",
          "type": "address"
        }
      ],
      "stateMutability": "view",
      "type": "function"
    },
    {
      "inputs": [],
      "name": "governance",
      "outputs": [
        {
          "internalType": "contract Governance",
          "name": "",
          "type": "address"
        }
      ],
      "stateMutability": "view",
      "type": "function"
    },
    {
      "inputs": [
        {
          "internalType": "uint16",
          "name": "_targetChainId",
          "type": "uint16"
        },
        {
          "internalType": "address payable",
          "name": "_token",
          "type": "address"
        },
        {
          "internalType": "uint256",
          "name": "_amount",
          "type": "uint256"
        },
        {
          "internalType": "uint256",
          "name": "_deadline",
          "type": "uint256"
        },
        {
          "internalType": "uint8",
          "name": "v",
          "type": "uint8"
        },
        {
          "internalType": "bytes32",
          "name": "r",
          "type": "bytes32"
        },
        {
          "internalType": "bytes32",
          "name": "s",
          "type": "bytes32"
        }
      ],
      "name": "lock",
      "outputs": [],
      "stateMutability": "nonpayable",
      "type": "function"
    },
    {
      "inputs": [
        {
          "internalType": "address",
          "name": "_receiver",
          "type": "address"
        },
        {
          "internalType": "uint256",
          "name": "_amount",
          "type": "uint256"
        },
        {
          "internalType": "address payable",
          "name": "_wrappedToken",
          "type": "address"
        },
        {
          "internalType": "bytes[]",
          "name": "_validatorsSignatures",
          "type": "bytes[]"
        }
      ],
      "name": "mint",
      "outputs": [],
      "stateMutability": "payable",
      "type": "function"
    },
    {
      "inputs": [
        {
          "internalType": "address",
          "name": "_receiver",
          "type": "address"
        },
        {
          "internalType": "uint256",
          "name": "_amount",
          "type": "uint256"
        },
        {
          "internalType": "address payable",
          "name": "_token",
          "type": "address"
        },
        {
          "internalType": "bytes[]",
          "name": "_validatorsSignatures",
          "type": "bytes[]"
        }
      ],
      "name": "release",
      "outputs": [],
      "stateMutability": "payable",
      "type": "function"
    },
    {
      "inputs": [],
      "name": "wrappedTokenFactory",
      "outputs": [
        {
          "internalType": "contract WrappedTokenFactory",
          "name": "",
          "type": "address"
        }
      ],
      "stateMutability": "view",
      "type": "function"
    }
  ],
  "bytecode": "0x60806040523480156200001157600080fd5b506040516200338738038062003387833981810160405281019062000037919062000288565b6200006b7f1cd40f6d5a05733d25c790945beba3674dff1db809e82ec4ecfbf086056b4f8f60001b6200026e60201b60201c565b6200009f7f8276a9b38e1d9046990410acf680c8019430e8a2239d3d00f8de499893b2e73460001b6200026e60201b60201c565b620000d37fd56eb555d75aa5b38f0de46fcd2e5da8b6cd6777b51c979e22bac906eb0bd29c60001b6200026e60201b60201c565b826000806101000a81548173ffffffffffffffffffffffffffffffffffffffff021916908373ffffffffffffffffffffffffffffffffffffffff160217905550620001477f9feb323aa7a34d5041c81acd235b965f1f16bff0075295a3b5cb19a80d0f78c360001b6200026e60201b60201c565b6200017b7f2e532ccefcbfdebd77f7377ce2f5af1a6299acf0aed2db342f78e2a82999404660001b6200026e60201b60201c565b81600160006101000a81548173ffffffffffffffffffffffffffffffffffffffff021916908373ffffffffffffffffffffffffffffffffffffffff160217905550620001f07f960e0b83733a6cc907d1a589e1396165e5c0b1b9b805db628610e7f168eb676560001b6200026e60201b60201c565b620002247f9a9e8363d76d4ed8ce8e601446315e5d5dac37983f3765689464bcef0bc31abe60001b6200026e60201b60201c565b80600260006101000a81548173ffffffffffffffffffffffffffffffffffffffff021916908373ffffffffffffffffffffffffffffffffffffffff1602179055505050506200032c565b50565b600081519050620002828162000312565b92915050565b6000806000606084860312156200029e57600080fd5b6000620002ae8682870162000271565b9350506020620002c18682870162000271565b9250506040620002d48682870162000271565b9150509250925092565b6000620002eb82620002f2565b9050919050565b600073ffffffffffffffffffffffffffffffffffffffff82169050919050565b6200031d81620002de565b81146200032957600080fd5b50565b61304b806200033c6000396000f3fe6080604052600436106100865760003560e01c80635aa6e675116100595780635aa6e675146101225780636791e4471461014d578063b00eb9fe14610169578063d294f09314610194578063eaa7c826146101ab57610086565b80631a5135da1461008b578063282f62b5146100b45780632f2f2d56146100dd578063319cd48814610106575b600080fd5b34801561009757600080fd5b506100b260048036038101906100ad91906124ea565b6101d6565b005b3480156100c057600080fd5b506100db60048036038101906100d69190612588565b610562565b005b3480156100e957600080fd5b5061010460048036038101906100ff9190612475565b610af3565b005b610120600480360381019061011b9190612362565b610da8565b005b34801561012e57600080fd5b50610137611336565b6040516101449190612a48565b60405180910390f35b61016760048036038101906101629190612362565b61135a565b005b34801561017557600080fd5b5061017e611aef565b60405161018b9190612a2d565b60405180910390f35b3480156101a057600080fd5b506101a9611b15565b005b3480156101b757600080fd5b506101c061213d565b6040516101cd9190612a63565b60405180910390f35b6102027f5f7f5fceb68641f368f6c012d67d09822772af9a3d1a138500c8666c8e596c3d60001b612163565b61022e7fb3fe99db99a84f8a8127226820a728559515ec208adcca994af03c62c251e02d60001b612163565b61025a7f2d984fabbcbf8b155a9da335187eaf594b95818d41f88b9c71e39c33145a174f60001b612163565b6102867f4cc707294f00fcf83eaddf80f9c465f28e052fd3e4caf69466aff1566f2afc4360001b612163565b600085116102c9576040517f08c379a00000000000000000000000000000000000000000000000000000000081526004016102c090612b19565b60405180910390fd5b6102f57fbef8bd7a78a0e1b86b80fa20e9986000855ea6354fcf5912a5553dd332c16c1060001b612163565b6103217f7aa31f75939421ece9eb5def93de2de87718b00c07a905c855216a1d045814f860001b612163565b61034d7f03db56af62f1f527aa7cf68092c2b02467f54391ec6c2547b6ee8b3487a1bf6460001b612163565b8573ffffffffffffffffffffffffffffffffffffffff1663d505accf333088888888886040518863ffffffff1660e01b81526004016103929796959493929190612947565b600060405180830381600087803b1580156103ac57600080fd5b505af11580156103c0573d6000803e3d6000fd5b505050506103f07ffb742e2a73a8c4b7e08ced2a96ad125bfbbee0754c516319f0e261ac687256f760001b612163565b61041c7ff43090879593e4c188b433c2b1ecafa35c8bd39c550327287d0062d652e6cec960001b612163565b8573ffffffffffffffffffffffffffffffffffffffff166323b872dd3330886040518463ffffffff1660e01b815260040161045993929190612910565b602060405180830381600087803b15801561047357600080fd5b505af1158015610487573d6000803e3d6000fd5b505050506040513d601f19601f820116820180604052508101906104ab9190612423565b506104d87fd94da917839a0f30f6e2100efa7cd87cd4fb6c8e2cae9ac5f4717a4c58942c1160001b612163565b6105047f2e0996ddc123981c009e0cba7a0b4002d86a6859fa436b8cf9ca57a30ba089ff60001b612163565b8661ffff163373ffffffffffffffffffffffffffffffffffffffff167fa8c70ec6b821c5df3793c53c2cb5b13df03a73bb01afe315d12c8c980c7c306688886040516105519291906128e7565b60405180910390a350505050505050565b61058e7f12c7992d854befbffc14219ddcc7d91dc39c365354feebe24508e02f28a6cd4e60001b612163565b6105ba7f48c97479328fe279c5d8f87d1e6d43cdb489e360c209b5186e728638d4835e5560001b612163565b6105e67f0884b8338a7c77aeb8ce1c30e4096dc8fd09c8954e6b775499aca4058042995f60001b612163565b6106127f290b40fb6951f616151bd8d83d11be3a8c5170587613d76724e2f3ca8b302f3360001b612163565b60008511610655576040517f08c379a000000000000000000000000000000000000000000000000000000000815260040161064c90612ab9565b60405180910390fd5b6106817f09365bc0cf3a0c526f3b08d9756bef77d1b45c1907a734fac30a4e4eae2f6dd060001b612163565b6106ad7f97580112ffda0e3c4ffd7225b62b1474a8cc31fdc49e8316a3b88b106652f2e360001b612163565b6106d97fdca4aec468d6c304633cfeb4f07ce9de3548cf36520790137d486e8f31cff3c160001b612163565b6000600160009054906101000a900473ffffffffffffffffffffffffffffffffffffffff1673ffffffffffffffffffffffffffffffffffffffff16631050791c886040518263ffffffff1660e01b815260040161073691906128b1565b60206040518083038186803b15801561074e57600080fd5b505afa158015610762573d6000803e3d6000fd5b505050506040513d601f19601f82011682018060405250810190610786919061244c565b90506107b47fc8613bd6e85579d7a90672ae98f44f890a855a53681bd414aa91c9b1182b744b60001b612163565b6107e07f915638a974f7961196a101375cb7c7ad355f200c9d8b6339a91036c1d385db4960001b612163565b61080c7f887a1026fef9858ac19e878df75af1b75450dc302ff6ce5bbc25e9cd2609c8cf60001b612163565b600073ffffffffffffffffffffffffffffffffffffffff168173ffffffffffffffffffffffffffffffffffffffff16141561087c576040517f08c379a000000000000000000000000000000000000000000000000000000000815260040161087390612b59565b60405180910390fd5b6108a87fde50a5d7c259c0c817395a77fc82f183fa3f537d8cf9d71118436e8640fb59dd60001b612163565b6108d47f36fb7a056976abad50c7360555f9a44eaefeea2c646b1dd0a6875f83937619a760001b612163565b6109007f4e4a0a4b403c096547692701536b7c2e16e83595486ccd45b83e49dbfc56ade060001b612163565b8073ffffffffffffffffffffffffffffffffffffffff1663d505accf333089898989896040518863ffffffff1660e01b81526004016109459796959493929190612947565b600060405180830381600087803b15801561095f57600080fd5b505af1158015610973573d6000803e3d6000fd5b505050506109a37f0a74e2c70e7fd8ce07a652e58b54644fcdfaf00832abbf4f3c138da1600f244160001b612163565b6109cf7f11b068a97397f6a873127683e4a3e78cf425c0adcbda386b35befe9a29eb8fdf60001b612163565b8073ffffffffffffffffffffffffffffffffffffffff166379cc679033886040518363ffffffff1660e01b8152600401610a0a9291906129b6565b600060405180830381600087803b158015610a2457600080fd5b505af1158015610a38573d6000803e3d6000fd5b50505050610a687fe8e3c9f4c8260593770c2cdac37d1c2105d97bc31cef626fc4cf5dce566b2f5760001b612163565b610a947f8d8d4043a5cd71d0c6228023364acd31f5eb6805b45de759a67c00729d38bc9f60001b612163565b8761ffff163373ffffffffffffffffffffffffffffffffffffffff167f5dc93246720564c1f3d731c12f61d58cec89d10712eeeb281f5c13d7bf5491f08989604051610ae19291906129b6565b60405180910390a35050505050505050565b610b1f7fc23f903ca019e3ce871ebe30c896729e8567b84b776215679b81d25aa8bec2f860001b612163565b610b4b7f5d7ca245d72a2425863e1ea9c52a4696cf3915b8baae22701ffa094847ce827960001b612163565b610b777f7dba8451c463776c19c4a0f236d6a2ec1280fa6966e1574447e88601be4d1cdc60001b612163565b610ba37f667b755e7b81fcfcf98827e20a0a2694fdab17c52152f67fdcc919bdfc6ec26160001b612163565b60008054906101000a900473ffffffffffffffffffffffffffffffffffffffff1673ffffffffffffffffffffffffffffffffffffffff166395a078e8336040518263ffffffff1660e01b8152600401610bfc91906128b1565b60206040518083038186803b158015610c1457600080fd5b505afa158015610c28573d6000803e3d6000fd5b505050506040513d601f19601f82011682018060405250810190610c4c9190612423565b610c8b576040517f08c379a0000000000000000000000000000000000000000000000000000000008152600401610c8290612b39565b60405180910390fd5b610cb77f39b85065d49d3ce5c574ef99427a3fb9843342764009a9e5d569ce1434ea412e60001b612163565b610ce37fe7f3411c3217c1ab7017cac8350c2118741681bbd033905f7524e6bc381f55e460001b612163565b610d0f7f62df050fc03ddc4fb5b0a4ccaabc97f27769e84a84a1072fbd88b336ac1ce5e060001b612163565b600160009054906101000a900473ffffffffffffffffffffffffffffffffffffffff1673ffffffffffffffffffffffffffffffffffffffff16632f2f2d56858585856040518563ffffffff1660e01b8152600401610d709493929190612a7e565b600060405180830381600087803b158015610d8a57600080fd5b505af1158015610d9e573d6000803e3d6000fd5b5050505050505050565b610dd47f1a897368ad97f468a9a9b76f739e79e15fd5990a3ba51368411ce443fb2be23860001b612163565b610e007f591da648f3d8fb0bbfee2ae551da7ed9988c5748d483ebd07793fb9976043a9760001b612163565b610e2c7f78f7a3ee3532f976b92ef39cb96de677aa9a08664c329745a0c0e993d408fc2660001b612163565b610e587f6eeb26217a3789283232e99515b4e512a0e202c9cb64e0e9ae2f920fc3d2dab460001b612163565b34600260009054906101000a900473ffffffffffffffffffffffffffffffffffffffff1673ffffffffffffffffffffffffffffffffffffffff16638abdf5aa6040518163ffffffff1660e01b815260040160206040518083038186803b158015610ec157600080fd5b505afa158015610ed5573d6000803e3d6000fd5b505050506040513d601f19601f82011682018060405250810190610ef99190612626565b14610f39576040517f08c379a0000000000000000000000000000000000000000000000000000000008152600401610f3090612af9565b60405180910390fd5b610f657f4d09a3d72a2c2b517f5ba154f13671bdaaf45df6128855adbfe953eb6e276bb060001b612163565b610f917fcb3849eb339f7349060890b000537198a38f2586b14708c0afb685eec0293d0260001b612163565b610fbd7f1c62833c4affdb6f576c2eeb132790011e415372ebc5ce79601766719c5e6f6260001b612163565b60008060009054906101000a900473ffffffffffffffffffffffffffffffffffffffff1673ffffffffffffffffffffffffffffffffffffffff1663856fe16f87878787876040518663ffffffff1660e01b81526004016110219594939291906129df565b600060405180830381600087803b15801561103b57600080fd5b505af115801561104f573d6000803e3d6000fd5b505050506040513d6000823e3d601f19601f8201168201806040525081019061107891906123e2565b90506110a67f8a013129713608813b4b2e0061c20ceffd6e037c87322ee0099e743b6d817a3060001b612163565b6110d27f50307ab79aea858a31d7a444ab6c7ee13401c6b13565b9c32c7a90ecd50a81e060001b612163565b8373ffffffffffffffffffffffffffffffffffffffff1663a9059cbb33876040518363ffffffff1660e01b815260040161110d9291906129b6565b602060405180830381600087803b15801561112757600080fd5b505af115801561113b573d6000803e3d6000fd5b505050506040513d601f19601f8201168201806040525081019061115f9190612423565b5061118c7fc5937c5270996a07def33acd8e5c93ebf436e33e9b6454504b7e77f0c8dce72e60001b612163565b6111b87ff7e76028111136a2fd47365729f9acde1b3698a0a4859b413b17462f6ca6b2cd60001b612163565b600260009054906101000a900473ffffffffffffffffffffffffffffffffffffffff1673ffffffffffffffffffffffffffffffffffffffff16637bf8def282600081518110611230577f4e487b7100000000000000000000000000000000000000000000000000000000600052603260045260246000fd5b60200260200101516040518263ffffffff1660e01b815260040161125491906128b1565b600060405180830381600087803b15801561126e57600080fd5b505af1158015611282573d6000803e3d6000fd5b505050506112b27f9c49349be6ccd674f935da5fb45984a79bb5c30a9854fc720e87d5b830de922b60001b612163565b6112de7fcfc3b28acb0012e2183292bced88b677ae405944e5670b1e68b03934fe2cb24760001b612163565b3373ffffffffffffffffffffffffffffffffffffffff167fcb54aad3bd772fcfe1bc124e01bd1a91a91c9d80126d8b3014c4d9e687d5ca4885876040516113269291906128e7565b60405180910390a2505050505050565b60008054906101000a900473ffffffffffffffffffffffffffffffffffffffff1681565b6113867fd047e565251d6c4baddf291c3fc3d22b4dc1a4b722396073e3a5ee38f5f3a42460001b612163565b6113b27f6b8365f7d979b392342b78f3022c30f368587d1d7364593e4ce60710c50c808b60001b612163565b6113de7f3bc74ba1e61ca607940c1f145a78591b672ddc792f0445138337ea28e6d8a2f960001b612163565b61140a7f0d7420e310523f42abf3305857eb1ab15633c3fe06584252a6bbbd7a95bc195860001b612163565b34600260009054906101000a900473ffffffffffffffffffffffffffffffffffffffff1673ffffffffffffffffffffffffffffffffffffffff16638abdf5aa6040518163ffffffff1660e01b815260040160206040518083038186803b15801561147357600080fd5b505afa158015611487573d6000803e3d6000fd5b505050506040513d601f19601f820116820180604052508101906114ab9190612626565b146114eb576040517f08c379a00000000000000000000000000000000000000000000000000000000081526004016114e290612af9565b60405180910390fd5b6115177f533c685f1b1e2e8d12d5fd1a714613e9c2d8f268c15ba3aa1904e2ebe876dae360001b612163565b6115437f4bd6102329cdb9f962c8aa1828dad5f15dd99d134103c980dd1467b19ff948d060001b612163565b61156f7f0d376c8fbac46da0484f764a525379ba6c98a69e06f21ff26aa8b1315633d51560001b612163565b60008060009054906101000a900473ffffffffffffffffffffffffffffffffffffffff1673ffffffffffffffffffffffffffffffffffffffff1663856fe16f87878787876040518663ffffffff1660e01b81526004016115d39594939291906129df565b600060405180830381600087803b1580156115ed57600080fd5b505af1158015611601573d6000803e3d6000fd5b505050506040513d6000823e3d601f19601f8201168201806040525081019061162a91906123e2565b90506116587fc27be76adeaf198a8d64e79df6083425dc3210ce2f4be1ea70cdcae3a7cd089260001b612163565b6116847ff4e83c5725eaf27fee9eead3935ed0f527d8c1ab19c94154feca94267d4bed3b60001b612163565b6000600160009054906101000a900473ffffffffffffffffffffffffffffffffffffffff1673ffffffffffffffffffffffffffffffffffffffff16631050791c866040518263ffffffff1660e01b81526004016116e191906128cc565b60206040518083038186803b1580156116f957600080fd5b505afa15801561170d573d6000803e3d6000fd5b505050506040513d601f19601f82011682018060405250810190611731919061244c565b905061175f7ffb582040e32a92a44484b21e31d008bf911473d444e206b2ddefa883fc1e3dec60001b612163565b61178b7f4d33866ef969da46c0db9e57f87171f886df6cb003d7a8aa116cf9ea4c3a25b060001b612163565b6117b77f5fe514a085f86ccb037da8f1cfd2860b08375cb4c08837ed3afacf0c39e7da1e60001b612163565b600073ffffffffffffffffffffffffffffffffffffffff168173ffffffffffffffffffffffffffffffffffffffff161415611827576040517f08c379a000000000000000000000000000000000000000000000000000000000815260040161181e90612b59565b60405180910390fd5b6118537f2207f6582028562bf00eaa27af31e2bd9c2915a5396087b8f37815248c603dde60001b612163565b61187f7f7a01e10f175eebb37cd109a21359ae40f3345195cd935a7a751971a3a1847c7660001b612163565b6118ab7fa5cb3ba24233f5fa31e7df48b2f4f2230c972e19d26723f8f71bde7ca908219960001b612163565b8073ffffffffffffffffffffffffffffffffffffffff166340c10f1988886040518363ffffffff1660e01b81526004016118e69291906129b6565b600060405180830381600087803b15801561190057600080fd5b505af1158015611914573d6000803e3d6000fd5b505050506119447f07218912633164c6df430a49e175b412d4ea542cc145d3d155a415b6f0cee80660001b612163565b6119707fac64e4452c0e9288d26d6294fc4e79d2aa6304f82cb0ab7f30f7431d03cbd77c60001b612163565b600260009054906101000a900473ffffffffffffffffffffffffffffffffffffffff1673ffffffffffffffffffffffffffffffffffffffff16637bf8def2836000815181106119e8577f4e487b7100000000000000000000000000000000000000000000000000000000600052603260045260246000fd5b60200260200101516040518263ffffffff1660e01b8152600401611a0c91906128b1565b600060405180830381600087803b158015611a2657600080fd5b505af1158015611a3a573d6000803e3d6000fd5b50505050611a6a7f62b31eb9de908645c52b9dc6f66b7b0455ff9970ba512bb75215c24c901d590f60001b612163565b611a967fed73906903b28e2ffbb0a38423de5530552f313fbcb00d26481a57f96176718860001b612163565b8673ffffffffffffffffffffffffffffffffffffffff167fab8530f87dc9b59234c4623bf917212bb2536d647574c8e7e5da92c2ede0c9f88688604051611ade9291906128e7565b60405180910390a250505050505050565b600260009054906101000a900473ffffffffffffffffffffffffffffffffffffffff1681565b611b417f9468e02dc382eff17eed60acb0f65d4eb3e740e11b225dfb255c4c98466678ef60001b612163565b611b6d7fc2e0493772b58712f36e20485d1c080e72fec8ac5c6db75d0048812a5a87ace360001b612163565b611b997f04ae86bd09e133a2965ee5b63a3d32fb0e43f6a008700b7c0f6ca34942ac94ea60001b612163565b611bc57ff8372e3a7e7422ded91eec9428c62cc493d0b79cc221af5c8ff251c054350fa960001b612163565b60008054906101000a900473ffffffffffffffffffffffffffffffffffffffff1673ffffffffffffffffffffffffffffffffffffffff166395a078e8336040518263ffffffff1660e01b8152600401611c1e91906128b1565b60206040518083038186803b158015611c3657600080fd5b505afa158015611c4a573d6000803e3d6000fd5b505050506040513d601f19601f82011682018060405250810190611c6e9190612423565b611cad576040517f08c379a0000000000000000000000000000000000000000000000000000000008152600401611ca490612b39565b60405180910390fd5b611cd97f016360a4cabd851a3840293e449cbee82343387290a67cd0cc6608bb9c0e381860001b612163565b611d057f0dc81be733595df80ec0c24292b7f3057dea0c73702d44b92bd6978beef4650260001b612163565b611d317f86849eae51c684ef2b7da0d768584297deead86a3446e58e416dc10c5acaa6d060001b612163565b6000600260009054906101000a900473ffffffffffffffffffffffffffffffffffffffff1673ffffffffffffffffffffffffffffffffffffffff1663fcf66664336040518263ffffffff1660e01b8152600401611d8e91906128b1565b60206040518083038186803b158015611da657600080fd5b505afa158015611dba573d6000803e3d6000fd5b505050506040513d601f19601f82011682018060405250810190611dde9190612626565b9050611e0c7fd22ff67966fce36e558d869c38d95ad99c2dccaf4484db9a0ae5e098f24fd70d60001b612163565b611e387f34ea89e9099c22433ebc29aec1c784aaeef37f965d991ca56b6c262a7df4f1ca60001b612163565b611e647f887dda3b887e7f8894e0c518ce4e8c5db37275a82bc1a730d10086edda3c056760001b612163565b60008111611ea7576040517f08c379a0000000000000000000000000000000000000000000000000000000008152600401611e9e90612b79565b60405180910390fd5b611ed37f49f5a0b7c3a8dc4e1957af394d384a20f06163b9f7d5fc3e9ef312e127ceca1d60001b612163565b611eff7febd3f5717d118e3c0f2a724e8fe4a85fd6a5917f22ba53ac671bfb47485951b460001b612163565b611f2b7f912d7725a711bf7d4a122ece7ff47df1a20fe9b3d40efe3a04e1342627b48e5560001b612163565b60003373ffffffffffffffffffffffffffffffffffffffff166108fc839081150290604051600060405180830381858888f193505050509050611f907fd03b6592012a641afd969c348e98b74f25c44c3cab858ed0dc22d2b537262f1360001b612163565b611fbc7f3b0ba5198273a7efa593d850149d1c91a82a573aecc965db0a7fd3b3fbc9875860001b612163565b611fe87f7b7860961b380b88bc5af402559a9c9a73d221d2fa3bd9abaa3bb64e54f37c9860001b612163565b80612028576040517f08c379a000000000000000000000000000000000000000000000000000000000815260040161201f90612ad9565b60405180910390fd5b6120547f0ded133d70006fcf87d779b48c6366d584544fbafb4e3706310dc4096446597660001b612163565b6120807f2f266468e5c62d2e2b7cda8e5ae077e5225b32752a908f0596ebc83fbaa996c260001b612163565b6120ac7f08e468ac345e34efbf0f6b46604a1279392c61863e3320de18bdc7ba98e4424460001b612163565b600260009054906101000a900473ffffffffffffffffffffffffffffffffffffffff1673ffffffffffffffffffffffffffffffffffffffff16631e83409a336040518263ffffffff1660e01b815260040161210791906128b1565b600060405180830381600087803b15801561212157600080fd5b505af1158015612135573d6000803e3d6000fd5b505050505050565b600160009054906101000a900473ffffffffffffffffffffffffffffffffffffffff1681565b50565b600061217961217484612bbe565b612b99565b9050808382526020820190508285602086028201111561219857600080fd5b60005b858110156121c857816121ae88826121e7565b84526020840193506020830192505060018101905061219b565b5050509392505050565b6000813590506121e181612f5d565b92915050565b6000815190506121f681612f5d565b92915050565b60008135905061220b81612f74565b92915050565b600082601f83011261222257600080fd5b8151612232848260208601612166565b91505092915050565b60008083601f84011261224d57600080fd5b8235905067ffffffffffffffff81111561226657600080fd5b60208301915083602082028301111561227e57600080fd5b9250929050565b60008151905061229481612f8b565b92915050565b6000813590506122a981612fa2565b92915050565b6000815190506122be81612fb9565b92915050565b60008083601f8401126122d657600080fd5b8235905067ffffffffffffffff8111156122ef57600080fd5b60208301915083600182028301111561230757600080fd5b9250929050565b60008135905061231d81612fd0565b92915050565b60008135905061233281612fe7565b92915050565b60008151905061234781612fe7565b92915050565b60008135905061235c81612ffe565b92915050565b60008060008060006080868803121561237a57600080fd5b6000612388888289016121d2565b955050602061239988828901612323565b94505060406123aa888289016121fc565b935050606086013567ffffffffffffffff8111156123c757600080fd5b6123d38882890161223b565b92509250509295509295909350565b6000602082840312156123f457600080fd5b600082015167ffffffffffffffff81111561240e57600080fd5b61241a84828501612211565b91505092915050565b60006020828403121561243557600080fd5b600061244384828501612285565b91505092915050565b60006020828403121561245e57600080fd5b600061246c848285016122af565b91505092915050565b6000806000806040858703121561248b57600080fd5b600085013567ffffffffffffffff8111156124a557600080fd5b6124b1878288016122c4565b9450945050602085013567ffffffffffffffff8111156124d057600080fd5b6124dc878288016122c4565b925092505092959194509250565b600080600080600080600060e0888a03121561250557600080fd5b60006125138a828b0161230e565b97505060206125248a828b016121fc565b96505060406125358a828b01612323565b95505060606125468a828b01612323565b94505060806125578a828b0161234d565b93505060a06125688a828b0161229a565b92505060c06125798a828b0161229a565b91505092959891949750929550565b600080600080600080600060e0888a0312156125a357600080fd5b60006125b18a828b0161230e565b97505060206125c28a828b016121d2565b96505060406125d38a828b01612323565b95505060606125e48a828b01612323565b94505060806125f58a828b0161234d565b93505060a06126068a828b0161229a565b92505060c06126178a828b0161229a565b91505092959891949750929550565b60006020828403121561263857600080fd5b600061264684828501612338565b91505092915050565b600061265c848484612717565b90509392505050565b61266e81612d1c565b82525050565b61267d81612c9d565b82525050565b61268c81612c8b565b82525050565b600061269e8385612c01565b9350836020840285016126b084612bea565b8060005b878110156126f65784840389526126cb8284612c34565b6126d686828461264f565b95506126e184612bf4565b935060208b019a5050506001810190506126b4565b50829750879450505050509392505050565b61271181612cbb565b82525050565b60006127238385612c12565b9350612730838584612dbe565b61273983612e2d565b840190509392505050565b61274d81612d2e565b82525050565b61275c81612d52565b82525050565b61276b81612d76565b82525050565b600061277d8385612c23565b935061278a838584612dbe565b61279383612e2d565b840190509392505050565b60006127ab601983612c23565b91506127b682612e3e565b602082019050919050565b60006127ce601883612c23565b91506127d982612e67565b602082019050919050565b60006127f1601683612c23565b91506127fc82612e90565b602082019050919050565b6000612814601b83612c23565b915061281f82612eb9565b602082019050919050565b6000612837601883612c23565b915061284282612ee2565b602082019050919050565b600061285a601d83612c23565b915061286582612f0b565b602082019050919050565b600061287d601c83612c23565b915061288882612f34565b602082019050919050565b61289c81612d05565b82525050565b6128ab81612d0f565b82525050565b60006020820190506128c66000830184612683565b92915050565b60006020820190506128e16000830184612665565b92915050565b60006040820190506128fc6000830185612665565b6129096020830184612893565b9392505050565b60006060820190506129256000830186612683565b6129326020830185612683565b61293f6040830184612893565b949350505050565b600060e08201905061295c600083018a612683565b6129696020830189612683565b6129766040830188612893565b6129836060830187612893565b61299060808301866128a2565b61299d60a0830185612708565b6129aa60c0830184612708565b98975050505050505050565b60006040820190506129cb6000830185612683565b6129d86020830184612893565b9392505050565b60006080820190506129f46000830188612683565b612a016020830187612893565b612a0e6040830186612674565b8181036060830152612a21818486612692565b90509695505050505050565b6000602082019050612a426000830184612744565b92915050565b6000602082019050612a5d6000830184612753565b92915050565b6000602082019050612a786000830184612762565b92915050565b60006040820190508181036000830152612a99818688612771565b90508181036020830152612aae818486612771565b905095945050505050565b60006020820190508181036000830152612ad28161279e565b9050919050565b60006020820190508181036000830152612af2816127c1565b9050919050565b60006020820190508181036000830152612b12816127e4565b9050919050565b60006020820190508181036000830152612b3281612807565b9050919050565b60006020820190508181036000830152612b528161282a565b9050919050565b60006020820190508181036000830152612b728161284d565b9050919050565b60006020820190508181036000830152612b9281612870565b9050919050565b6000612ba3612bb4565b9050612baf8282612dcd565b919050565b6000604051905090565b600067ffffffffffffffff821115612bd957612bd8612dfe565b5b602082029050602081019050919050565b6000819050919050565b6000602082019050919050565b600082825260208201905092915050565b600082825260208201905092915050565b600082825260208201905092915050565b60008083356001602003843603038112612c4d57600080fd5b83810192508235915060208301925067ffffffffffffffff821115612c7157600080fd5b600182023603841315612c8357600080fd5b509250929050565b6000612c9682612ce5565b9050919050565b6000612ca882612ce5565b9050919050565b60008115159050919050565b6000819050919050565b6000612cd082612c8b565b9050919050565b600061ffff82169050919050565b600073ffffffffffffffffffffffffffffffffffffffff82169050919050565b6000819050919050565b600060ff82169050919050565b6000612d2782612d9a565b9050919050565b6000612d3982612d40565b9050919050565b6000612d4b82612ce5565b9050919050565b6000612d5d82612d64565b9050919050565b6000612d6f82612ce5565b9050919050565b6000612d8182612d88565b9050919050565b6000612d9382612ce5565b9050919050565b6000612da582612dac565b9050919050565b6000612db782612ce5565b9050919050565b82818337600083830152505050565b612dd682612e2d565b810181811067ffffffffffffffff82111715612df557612df4612dfe565b5b80604052505050565b7f4e487b7100000000000000000000000000000000000000000000000000000000600052604160045260246000fd5b6000601f19601f8301169050919050565b7f4275726e7420616d6f756e742069732072657175697265642e00000000000000600082015250565b7f4665657320636f756c646e277420626520636c61696d65640000000000000000600082015250565b7f4e6f7420656e6f75676820736572766963652066656500000000000000000000600082015250565b7f4272696467656420616d6f756e742069732072657175697265642e0000000000600082015250565b7f56616c696461746f72206e6f7420726567697374657265640000000000000000600082015250565b7f5772617070656420546f6b656e206973206e6f74206578697374696e67000000600082015250565b7f4e6f20616363756d756c61746564206665657320746f20636c61696d00000000600082015250565b612f6681612c8b565b8114612f7157600080fd5b50565b612f7d81612c9d565b8114612f8857600080fd5b50565b612f9481612caf565b8114612f9f57600080fd5b50565b612fab81612cbb565b8114612fb657600080fd5b50565b612fc281612cc5565b8114612fcd57600080fd5b50565b612fd981612cd7565b8114612fe457600080fd5b50565b612ff081612d05565b8114612ffb57600080fd5b50565b61300781612d0f565b811461301257600080fd5b5056fea264697066735822122027df39af1b3b12fc50a65e559d4a2b5e94130b9ac0d896faf8d4b6b6994bbeaa64736f6c63430008040033",
  "linkReferences": {},
  "deployedLinkReferences": {}
}