{
  "_format": "hh-sol-artifact-1",
  "contractName": "FeeCalculator",
  "sourceName": "contracts/FeeCalculator.sol",
  "abi": [
    {
      "inputs": [
        {
          "internalType": "uint256",
          "name": "_serviceFee",
          "type": "uint256"
        }
      ],
      "stateMutability": "nonpayable",
      "type": "constructor"
    },
    {
      "anonymous": false,
      "inputs": [
        {
          "indexed": true,
          "internalType": "address",
          "name": "validator",
          "type": "address"
        },
        {
          "indexed": false,
          "internalType": "uint256",
          "name": "amount",
          "type": "uint256"
        }
      ],
      "name": "Claim",
      "type": "event"
    },
    {
      "anonymous": false,
      "inputs": [
        {
          "indexed": true,
          "internalType": "address",
          "name": "previousOwner",
          "type": "address"
        },
        {
          "indexed": true,
          "internalType": "address",
          "name": "newOwner",
          "type": "address"
        }
      ],
      "name": "OwnershipTransferred",
      "type": "event"
    },
    {
      "anonymous": false,
      "inputs": [
        {
          "indexed": false,
          "internalType": "uint256",
          "name": "newServiceFee",
          "type": "uint256"
        }
      ],
      "name": "ServiceFeeSet",
      "type": "event"
    },
    {
      "inputs": [
        {
          "internalType": "address",
          "name": "_validator",
          "type": "address"
        }
      ],
      "name": "accumulatedFees",
      "outputs": [
        {
          "internalType": "uint256",
          "name": "",
          "type": "uint256"
        }
      ],
      "stateMutability": "view",
      "type": "function"
    },
    {
      "inputs": [
        {
          "internalType": "address",
          "name": "_validator",
          "type": "address"
        }
      ],
      "name": "accureFees",
      "outputs": [],
      "stateMutability": "nonpayable",
      "type": "function"
    },
    {
      "inputs": [
        {
          "internalType": "address",
          "name": "_validator",
          "type": "address"
        }
      ],
      "name": "claim",
      "outputs": [],
      "stateMutability": "nonpayable",
      "type": "function"
    },
    {
      "inputs": [],
      "name": "owner",
      "outputs": [
        {
          "internalType": "address",
          "name": "",
          "type": "address"
        }
      ],
      "stateMutability": "view",
      "type": "function"
    },
    {
      "inputs": [],
      "name": "renounceOwnership",
      "outputs": [],
      "stateMutability": "nonpayable",
      "type": "function"
    },
    {
      "inputs": [],
      "name": "serviceFee",
      "outputs": [
        {
          "internalType": "uint256",
          "name": "",
          "type": "uint256"
        }
      ],
      "stateMutability": "view",
      "type": "function"
    },
    {
      "inputs": [
        {
          "internalType": "uint256",
          "name": "_serviceFee",
          "type": "uint256"
        }
      ],
      "name": "setServiceFee",
      "outputs": [],
      "stateMutability": "nonpayable",
      "type": "function"
    },
    {
      "inputs": [
        {
          "internalType": "address",
          "name": "newOwner",
          "type": "address"
        }
      ],
      "name": "transferOwnership",
      "outputs": [],
      "stateMutability": "nonpayable",
      "type": "function"
    }
  ],
  "bytecode": "0x608060405234801561001057600080fd5b5060405162000c4138038062000c4183398181016040528101906100349190610189565b61005061004561006560201b60201c565b61006d60201b60201c565b61005f8161013160201b60201c565b506101fd565b600033905090565b60008060009054906101000a900473ffffffffffffffffffffffffffffffffffffffff169050816000806101000a81548173ffffffffffffffffffffffffffffffffffffffff021916908373ffffffffffffffffffffffffffffffffffffffff1602179055508173ffffffffffffffffffffffffffffffffffffffff168173ffffffffffffffffffffffffffffffffffffffff167f8be0079c531659141344cd1fd0a4f28419497f9722a3daafe3b4186f6b6457e060405160405180910390a35050565b806001819055507fe2fe2af9f10aef22facefaa714f8d678288ee884fa15c5a52c0f776f92baafef60015460405161016991906101c1565b60405180910390a150565b600081519050610183816101e6565b92915050565b60006020828403121561019b57600080fd5b60006101a984828501610174565b91505092915050565b6101bb816101dc565b82525050565b60006020820190506101d660008301846101b2565b92915050565b6000819050919050565b6101ef816101dc565b81146101fa57600080fd5b50565b610a34806200020d6000396000f3fe608060405234801561001057600080fd5b50600436106100885760003560e01c80638abdf5aa1161005b5780638abdf5aa146100eb5780638da5cb5b14610109578063f2fde38b14610127578063fcf666641461014357610088565b80631e83409a1461008d5780635cdf76f8146100a9578063715018a6146100c55780637bf8def2146100cf575b600080fd5b6100a760048036038101906100a2919061075a565b610173565b005b6100c360048036038101906100be9190610783565b6102ca565b005b6100cd610352565b005b6100e960048036038101906100e4919061075a565b6103da565b005b6100f36104b1565b604051610100919061086b565b60405180910390f35b6101116104b7565b60405161011e9190610810565b60405180910390f35b610141600480360381019061013c919061075a565b6104e0565b005b61015d6004803603810190610158919061075a565b6105d8565b60405161016a919061086b565b60405180910390f35b61017b610621565b73ffffffffffffffffffffffffffffffffffffffff166101996104b7565b73ffffffffffffffffffffffffffffffffffffffff16146101ef576040517f08c379a00000000000000000000000000000000000000000000000000000000081526004016101e69061084b565b60405180910390fd5b6000600260008373ffffffffffffffffffffffffffffffffffffffff1673ffffffffffffffffffffffffffffffffffffffff1681526020019081526020016000205490506000600260008473ffffffffffffffffffffffffffffffffffffffff1673ffffffffffffffffffffffffffffffffffffffff168152602001908152602001600020819055508173ffffffffffffffffffffffffffffffffffffffff167f47cee97cb7acd717b3c0aa1435d004cd5b3c8c57d70dbceb4e4458bbd60e39d4826040516102be919061086b565b60405180910390a25050565b6102d2610621565b73ffffffffffffffffffffffffffffffffffffffff166102f06104b7565b73ffffffffffffffffffffffffffffffffffffffff1614610346576040517f08c379a000000000000000000000000000000000000000000000000000000000815260040161033d9061084b565b60405180910390fd5b61034f81610629565b50565b61035a610621565b73ffffffffffffffffffffffffffffffffffffffff166103786104b7565b73ffffffffffffffffffffffffffffffffffffffff16146103ce576040517f08c379a00000000000000000000000000000000000000000000000000000000081526004016103c59061084b565b60405180910390fd5b6103d8600061066c565b565b6103e2610621565b73ffffffffffffffffffffffffffffffffffffffff166104006104b7565b73ffffffffffffffffffffffffffffffffffffffff1614610456576040517f08c379a000000000000000000000000000000000000000000000000000000000815260040161044d9061084b565b60405180910390fd5b600154600260008373ffffffffffffffffffffffffffffffffffffffff1673ffffffffffffffffffffffffffffffffffffffff16815260200190815260200160002060008282546104a79190610897565b9250508190555050565b60015481565b60008060009054906101000a900473ffffffffffffffffffffffffffffffffffffffff16905090565b6104e8610621565b73ffffffffffffffffffffffffffffffffffffffff166105066104b7565b73ffffffffffffffffffffffffffffffffffffffff161461055c576040517f08c379a00000000000000000000000000000000000000000000000000000000081526004016105539061084b565b60405180910390fd5b600073ffffffffffffffffffffffffffffffffffffffff168173ffffffffffffffffffffffffffffffffffffffff1614156105cc576040517f08c379a00000000000000000000000000000000000000000000000000000000081526004016105c39061082b565b60405180910390fd5b6105d58161066c565b50565b6000600260008373ffffffffffffffffffffffffffffffffffffffff1673ffffffffffffffffffffffffffffffffffffffff168152602001908152602001600020549050919050565b600033905090565b806001819055507fe2fe2af9f10aef22facefaa714f8d678288ee884fa15c5a52c0f776f92baafef600154604051610661919061086b565b60405180910390a150565b60008060009054906101000a900473ffffffffffffffffffffffffffffffffffffffff169050816000806101000a81548173ffffffffffffffffffffffffffffffffffffffff021916908373ffffffffffffffffffffffffffffffffffffffff1602179055508173ffffffffffffffffffffffffffffffffffffffff168173ffffffffffffffffffffffffffffffffffffffff167f8be0079c531659141344cd1fd0a4f28419497f9722a3daafe3b4186f6b6457e060405160405180910390a35050565b60008135905061073f816109d0565b92915050565b600081359050610754816109e7565b92915050565b60006020828403121561076c57600080fd5b600061077a84828501610730565b91505092915050565b60006020828403121561079557600080fd5b60006107a384828501610745565b91505092915050565b6107b5816108ed565b82525050565b60006107c8602683610886565b91506107d382610958565b604082019050919050565b60006107eb602083610886565b91506107f6826109a7565b602082019050919050565b61080a8161091f565b82525050565b600060208201905061082560008301846107ac565b92915050565b60006020820190508181036000830152610844816107bb565b9050919050565b60006020820190508181036000830152610864816107de565b9050919050565b60006020820190506108806000830184610801565b92915050565b600082825260208201905092915050565b60006108a28261091f565b91506108ad8361091f565b9250827fffffffffffffffffffffffffffffffffffffffffffffffffffffffffffffffff038211156108e2576108e1610929565b5b828201905092915050565b60006108f8826108ff565b9050919050565b600073ffffffffffffffffffffffffffffffffffffffff82169050919050565b6000819050919050565b7f4e487b7100000000000000000000000000000000000000000000000000000000600052601160045260246000fd5b7f4f776e61626c653a206e6577206f776e657220697320746865207a65726f206160008201527f6464726573730000000000000000000000000000000000000000000000000000602082015250565b7f4f776e61626c653a2063616c6c6572206973206e6f7420746865206f776e6572600082015250565b6109d9816108ed565b81146109e457600080fd5b50565b6109f08161091f565b81146109fb57600080fd5b5056fea2646970667358221220d3470325f1145648449b07350e656d30e3d5421e818569449507761662afad0864736f6c63430008040033",
  "linkReferences": {},
  "deployedLinkReferences": {}
}