{
  "_format": "hh-sol-artifact-1",
  "contractName": "Governance",
  "sourceName": "contracts/Governance.sol",
  "abi": [
    {
      "inputs": [
        {
          "internalType": "address[]",
          "name": "_validators",
          "type": "address[]"
        }
      ],
      "stateMutability": "nonpayable",
      "type": "constructor"
    },
    {
      "anonymous": false,
      "inputs": [
        {
          "indexed": true,
          "internalType": "address",
          "name": "previousOwner",
          "type": "address"
        },
        {
          "indexed": true,
          "internalType": "address",
          "name": "newOwner",
          "type": "address"
        }
      ],
      "name": "OwnershipTransferred",
      "type": "event"
    },
    {
      "anonymous": false,
      "inputs": [
        {
          "indexed": true,
          "internalType": "address",
          "name": "validator",
          "type": "address"
        }
      ],
      "name": "ValidatorRegistered",
      "type": "event"
    },
    {
      "anonymous": false,
      "inputs": [
        {
          "indexed": true,
          "internalType": "address",
          "name": "validator",
          "type": "address"
        }
      ],
      "name": "ValidatorUnRegistered",
      "type": "event"
    },
    {
      "anonymous": false,
      "inputs": [
        {
          "indexed": true,
          "internalType": "address[]",
          "name": "validators",
          "type": "address[]"
        }
      ],
      "name": "ValidatorsInitialized",
      "type": "event"
    },
    {
      "inputs": [
        {
          "internalType": "address",
          "name": "_validator",
          "type": "address"
        }
      ],
      "name": "hasAccess",
      "outputs": [
        {
          "internalType": "bool",
          "name": "",
          "type": "bool"
        }
      ],
      "stateMutability": "view",
      "type": "function"
    },
    {
      "inputs": [
        {
          "internalType": "address",
          "name": "owner",
          "type": "address"
        }
      ],
      "name": "nonces",
      "outputs": [
        {
          "internalType": "uint256",
          "name": "",
          "type": "uint256"
        }
      ],
      "stateMutability": "view",
      "type": "function"
    },
    {
      "inputs": [],
      "name": "owner",
      "outputs": [
        {
          "internalType": "address",
          "name": "",
          "type": "address"
        }
      ],
      "stateMutability": "view",
      "type": "function"
    },
    {
      "inputs": [
        {
          "internalType": "address",
          "name": "_validator",
          "type": "address"
        }
      ],
      "name": "registerValidator",
      "outputs": [],
      "stateMutability": "nonpayable",
      "type": "function"
    },
    {
      "inputs": [],
      "name": "renounceOwnership",
      "outputs": [],
      "stateMutability": "nonpayable",
      "type": "function"
    },
    {
      "inputs": [
        {
          "internalType": "address",
          "name": "newOwner",
          "type": "address"
        }
      ],
      "name": "transferOwnership",
      "outputs": [],
      "stateMutability": "nonpayable",
      "type": "function"
    },
    {
      "inputs": [
        {
          "internalType": "address",
          "name": "_validator",
          "type": "address"
        }
      ],
      "name": "unRegisterValidator",
      "outputs": [],
      "stateMutability": "nonpayable",
      "type": "function"
    },
    {
      "inputs": [
        {
          "internalType": "address",
          "name": "_receiver",
          "type": "address"
        },
        {
          "internalType": "uint256",
          "name": "_amount",
          "type": "uint256"
        },
        {
          "internalType": "address payable",
          "name": "_token",
          "type": "address"
        },
        {
          "internalType": "bytes[]",
          "name": "_validatorsSignatures",
          "type": "bytes[]"
        }
      ],
      "name": "validateAllowanceSignatures",
      "outputs": [
        {
          "internalType": "address[]",
          "name": "_validators",
          "type": "address[]"
        }
      ],
      "stateMutability": "nonpayable",
      "type": "function"
    }
  ],
  "bytecode": "0x60806040523480156200001157600080fd5b5060405162002191380380620021918339818101604052810190620000379190620003bf565b620000576200004b6200023a60201b60201c565b6200024260201b60201c565b7f8b73c3c69bb8fe3d512ecc4cf759cc79239f7b179b0ffacaa9a75d522b39400f6040518060400160405280600a81526020017f476f7665726e616e636500000000000000000000000000000000000000000000815250805190602001206040518060400160405280600181526020017f31000000000000000000000000000000000000000000000000000000000000008152508051906020012046306040516020016200010a959493929190620004e5565b6040516020818303038152906040528051906020012060028190555060005b8151811015620001e25760016003600084848151811062000173577f4e487b7100000000000000000000000000000000000000000000000000000000600052603260045260246000fd5b602002602001015173ffffffffffffffffffffffffffffffffffffffff1673ffffffffffffffffffffffffffffffffffffffff16815260200190815260200160002060006101000a81548160ff0219169083151502179055508080620001d9906200064b565b91505062000129565b50600081511115620002335780604051620001fe9190620004cc565b60405180910390207f820f68b9d060f5d911b3243881ada086c3768ea90e97a10f7f5023d84b94d95260405160405180910390a25b5062000722565b600033905090565b60008060009054906101000a900473ffffffffffffffffffffffffffffffffffffffff169050816000806101000a81548173ffffffffffffffffffffffffffffffffffffffff021916908373ffffffffffffffffffffffffffffffffffffffff1602179055508173ffffffffffffffffffffffffffffffffffffffff168173ffffffffffffffffffffffffffffffffffffffff167f8be0079c531659141344cd1fd0a4f28419497f9722a3daafe3b4186f6b6457e060405160405180910390a35050565b60006200031d62000317846200056b565b62000542565b905080838252602082019050828560208602820111156200033d57600080fd5b60005b858110156200037157816200035688826200037b565b84526020840193506020830192505060018101905062000340565b5050509392505050565b6000815190506200038c8162000708565b92915050565b600082601f830112620003a457600080fd5b8151620003b684826020860162000306565b91505092915050565b600060208284031215620003d257600080fd5b600082015167ffffffffffffffff811115620003ed57600080fd5b620003fb8482850162000392565b91505092915050565b60006200041283836200042f565b60208301905092915050565b6200042981620005cd565b82525050565b6200043a81620005cd565b82525050565b60006200044d82620005aa565b620004598185620005c2565b935062000466836200059a565b8060005b838110156200049d57815162000481888262000404565b97506200048e83620005b5565b9250506001810190506200046a565b5085935050505092915050565b620004b581620005e1565b82525050565b620004c6816200060b565b82525050565b6000620004da828462000440565b915081905092915050565b600060a082019050620004fc6000830188620004aa565b6200050b6020830187620004aa565b6200051a6040830186620004aa565b620005296060830185620004bb565b6200053860808301846200041e565b9695505050505050565b60006200054e62000561565b90506200055c828262000615565b919050565b6000604051905090565b600067ffffffffffffffff821115620005895762000588620006c8565b5b602082029050602081019050919050565b6000819050602082019050919050565b600081519050919050565b6000602082019050919050565b600081905092915050565b6000620005da82620005eb565b9050919050565b6000819050919050565b600073ffffffffffffffffffffffffffffffffffffffff82169050919050565b6000819050919050565b6200062082620006f7565b810181811067ffffffffffffffff82111715620006425762000641620006c8565b5b80604052505050565b600062000658826200060b565b91507fffffffffffffffffffffffffffffffffffffffffffffffffffffffffffffffff8214156200068e576200068d62000699565b5b600182019050919050565b7f4e487b7100000000000000000000000000000000000000000000000000000000600052601160045260246000fd5b7f4e487b7100000000000000000000000000000000000000000000000000000000600052604160045260246000fd5b6000601f19601f8301169050919050565b6200071381620005cd565b81146200071f57600080fd5b50565b611a5f80620007326000396000f3fe608060405234801561001057600080fd5b50600436106100885760003560e01c80638da5cb5b1161005b5780638da5cb5b1461011357806395a078e8146101315780639fca516914610161578063f2fde38b1461017d57610088565b80632d763f5a1461008d578063715018a6146100a95780637ecebe00146100b3578063856fe16f146100e3575b600080fd5b6100a760048036038101906100a291906110b6565b610199565b005b6100b16102b3565b005b6100cd60048036038101906100c891906110b6565b61033b565b6040516100da919061156f565b60405180910390f35b6100fd60048036038101906100f891906110df565b61038b565b60405161010a91906113ba565b60405180910390f35b61011b61057e565b604051610128919061139f565b60405180910390f35b61014b600480360381019061014691906110b6565b6105a7565b60405161015891906113dc565b60405180910390f35b61017b600480360381019061017691906110b6565b6105fd565b005b610197600480360381019061019291906110b6565b610717565b005b6101a161080f565b73ffffffffffffffffffffffffffffffffffffffff166101bf61057e565b73ffffffffffffffffffffffffffffffffffffffff1614610215576040517f08c379a000000000000000000000000000000000000000000000000000000000815260040161020c9061154f565b60405180910390fd5b6000600360008373ffffffffffffffffffffffffffffffffffffffff1673ffffffffffffffffffffffffffffffffffffffff16815260200190815260200160002060006101000a81548160ff0219169083151502179055508073ffffffffffffffffffffffffffffffffffffffff167f05abd4719d2e9b1e5b0f772b7a3b26c9bc48ebaf9a66945092fe09602619aa6b60405160405180910390a250565b6102bb61080f565b73ffffffffffffffffffffffffffffffffffffffff166102d961057e565b73ffffffffffffffffffffffffffffffffffffffff161461032f576040517f08c379a00000000000000000000000000000000000000000000000000000000081526004016103269061154f565b60405180910390fd5b6103396000610817565b565b6000610384600160008473ffffffffffffffffffffffffffffffffffffffff1673ffffffffffffffffffffffffffffffffffffffff1681526020019081526020016000206108db565b9050919050565b6060815167ffffffffffffffff8111156103ce577f4e487b7100000000000000000000000000000000000000000000000000000000600052604160045260246000fd5b6040519080825280602002602001820160405280156103fc5781602001602082028036833780820191505090505b50905060005b8251811015610575576000838281518110610446577f4e487b7100000000000000000000000000000000000000000000000000000000600052603260045260246000fd5b60200260200101519050600061045e888888856108e9565b9050600360008273ffffffffffffffffffffffffffffffffffffffff1673ffffffffffffffffffffffffffffffffffffffff16815260200190815260200160002060009054906101000a900460ff166104ec576040517f08c379a00000000000000000000000000000000000000000000000000000000081526004016104e3906114ef565b60405180910390fd5b80848481518110610526577f4e487b7100000000000000000000000000000000000000000000000000000000600052603260045260246000fd5b602002602001019073ffffffffffffffffffffffffffffffffffffffff16908173ffffffffffffffffffffffffffffffffffffffff16815250505050808061056d90611768565b915050610402565b50949350505050565b60008060009054906101000a900473ffffffffffffffffffffffffffffffffffffffff16905090565b6000600360008373ffffffffffffffffffffffffffffffffffffffff1673ffffffffffffffffffffffffffffffffffffffff16815260200190815260200160002060009054906101000a900460ff169050919050565b61060561080f565b73ffffffffffffffffffffffffffffffffffffffff1661062361057e565b73ffffffffffffffffffffffffffffffffffffffff1614610679576040517f08c379a00000000000000000000000000000000000000000000000000000000081526004016106709061154f565b60405180910390fd5b6001600360008373ffffffffffffffffffffffffffffffffffffffff1673ffffffffffffffffffffffffffffffffffffffff16815260200190815260200160002060006101000a81548160ff0219169083151502179055508073ffffffffffffffffffffffffffffffffffffffff167fd09501348473474a20c772c79c653e1fd7e8b437e418fe235d277d2c8885325160405160405180910390a250565b61071f61080f565b73ffffffffffffffffffffffffffffffffffffffff1661073d61057e565b73ffffffffffffffffffffffffffffffffffffffff1614610793576040517f08c379a000000000000000000000000000000000000000000000000000000000815260040161078a9061154f565b60405180910390fd5b600073ffffffffffffffffffffffffffffffffffffffff168173ffffffffffffffffffffffffffffffffffffffff161415610803576040517f08c379a00000000000000000000000000000000000000000000000000000000081526004016107fa906114cf565b60405180910390fd5b61080c81610817565b50565b600033905090565b60008060009054906101000a900473ffffffffffffffffffffffffffffffffffffffff169050816000806101000a81548173ffffffffffffffffffffffffffffffffffffffff021916908373ffffffffffffffffffffffffffffffffffffffff1602179055508173ffffffffffffffffffffffffffffffffffffffff168173ffffffffffffffffffffffffffffffffffffffff167f8be0079c531659141344cd1fd0a4f28419497f9722a3daafe3b4186f6b6457e060405160405180910390a35050565b600081600001549050919050565b6000806002547fd6b2ab5ded2d8c26ac9353dec41220d4e7abf3a3253d57b02c5f6d5ec3480d3887878761091c8b610984565b6040516020016109309594939291906113f7565b60405160208183030381529060405280519060200120604051602001610957929190611368565b60405160208183030381529060405280519060200120905061097981846109e2565b915050949350505050565b600080600160008473ffffffffffffffffffffffffffffffffffffffff1673ffffffffffffffffffffffffffffffffffffffff16815260200190815260200160002090506109d1816108db565b91506109dc81610a09565b50919050565b60008060006109f18585610a1f565b915091506109fe81610aa2565b819250505092915050565b6001816000016000828254019250508190555050565b600080604183511415610a615760008060006020860151925060408601519150606086015160001a9050610a5587828585610df3565b94509450505050610a9b565b604083511415610a92576000806020850151915060408501519050610a87868383610f00565b935093505050610a9b565b60006002915091505b9250929050565b60006004811115610adc577f4e487b7100000000000000000000000000000000000000000000000000000000600052602160045260246000fd5b816004811115610b15577f4e487b7100000000000000000000000000000000000000000000000000000000600052602160045260246000fd5b1415610b2057610df0565b60016004811115610b5a577f4e487b7100000000000000000000000000000000000000000000000000000000600052602160045260246000fd5b816004811115610b93577f4e487b7100000000000000000000000000000000000000000000000000000000600052602160045260246000fd5b1415610bd4576040517f08c379a0000000000000000000000000000000000000000000000000000000008152600401610bcb9061148f565b60405180910390fd5b60026004811115610c0e577f4e487b7100000000000000000000000000000000000000000000000000000000600052602160045260246000fd5b816004811115610c47577f4e487b7100000000000000000000000000000000000000000000000000000000600052602160045260246000fd5b1415610c88576040517f08c379a0000000000000000000000000000000000000000000000000000000008152600401610c7f906114af565b60405180910390fd5b60036004811115610cc2577f4e487b7100000000000000000000000000000000000000000000000000000000600052602160045260246000fd5b816004811115610cfb577f4e487b7100000000000000000000000000000000000000000000000000000000600052602160045260246000fd5b1415610d3c576040517f08c379a0000000000000000000000000000000000000000000000000000000008152600401610d339061150f565b60405180910390fd5b600480811115610d75577f4e487b7100000000000000000000000000000000000000000000000000000000600052602160045260246000fd5b816004811115610dae577f4e487b7100000000000000000000000000000000000000000000000000000000600052602160045260246000fd5b1415610def576040517f08c379a0000000000000000000000000000000000000000000000000000000008152600401610de69061152f565b60405180910390fd5b5b50565b6000807f7fffffffffffffffffffffffffffffff5d576e7357a4501ddfe92f46681b20a08360001c1115610e2e576000600391509150610ef7565b601b8560ff1614158015610e465750601c8560ff1614155b15610e58576000600491509150610ef7565b600060018787878760405160008152602001604052604051610e7d949392919061144a565b6020604051602081039080840390855afa158015610e9f573d6000803e3d6000fd5b505050602060405103519050600073ffffffffffffffffffffffffffffffffffffffff168173ffffffffffffffffffffffffffffffffffffffff161415610eee57600060019250925050610ef7565b80600092509250505b94509492505050565b60008060007f7fffffffffffffffffffffffffffffffffffffffffffffffffffffffffffffff60001b841690506000601b60ff8660001c901c610f439190611661565b9050610f5187828885610df3565b935093505050935093915050565b6000610f72610f6d846115af565b61158a565b90508083825260208201905082856020860282011115610f9157600080fd5b60005b85811015610fdb57813567ffffffffffffffff811115610fb357600080fd5b808601610fc08982611077565b85526020850194506020840193505050600181019050610f94565b5050509392505050565b6000610ff8610ff3846115db565b61158a565b90508281526020810184848401111561101057600080fd5b61101b848285611728565b509392505050565b600081359050611032816119e4565b92915050565b600081359050611047816119fb565b92915050565b600082601f83011261105e57600080fd5b813561106e848260208601610f5f565b91505092915050565b600082601f83011261108857600080fd5b8135611098848260208601610fe5565b91505092915050565b6000813590506110b081611a12565b92915050565b6000602082840312156110c857600080fd5b60006110d684828501611023565b91505092915050565b600080600080608085870312156110f557600080fd5b600061110387828801611023565b9450506020611114878288016110a1565b935050604061112587828801611038565b925050606085013567ffffffffffffffff81111561114257600080fd5b61114e8782880161104d565b91505092959194509250565b60006111668383611181565b60208301905092915050565b61117b816116c9565b82525050565b61118a816116b7565b82525050565b611199816116b7565b82525050565b60006111aa8261161c565b6111b48185611634565b93506111bf8361160c565b8060005b838110156111f05781516111d7888261115a565b97506111e283611627565b9250506001810190506111c3565b5085935050505092915050565b611206816116db565b82525050565b611215816116e7565b82525050565b61122c611227826116e7565b6117b1565b82525050565b600061123f601883611645565b915061124a8261182a565b602082019050919050565b6000611262601f83611645565b915061126d82611853565b602082019050919050565b6000611285602683611645565b91506112908261187c565b604082019050919050565b60006112a8602083611645565b91506112b3826118cb565b602082019050919050565b60006112cb600283611656565b91506112d6826118f4565b600282019050919050565b60006112ee602283611645565b91506112f98261191d565b604082019050919050565b6000611311602283611645565b915061131c8261196c565b604082019050919050565b6000611334602083611645565b915061133f826119bb565b602082019050919050565b61135381611711565b82525050565b6113628161171b565b82525050565b6000611373826112be565b915061137f828561121b565b60208201915061138f828461121b565b6020820191508190509392505050565b60006020820190506113b46000830184611190565b92915050565b600060208201905081810360008301526113d4818461119f565b905092915050565b60006020820190506113f160008301846111fd565b92915050565b600060a08201905061140c600083018861120c565b6114196020830187611190565b611426604083018661134a565b6114336060830185611172565b611440608083018461134a565b9695505050505050565b600060808201905061145f600083018761120c565b61146c6020830186611359565b611479604083018561120c565b611486606083018461120c565b95945050505050565b600060208201905081810360008301526114a881611232565b9050919050565b600060208201905081810360008301526114c881611255565b9050919050565b600060208201905081810360008301526114e881611278565b9050919050565b600060208201905081810360008301526115088161129b565b9050919050565b60006020820190508181036000830152611528816112e1565b9050919050565b6000602082019050818103600083015261154881611304565b9050919050565b6000602082019050818103600083015261156881611327565b9050919050565b6000602082019050611584600083018461134a565b92915050565b60006115946115a5565b90506115a08282611737565b919050565b6000604051905090565b600067ffffffffffffffff8211156115ca576115c96117ea565b5b602082029050602081019050919050565b600067ffffffffffffffff8211156115f6576115f56117ea565b5b6115ff82611819565b9050602081019050919050565b6000819050602082019050919050565b600081519050919050565b6000602082019050919050565b600082825260208201905092915050565b600082825260208201905092915050565b600081905092915050565b600061166c82611711565b915061167783611711565b9250827fffffffffffffffffffffffffffffffffffffffffffffffffffffffffffffffff038211156116ac576116ab6117bb565b5b828201905092915050565b60006116c2826116f1565b9050919050565b60006116d4826116f1565b9050919050565b60008115159050919050565b6000819050919050565b600073ffffffffffffffffffffffffffffffffffffffff82169050919050565b6000819050919050565b600060ff82169050919050565b82818337600083830152505050565b61174082611819565b810181811067ffffffffffffffff8211171561175f5761175e6117ea565b5b80604052505050565b600061177382611711565b91507fffffffffffffffffffffffffffffffffffffffffffffffffffffffffffffffff8214156117a6576117a56117bb565b5b600182019050919050565b6000819050919050565b7f4e487b7100000000000000000000000000000000000000000000000000000000600052601160045260246000fd5b7f4e487b7100000000000000000000000000000000000000000000000000000000600052604160045260246000fd5b6000601f19601f8301169050919050565b7f45434453413a20696e76616c6964207369676e61747572650000000000000000600082015250565b7f45434453413a20696e76616c6964207369676e6174757265206c656e67746800600082015250565b7f4f776e61626c653a206e6577206f776e657220697320746865207a65726f206160008201527f6464726573730000000000000000000000000000000000000000000000000000602082015250565b7f556e7265636f676e697a65642076616c696461746f72207369676e6174757265600082015250565b7f1901000000000000000000000000000000000000000000000000000000000000600082015250565b7f45434453413a20696e76616c6964207369676e6174757265202773272076616c60008201527f7565000000000000000000000000000000000000000000000000000000000000602082015250565b7f45434453413a20696e76616c6964207369676e6174757265202776272076616c60008201527f7565000000000000000000000000000000000000000000000000000000000000602082015250565b7f4f776e61626c653a2063616c6c6572206973206e6f7420746865206f776e6572600082015250565b6119ed816116b7565b81146119f857600080fd5b50565b611a04816116c9565b8114611a0f57600080fd5b50565b611a1b81611711565b8114611a2657600080fd5b5056fea26469706673582212202088518bad9ff0ef8b44f4e1bef4d4d7431074ce00911ded5ef650b555374ab364736f6c63430008040033",
  "linkReferences": {},
  "deployedLinkReferences": {}
}