{
  "_format": "hh-sol-artifact-1",
  "contractName": "Registry",
  "sourceName": "contracts/Registry.sol",
  "abi": [
    {
      "inputs": [],
      "stateMutability": "nonpayable",
      "type": "constructor"
    },
    {
      "anonymous": false,
      "inputs": [
        {
          "indexed": true,
          "internalType": "address",
          "name": "previousOwner",
          "type": "address"
        },
        {
          "indexed": true,
          "internalType": "address",
          "name": "newOwner",
          "type": "address"
        }
      ],
      "name": "OwnershipTransferred",
      "type": "event"
    },
    {
      "anonymous": false,
      "inputs": [
        {
          "indexed": true,
          "internalType": "address",
          "name": "sourceToken",
          "type": "address"
        },
        {
          "indexed": true,
          "internalType": "address",
          "name": "targetToken",
          "type": "address"
        },
        {
          "indexed": false,
          "internalType": "uint16",
          "name": "sourceChainId",
          "type": "uint16"
        },
        {
          "indexed": false,
          "internalType": "uint16",
          "name": "targetChainId",
          "type": "uint16"
        }
      ],
      "name": "TokenConnectionRegistered",
      "type": "event"
    },
    {
      "inputs": [
        {
          "internalType": "address",
          "name": "_targetToken",
          "type": "address"
        },
        {
          "internalType": "uint16",
          "name": "_sourceChainId",
          "type": "uint16"
        }
      ],
      "name": "lookupSourceTokenAddress",
      "outputs": [
        {
          "internalType": "address",
          "name": "",
          "type": "address"
        }
      ],
      "stateMutability": "view",
      "type": "function"
    },
    {
      "inputs": [
        {
          "internalType": "address",
          "name": "_sourceToken",
          "type": "address"
        },
        {
          "internalType": "uint16",
          "name": "_targetChainId",
          "type": "uint16"
        }
      ],
      "name": "lookupTargetTokenAddress",
      "outputs": [
        {
          "internalType": "address",
          "name": "",
          "type": "address"
        }
      ],
      "stateMutability": "view",
      "type": "function"
    },
    {
      "inputs": [],
      "name": "owner",
      "outputs": [
        {
          "internalType": "address",
          "name": "",
          "type": "address"
        }
      ],
      "stateMutability": "view",
      "type": "function"
    },
    {
      "inputs": [
        {
          "internalType": "address",
          "name": "_sourceToken",
          "type": "address"
        },
        {
          "internalType": "uint16",
          "name": "_targetChainId",
          "type": "uint16"
        },
        {
          "internalType": "address",
          "name": "_targetToken",
          "type": "address"
        }
      ],
      "name": "registerTargetTokenAddress",
      "outputs": [],
      "stateMutability": "nonpayable",
      "type": "function"
    },
    {
      "inputs": [],
      "name": "renounceOwnership",
      "outputs": [],
      "stateMutability": "nonpayable",
      "type": "function"
    },
    {
      "inputs": [
        {
          "internalType": "address",
          "name": "newOwner",
          "type": "address"
        }
      ],
      "name": "transferOwnership",
      "outputs": [],
      "stateMutability": "nonpayable",
      "type": "function"
    }
  ],
  "bytecode": "0x608060405234801561001057600080fd5b5061002d6100226100e560201b60201c565b6100ed60201b60201c565b61005f7f447147825a496c127bfb56f27987f6f5f6d4764904f9fdba1595d1b7fcdc21f960001b6101b160201b60201c565b6100917f9abbff26d0f9c590d43706b6f3e4113fa7e52b19eb59a60bf752b5cc75f3c28b60001b6101b160201b60201c565b6100c37fb8b88ac8475cce5ff0f1bcd83a3d71ae0b900530c243f198da33093a0e419bbf60001b6101b160201b60201c565b46600060146101000a81548161ffff021916908361ffff1602179055506101b4565b600033905090565b60008060009054906101000a900473ffffffffffffffffffffffffffffffffffffffff169050816000806101000a81548173ffffffffffffffffffffffffffffffffffffffff021916908373ffffffffffffffffffffffffffffffffffffffff1602179055508173ffffffffffffffffffffffffffffffffffffffff168173ffffffffffffffffffffffffffffffffffffffff167f8be0079c531659141344cd1fd0a4f28419497f9722a3daafe3b4186f6b6457e060405160405180910390a35050565b50565b610f21806101c36000396000f3fe608060405234801561001057600080fd5b50600436106100625760003560e01c80635e28e87b1461006757806360f95f9714610097578063715018a6146100b35780638da5cb5b146100bd578063b99ba4a4146100db578063f2fde38b1461010b575b600080fd5b610081600480360381019061007c9190610ba9565b610127565b60405161008e9190610cde565b60405180910390f35b6100b160048036038101906100ac9190610be5565b61022e565b005b6100bb6107d7565b005b6100c561085f565b6040516100d29190610cde565b60405180910390f35b6100f560048036038101906100f09190610ba9565b610888565b6040516101029190610cde565b60405180910390f35b61012560048036038101906101209190610b80565b61098f565b005b60006101557fa7114d813fbda37ccc20b9e73fc8253cc35fd1226c8e0eb4a531257d8e3fddde60001b610a87565b6101817f7913791b9ea732862bce2c3c6e11097166ed82d44775e840ef27f89406ca74ab60001b610a87565b6101ad7f4f314c7d0c1bf8306df335661eb2a31f0b104273dd4df33da0ab757eeff3133160001b610a87565b600260008473ffffffffffffffffffffffffffffffffffffffff1673ffffffffffffffffffffffffffffffffffffffff16815260200190815260200160002060008361ffff1661ffff16815260200190815260200160002060009054906101000a900473ffffffffffffffffffffffffffffffffffffffff16905092915050565b610236610a8a565b73ffffffffffffffffffffffffffffffffffffffff1661025461085f565b73ffffffffffffffffffffffffffffffffffffffff16146102aa576040517f08c379a00000000000000000000000000000000000000000000000000000000081526004016102a190610d39565b60405180910390fd5b6102d67fb09302a56a6c08bdd04521b374c49cfd58d2e4243273e52d7e921d5f286fd38b60001b610a87565b6103027fed399f51688dcf84127454d6dd35c0bebc2c905a77fc7c8c13978b4e381ae9e560001b610a87565b61032e7fa92255ab9450a2820d76f153ba632e529722e3fcb85bbda913958a8acc92fb5560001b610a87565b61035a7f0d9ade39b013d50837f543d26779b4f9731a5a642b97a07de7d699ba1adbad3160001b610a87565b600073ffffffffffffffffffffffffffffffffffffffff168373ffffffffffffffffffffffffffffffffffffffff1614156103ca576040517f08c379a00000000000000000000000000000000000000000000000000000000081526004016103c190610d59565b60405180910390fd5b6103f67f935c0008caca91ecc2de1d01ff1aee5a6f4006bddbe999ce2ecddd88d13e0d4c60001b610a87565b6104227f9a9f021a98bbd7c845752237d89a5b1771ac53a6a4ebc36ab09f4cb9dd7fbda960001b610a87565b61044e7f1bae8b1751568692278737832ebaae05c6a7041e492cf577685741afd07cfe0b60001b610a87565b61047a7f9fc9579c103d23056ba9a72b9cbfc614fc821a2470c7e1aeca1d77aff131a49560001b610a87565b600073ffffffffffffffffffffffffffffffffffffffff168173ffffffffffffffffffffffffffffffffffffffff1614156104ea576040517f08c379a00000000000000000000000000000000000000000000000000000000081526004016104e190610d19565b60405180910390fd5b6105167f4578302bc1b454acc3fe730d2ff2880c10ee98ef01619c0cdfb9152521b7abf460001b610a87565b6105427f4a7cf9ce942a09a471ba30bf8c97e1a50a478eaface5bc84c63aaf3cc8c6f4dc60001b610a87565b61056e7f385d4005f77900215aa05304c401c6207cf248278a18362f49f6e67a76d531be60001b610a87565b80600160008573ffffffffffffffffffffffffffffffffffffffff1673ffffffffffffffffffffffffffffffffffffffff16815260200190815260200160002060008461ffff1661ffff16815260200190815260200160002060006101000a81548173ffffffffffffffffffffffffffffffffffffffff021916908373ffffffffffffffffffffffffffffffffffffffff1602179055506106317f0d6e034b4e0cdca21f5250c5341904087fcc123839bedb29b4b9acb7fa56a62660001b610a87565b61065d7fb9d640cf501cfb5214f8ee2db430c00125f2930566e399fb15a94aa76758ca1560001b610a87565b82600260008373ffffffffffffffffffffffffffffffffffffffff1673ffffffffffffffffffffffffffffffffffffffff16815260200190815260200160002060008060149054906101000a900461ffff1661ffff1661ffff16815260200190815260200160002060006101000a81548173ffffffffffffffffffffffffffffffffffffffff021916908373ffffffffffffffffffffffffffffffffffffffff16021790555061072f7f03dbc3d969bccdd8c5e5342279964e338fde45a899a6070220c54ed48d5ddbf560001b610a87565b61075b7f60b93adafb4b259930b2696a62c838f9760041ec49988f78a33e44b2043785bb60001b610a87565b8073ffffffffffffffffffffffffffffffffffffffff168373ffffffffffffffffffffffffffffffffffffffff167fdd8e0663fc9c0f5c166eee607f13e09d94a3d693cf782f112fe5af4d48c23860600060149054906101000a900461ffff16856040516107ca929190610d79565b60405180910390a3505050565b6107df610a8a565b73ffffffffffffffffffffffffffffffffffffffff166107fd61085f565b73ffffffffffffffffffffffffffffffffffffffff1614610853576040517f08c379a000000000000000000000000000000000000000000000000000000000815260040161084a90610d39565b60405180910390fd5b61085d6000610a92565b565b60008060009054906101000a900473ffffffffffffffffffffffffffffffffffffffff16905090565b60006108b67fd30b3489da6081c882f408b15270a128d667973d157391f6d63ef73b3ac76cab60001b610a87565b6108e27f410b40c711ad26551333140664b8b9c0ee704aa7bfc0f9e9824d60243ede2b0960001b610a87565b61090e7f0fcb871e900822d63ad98b260d98ba6ea3fc6288960c777e4611ebd42970929560001b610a87565b600160008473ffffffffffffffffffffffffffffffffffffffff1673ffffffffffffffffffffffffffffffffffffffff16815260200190815260200160002060008361ffff1661ffff16815260200190815260200160002060009054906101000a900473ffffffffffffffffffffffffffffffffffffffff16905092915050565b610997610a8a565b73ffffffffffffffffffffffffffffffffffffffff166109b561085f565b73ffffffffffffffffffffffffffffffffffffffff1614610a0b576040517f08c379a0000000000000000000000000000000000000000000000000000000008152600401610a0290610d39565b60405180910390fd5b600073ffffffffffffffffffffffffffffffffffffffff168173ffffffffffffffffffffffffffffffffffffffff161415610a7b576040517f08c379a0000000000000000000000000000000000000000000000000000000008152600401610a7290610cf9565b60405180910390fd5b610a8481610a92565b50565b50565b600033905090565b60008060009054906101000a900473ffffffffffffffffffffffffffffffffffffffff169050816000806101000a81548173ffffffffffffffffffffffffffffffffffffffff021916908373ffffffffffffffffffffffffffffffffffffffff1602179055508173ffffffffffffffffffffffffffffffffffffffff168173ffffffffffffffffffffffffffffffffffffffff167f8be0079c531659141344cd1fd0a4f28419497f9722a3daafe3b4186f6b6457e060405160405180910390a35050565b600081359050610b6581610ebd565b92915050565b600081359050610b7a81610ed4565b92915050565b600060208284031215610b9257600080fd5b6000610ba084828501610b56565b91505092915050565b60008060408385031215610bbc57600080fd5b6000610bca85828601610b56565b9250506020610bdb85828601610b6b565b9150509250929050565b600080600060608486031215610bfa57600080fd5b6000610c0886828701610b56565b9350506020610c1986828701610b6b565b9250506040610c2a86828701610b56565b9150509250925092565b610c3d81610db3565b82525050565b6000610c50602683610da2565b9150610c5b82610df3565b604082019050919050565b6000610c73601683610da2565b9150610c7e82610e42565b602082019050919050565b6000610c96602083610da2565b9150610ca182610e6b565b602082019050919050565b6000610cb9601683610da2565b9150610cc482610e94565b602082019050919050565b610cd881610dc5565b82525050565b6000602082019050610cf36000830184610c34565b92915050565b60006020820190508181036000830152610d1281610c43565b9050919050565b60006020820190508181036000830152610d3281610c66565b9050919050565b60006020820190508181036000830152610d5281610c89565b9050919050565b60006020820190508181036000830152610d7281610cac565b9050919050565b6000604082019050610d8e6000830185610ccf565b610d9b6020830184610ccf565b9392505050565b600082825260208201905092915050565b6000610dbe82610dd3565b9050919050565b600061ffff82169050919050565b600073ffffffffffffffffffffffffffffffffffffffff82169050919050565b7f4f776e61626c653a206e6577206f776e657220697320746865207a65726f206160008201527f6464726573730000000000000000000000000000000000000000000000000000602082015250565b7f496e76616c696420746172676574206164647265737300000000000000000000600082015250565b7f4f776e61626c653a2063616c6c6572206973206e6f7420746865206f776e6572600082015250565b7f496e76616c696420736f75726365206164647265737300000000000000000000600082015250565b610ec681610db3565b8114610ed157600080fd5b50565b610edd81610dc5565b8114610ee857600080fd5b5056fea2646970667358221220112d64124d01c33ae55de62e6dfb3097c55736bbe0fb74622e64f68f0952319e64736f6c63430008040033",
  "linkReferences": {},
  "deployedLinkReferences": {}
}