{
  "_format": "hh-sol-artifact-1",
  "contractName": "WrappedTokenFactory",
  "sourceName": "contracts/WrappedTokenFactory.sol",
  "abi": [
    {
      "anonymous": false,
      "inputs": [
        {
          "indexed": true,
          "internalType": "address",
          "name": "previousOwner",
          "type": "address"
        },
        {
          "indexed": true,
          "internalType": "address",
          "name": "newOwner",
          "type": "address"
        }
      ],
      "name": "OwnershipTransferred",
      "type": "event"
    },
    {
      "anonymous": false,
      "inputs": [
        {
          "indexed": true,
          "internalType": "address",
          "name": "newTokenAddress",
          "type": "address"
        },
        {
          "indexed": false,
          "internalType": "string",
          "name": "name",
          "type": "string"
        },
        {
          "indexed": false,
          "internalType": "string",
          "name": "symbol",
          "type": "string"
        }
      ],
      "name": "TokenCreated",
      "type": "event"
    },
    {
      "inputs": [
        {
          "internalType": "string",
          "name": "_name",
          "type": "string"
        },
        {
          "internalType": "string",
          "name": "_symbol",
          "type": "string"
        }
      ],
      "name": "createToken",
      "outputs": [],
      "stateMutability": "nonpayable",
      "type": "function"
    },
    {
      "inputs": [
        {
          "internalType": "address",
          "name": "_token",
          "type": "address"
        }
      ],
      "name": "lookupTokenContract",
      "outputs": [
        {
          "internalType": "contract ERC20Token",
          "name": "",
          "type": "address"
        }
      ],
      "stateMutability": "view",
      "type": "function"
    },
    {
      "inputs": [],
      "name": "owner",
      "outputs": [
        {
          "internalType": "address",
          "name": "",
          "type": "address"
        }
      ],
      "stateMutability": "view",
      "type": "function"
    },
    {
      "inputs": [],
      "name": "renounceOwnership",
      "outputs": [],
      "stateMutability": "nonpayable",
      "type": "function"
    },
    {
      "inputs": [
        {
          "internalType": "address",
          "name": "newOwner",
          "type": "address"
        }
      ],
      "name": "transferOwnership",
      "outputs": [],
      "stateMutability": "nonpayable",
      "type": "function"
    }
  ],
  "bytecode": "0x608060405234801561001057600080fd5b5061002d61002261003260201b60201c565b61003a60201b60201c565b6100fe565b600033905090565b60008060009054906101000a900473ffffffffffffffffffffffffffffffffffffffff169050816000806101000a81548173ffffffffffffffffffffffffffffffffffffffff021916908373ffffffffffffffffffffffffffffffffffffffff1602179055508173ffffffffffffffffffffffffffffffffffffffff168173ffffffffffffffffffffffffffffffffffffffff167f8be0079c531659141344cd1fd0a4f28419497f9722a3daafe3b4186f6b6457e060405160405180910390a35050565b613f8e8061010d6000396000f3fe60806040523480156200001157600080fd5b50600436106200005e5760003560e01c80631050791c14620000635780632f2f2d561462000099578063715018a614620000b95780638da5cb5b14620000c5578063f2fde38b14620000e7575b600080fd5b6200008160048036038101906200007b91906200062a565b62000107565b60405162000090919062000797565b60405180910390f35b620000b76004803603810190620000b1919062000656565b62000170565b005b620000c362000309565b005b620000cf6200039a565b604051620000de91906200077a565b60405180910390f35b620001056004803603810190620000ff91906200062a565b620003c3565b005b6000600160008373ffffffffffffffffffffffffffffffffffffffff1673ffffffffffffffffffffffffffffffffffffffff16815260200190815260200160002060009054906101000a900473ffffffffffffffffffffffffffffffffffffffff169050919050565b6200017a620004c7565b73ffffffffffffffffffffffffffffffffffffffff166200019a6200039a565b73ffffffffffffffffffffffffffffffffffffffff1614620001f3576040517f08c379a0000000000000000000000000000000000000000000000000000000008152600401620001ea906200085c565b60405180910390fd5b6000828233604051620002069062000593565b6200021493929190620007ef565b604051809103906000f08015801562000231573d6000803e3d6000fd5b50905080600160008373ffffffffffffffffffffffffffffffffffffffff1673ffffffffffffffffffffffffffffffffffffffff16815260200190815260200160002060006101000a81548173ffffffffffffffffffffffffffffffffffffffff021916908373ffffffffffffffffffffffffffffffffffffffff1602179055508073ffffffffffffffffffffffffffffffffffffffff167fffc04f682c7b287e4b552dacd4b833d7c33dc0549cd6da84388408e4830c05628484604051620002fc929190620007b4565b60405180910390a2505050565b62000313620004c7565b73ffffffffffffffffffffffffffffffffffffffff16620003336200039a565b73ffffffffffffffffffffffffffffffffffffffff16146200038c576040517f08c379a000000000000000000000000000000000000000000000000000000000815260040162000383906200085c565b60405180910390fd5b620003986000620004cf565b565b60008060009054906101000a900473ffffffffffffffffffffffffffffffffffffffff16905090565b620003cd620004c7565b73ffffffffffffffffffffffffffffffffffffffff16620003ed6200039a565b73ffffffffffffffffffffffffffffffffffffffff161462000446576040517f08c379a00000000000000000000000000000000000000000000000000000000081526004016200043d906200085c565b60405180910390fd5b600073ffffffffffffffffffffffffffffffffffffffff168173ffffffffffffffffffffffffffffffffffffffff161415620004b9576040517f08c379a0000000000000000000000000000000000000000000000000000000008152600401620004b0906200083a565b60405180910390fd5b620004c481620004cf565b50565b600033905090565b60008060009054906101000a900473ffffffffffffffffffffffffffffffffffffffff169050816000806101000a81548173ffffffffffffffffffffffffffffffffffffffff021916908373ffffffffffffffffffffffffffffffffffffffff1602179055508173ffffffffffffffffffffffffffffffffffffffff168173ffffffffffffffffffffffffffffffffffffffff167f8be0079c531659141344cd1fd0a4f28419497f9722a3daafe3b4186f6b6457e060405160405180910390a35050565b6134b68062000aa383390190565b6000620005b8620005b284620008a7565b6200087e565b905082815260208101848484011115620005d157600080fd5b620005de84828562000955565b509392505050565b600081359050620005f78162000a88565b92915050565b600082601f8301126200060f57600080fd5b813562000621848260208601620005a1565b91505092915050565b6000602082840312156200063d57600080fd5b60006200064d84828501620005e6565b91505092915050565b600080604083850312156200066a57600080fd5b600083013567ffffffffffffffff8111156200068557600080fd5b6200069385828601620005fd565b925050602083013567ffffffffffffffff811115620006b157600080fd5b620006bf85828601620005fd565b9150509250929050565b620006d481620008f9565b82525050565b620006e5816200092d565b82525050565b6000620006f882620008dd565b620007048185620008e8565b93506200071681856020860162000964565b6200072181620009ff565b840191505092915050565b60006200073b602683620008e8565b9150620007488262000a10565b604082019050919050565b600062000762602083620008e8565b91506200076f8262000a5f565b602082019050919050565b6000602082019050620007916000830184620006c9565b92915050565b6000602082019050620007ae6000830184620006da565b92915050565b60006040820190508181036000830152620007d08185620006eb565b90508181036020830152620007e68184620006eb565b90509392505050565b600060608201905081810360008301526200080b8186620006eb565b90508181036020830152620008218185620006eb565b9050620008326040830184620006c9565b949350505050565b6000602082019050818103600083015262000855816200072c565b9050919050565b60006020820190508181036000830152620008778162000753565b9050919050565b60006200088a6200089d565b90506200089882826200099a565b919050565b6000604051905090565b600067ffffffffffffffff821115620008c557620008c4620009d0565b5b620008d082620009ff565b9050602081019050919050565b600081519050919050565b600082825260208201905092915050565b600062000906826200090d565b9050919050565b600073ffffffffffffffffffffffffffffffffffffffff82169050919050565b60006200093a8262000941565b9050919050565b60006200094e826200090d565b9050919050565b82818337600083830152505050565b60005b838110156200098457808201518184015260208101905062000967565b8381111562000994576000848401525b50505050565b620009a582620009ff565b810181811067ffffffffffffffff82111715620009c757620009c6620009d0565b5b80604052505050565b7f4e487b7100000000000000000000000000000000000000000000000000000000600052604160045260246000fd5b6000601f19601f8301169050919050565b7f4f776e61626c653a206e6577206f776e657220697320746865207a65726f206160008201527f6464726573730000000000000000000000000000000000000000000000000000602082015250565b7f4f776e61626c653a2063616c6c6572206973206e6f7420746865206f776e6572600082015250565b62000a9381620008f9565b811462000a9f57600080fd5b5056fe6101406040523480156200001257600080fd5b50604051620034b6380380620034b6833981810160405281019062000038919062000519565b82806040518060400160405280600181526020017f3100000000000000000000000000000000000000000000000000000000000000815250858581600390805190602001906200008a929190620003e0565b508060049080519060200190620000a3929190620003e0565b50505060008280519060200120905060008280519060200120905060007f8b73c3c69bb8fe3d512ecc4cf759cc79239f7b179b0ffacaa9a75d522b39400f90508260e081815250508161010081815250504660a081815250506200010f8184846200019660201b60201c565b608081815250503073ffffffffffffffffffffffffffffffffffffffff1660c08173ffffffffffffffffffffffffffffffffffffffff1660601b815250508061012081815250505050505050506200017c62000170620001d260201b60201c565b620001da60201b60201c565b6200018d81620002a060201b60201c565b5050506200091e565b60008383834630604051602001620001b395949392919062000622565b6040516020818303038152906040528051906020012090509392505050565b600033905090565b6000600760009054906101000a900473ffffffffffffffffffffffffffffffffffffffff16905081600760006101000a81548173ffffffffffffffffffffffffffffffffffffffff021916908373ffffffffffffffffffffffffffffffffffffffff1602179055508173ffffffffffffffffffffffffffffffffffffffff168173ffffffffffffffffffffffffffffffffffffffff167f8be0079c531659141344cd1fd0a4f28419497f9722a3daafe3b4186f6b6457e060405160405180910390a35050565b620002b0620001d260201b60201c565b73ffffffffffffffffffffffffffffffffffffffff16620002d6620003b660201b60201c565b73ffffffffffffffffffffffffffffffffffffffff16146200032f576040517f08c379a00000000000000000000000000000000000000000000000000000000081526004016200032690620006a1565b60405180910390fd5b600073ffffffffffffffffffffffffffffffffffffffff168173ffffffffffffffffffffffffffffffffffffffff161415620003a2576040517f08c379a000000000000000000000000000000000000000000000000000000000815260040162000399906200067f565b60405180910390fd5b620003b381620001da60201b60201c565b50565b6000600760009054906101000a900473ffffffffffffffffffffffffffffffffffffffff16905090565b828054620003ee90620007b1565b90600052602060002090601f0160209004810192826200041257600085556200045e565b82601f106200042d57805160ff19168380011785556200045e565b828001600101855582156200045e579182015b828111156200045d57825182559160200191906001019062000440565b5b5090506200046d919062000471565b5090565b5b808211156200048c57600081600090555060010162000472565b5090565b6000620004a7620004a184620006ec565b620006c3565b905082815260208101848484011115620004c057600080fd5b620004cd8482856200077b565b509392505050565b600081519050620004e68162000904565b92915050565b600082601f830112620004fe57600080fd5b81516200051084826020860162000490565b91505092915050565b6000806000606084860312156200052f57600080fd5b600084015167ffffffffffffffff8111156200054a57600080fd5b6200055886828701620004ec565b935050602084015167ffffffffffffffff8111156200057657600080fd5b6200058486828701620004ec565b92505060406200059786828701620004d5565b9150509250925092565b620005ac8162000733565b82525050565b620005bd8162000747565b82525050565b6000620005d260268362000722565b9150620005df826200088c565b604082019050919050565b6000620005f960208362000722565b91506200060682620008db565b602082019050919050565b6200061c8162000771565b82525050565b600060a082019050620006396000830188620005b2565b620006486020830187620005b2565b620006576040830186620005b2565b62000666606083018562000611565b620006756080830184620005a1565b9695505050505050565b600060208201905081810360008301526200069a81620005c3565b9050919050565b60006020820190508181036000830152620006bc81620005ea565b9050919050565b6000620006cf620006e2565b9050620006dd8282620007e7565b919050565b6000604051905090565b600067ffffffffffffffff8211156200070a57620007096200084c565b5b62000715826200087b565b9050602081019050919050565b600082825260208201905092915050565b6000620007408262000751565b9050919050565b6000819050919050565b600073ffffffffffffffffffffffffffffffffffffffff82169050919050565b6000819050919050565b60005b838110156200079b5780820151818401526020810190506200077e565b83811115620007ab576000848401525b50505050565b60006002820490506001821680620007ca57607f821691505b60208210811415620007e157620007e06200081d565b5b50919050565b620007f2826200087b565b810181811067ffffffffffffffff821117156200081457620008136200084c565b5b80604052505050565b7f4e487b7100000000000000000000000000000000000000000000000000000000600052602260045260246000fd5b7f4e487b7100000000000000000000000000000000000000000000000000000000600052604160045260246000fd5b6000601f19601f8301169050919050565b7f4f776e61626c653a206e6577206f776e657220697320746865207a65726f206160008201527f6464726573730000000000000000000000000000000000000000000000000000602082015250565b7f4f776e61626c653a2063616c6c6572206973206e6f7420746865206f776e6572600082015250565b6200090f8162000733565b81146200091b57600080fd5b50565b60805160a05160c05160601c60e0516101005161012051612b456200097160003960006110bb015260006110fd015260006110dc0152600061101101526000611067015260006110900152612b456000f3fe608060405234801561001057600080fd5b506004361061012c5760003560e01c8063715018a6116100ad578063a457c2d711610071578063a457c2d714610333578063a9059cbb14610363578063d505accf14610393578063dd62ed3e146103af578063f2fde38b146103df5761012c565b8063715018a6146102a157806379cc6790146102ab5780637ecebe00146102c75780638da5cb5b146102f757806395d89b41146103155761012c565b80633644e515116100f45780633644e515146101eb578063395093511461020957806340c10f191461023957806342966c681461025557806370a08231146102715761012c565b806306fdde0314610131578063095ea7b31461014f57806318160ddd1461017f57806323b872dd1461019d578063313ce567146101cd575b600080fd5b6101396103fb565b6040516101469190612180565b60405180910390f35b61016960048036038101906101649190611c66565b61048d565b6040516101769190612051565b60405180910390f35b6101876104b0565b60405161019491906123e2565b60405180910390f35b6101b760048036038101906101b29190611b79565b6104ba565b6040516101c49190612051565b60405180910390f35b6101d56104e9565b6040516101e291906123fd565b60405180910390f35b6101f36104f2565b604051610200919061206c565b60405180910390f35b610223600480360381019061021e9190611c66565b610501565b6040516102309190612051565b60405180910390f35b610253600480360381019061024e9190611c66565b610538565b005b61026f600480360381019061026a9190611ca2565b6105c2565b005b61028b60048036038101906102869190611b14565b6105d6565b60405161029891906123e2565b60405180910390f35b6102a961061e565b005b6102c560048036038101906102c09190611c66565b6106a6565b005b6102e160048036038101906102dc9190611b14565b6106c6565b6040516102ee91906123e2565b60405180910390f35b6102ff610716565b60405161030c9190612036565b60405180910390f35b61031d610740565b60405161032a9190612180565b60405180910390f35b61034d60048036038101906103489190611c66565b6107d2565b60405161035a9190612051565b60405180910390f35b61037d60048036038101906103789190611c66565b610849565b60405161038a9190612051565b60405180910390f35b6103ad60048036038101906103a89190611bc8565b61086c565b005b6103c960048036038101906103c49190611b3d565b6109ae565b6040516103d691906123e2565b60405180910390f35b6103f960048036038101906103f49190611b14565b610a35565b005b60606003805461040a9061255b565b80601f01602080910402602001604051908101604052809291908181526020018280546104369061255b565b80156104835780601f1061045857610100808354040283529160200191610483565b820191906000526020600020905b81548152906001019060200180831161046657829003601f168201915b5050505050905090565b600080610498610b2d565b90506104a5818585610b35565b600191505092915050565b6000600254905090565b6000806104c5610b2d565b90506104d2858285610d00565b6104dd858585610d8c565b60019150509392505050565b60006012905090565b60006104fc61100d565b905090565b60008061050c610b2d565b905061052d81858561051e85896109ae565b610528919061243f565b610b35565b600191505092915050565b610540610b2d565b73ffffffffffffffffffffffffffffffffffffffff1661055e610716565b73ffffffffffffffffffffffffffffffffffffffff16146105b4576040517f08c379a00000000000000000000000000000000000000000000000000000000081526004016105ab90612322565b60405180910390fd5b6105be8282611127565b5050565b6105d36105cd610b2d565b82611287565b50565b60008060008373ffffffffffffffffffffffffffffffffffffffff1673ffffffffffffffffffffffffffffffffffffffff168152602001908152602001600020549050919050565b610626610b2d565b73ffffffffffffffffffffffffffffffffffffffff16610644610716565b73ffffffffffffffffffffffffffffffffffffffff161461069a576040517f08c379a000000000000000000000000000000000000000000000000000000000815260040161069190612322565b60405180910390fd5b6106a4600061145e565b565b6106b8826106b2610b2d565b83610d00565b6106c28282611287565b5050565b600061070f600560008473ffffffffffffffffffffffffffffffffffffffff1673ffffffffffffffffffffffffffffffffffffffff168152602001908152602001600020611524565b9050919050565b6000600760009054906101000a900473ffffffffffffffffffffffffffffffffffffffff16905090565b60606004805461074f9061255b565b80601f016020809104026020016040519081016040528092919081815260200182805461077b9061255b565b80156107c85780601f1061079d576101008083540402835291602001916107c8565b820191906000526020600020905b8154815290600101906020018083116107ab57829003601f168201915b5050505050905090565b6000806107dd610b2d565b905060006107eb82866109ae565b905083811015610830576040517f08c379a0000000000000000000000000000000000000000000000000000000008152600401610827906123a2565b60405180910390fd5b61083d8286868403610b35565b60019250505092915050565b600080610854610b2d565b9050610861818585610d8c565b600191505092915050565b834211156108af576040517f08c379a00000000000000000000000000000000000000000000000000000000081526004016108a690612282565b60405180910390fd5b60007f6e71edae12b1b97f4d1f60370fef10105fa2faae0126114a169c64845d6126c98888886108de8c611532565b896040516020016108f496959493929190612087565b604051602081830303815290604052805190602001209050600061091782611590565b90506000610927828787876115aa565b90508973ffffffffffffffffffffffffffffffffffffffff168173ffffffffffffffffffffffffffffffffffffffff1614610997576040517f08c379a000000000000000000000000000000000000000000000000000000000815260040161098e90612302565b60405180910390fd5b6109a28a8a8a610b35565b50505050505050505050565b6000600160008473ffffffffffffffffffffffffffffffffffffffff1673ffffffffffffffffffffffffffffffffffffffff16815260200190815260200160002060008373ffffffffffffffffffffffffffffffffffffffff1673ffffffffffffffffffffffffffffffffffffffff16815260200190815260200160002054905092915050565b610a3d610b2d565b73ffffffffffffffffffffffffffffffffffffffff16610a5b610716565b73ffffffffffffffffffffffffffffffffffffffff1614610ab1576040517f08c379a0000000000000000000000000000000000000000000000000000000008152600401610aa890612322565b60405180910390fd5b600073ffffffffffffffffffffffffffffffffffffffff168173ffffffffffffffffffffffffffffffffffffffff161415610b21576040517f08c379a0000000000000000000000000000000000000000000000000000000008152600401610b1890612222565b60405180910390fd5b610b2a8161145e565b50565b600033905090565b600073ffffffffffffffffffffffffffffffffffffffff168373ffffffffffffffffffffffffffffffffffffffff161415610ba5576040517f08c379a0000000000000000000000000000000000000000000000000000000008152600401610b9c90612382565b60405180910390fd5b600073ffffffffffffffffffffffffffffffffffffffff168273ffffffffffffffffffffffffffffffffffffffff161415610c15576040517f08c379a0000000000000000000000000000000000000000000000000000000008152600401610c0c90612242565b60405180910390fd5b80600160008573ffffffffffffffffffffffffffffffffffffffff1673ffffffffffffffffffffffffffffffffffffffff16815260200190815260200160002060008473ffffffffffffffffffffffffffffffffffffffff1673ffffffffffffffffffffffffffffffffffffffff168152602001908152602001600020819055508173ffffffffffffffffffffffffffffffffffffffff168373ffffffffffffffffffffffffffffffffffffffff167f8c5be1e5ebec7d5bd14f71427d1e84f3dd0314c0f7b2291e5b200ac8c7c3b92583604051610cf391906123e2565b60405180910390a3505050565b6000610d0c84846109ae565b90507fffffffffffffffffffffffffffffffffffffffffffffffffffffffffffffffff8114610d865781811015610d78576040517f08c379a0000000000000000000000000000000000000000000000000000000008152600401610d6f90612262565b60405180910390fd5b610d858484848403610b35565b5b50505050565b600073ffffffffffffffffffffffffffffffffffffffff168373ffffffffffffffffffffffffffffffffffffffff161415610dfc576040517f08c379a0000000000000000000000000000000000000000000000000000000008152600401610df390612362565b60405180910390fd5b600073ffffffffffffffffffffffffffffffffffffffff168273ffffffffffffffffffffffffffffffffffffffff161415610e6c576040517f08c379a0000000000000000000000000000000000000000000000000000000008152600401610e63906121c2565b60405180910390fd5b610e778383836115d5565b60008060008573ffffffffffffffffffffffffffffffffffffffff1673ffffffffffffffffffffffffffffffffffffffff16815260200190815260200160002054905081811015610efd576040517f08c379a0000000000000000000000000000000000000000000000000000000008152600401610ef4906122a2565b60405180910390fd5b8181036000808673ffffffffffffffffffffffffffffffffffffffff1673ffffffffffffffffffffffffffffffffffffffff16815260200190815260200160002081905550816000808573ffffffffffffffffffffffffffffffffffffffff1673ffffffffffffffffffffffffffffffffffffffff1681526020019081526020016000206000828254610f90919061243f565b925050819055508273ffffffffffffffffffffffffffffffffffffffff168473ffffffffffffffffffffffffffffffffffffffff167fddf252ad1be2c89b69c2b068fc378daa952ba7f163c4a11628f55a4df523b3ef84604051610ff491906123e2565b60405180910390a36110078484846115da565b50505050565b60007f000000000000000000000000000000000000000000000000000000000000000073ffffffffffffffffffffffffffffffffffffffff163073ffffffffffffffffffffffffffffffffffffffff1614801561108957507f000000000000000000000000000000000000000000000000000000000000000046145b156110b6577f00000000000000000000000000000000000000000000000000000000000000009050611124565b6111217f00000000000000000000000000000000000000000000000000000000000000007f00000000000000000000000000000000000000000000000000000000000000007f00000000000000000000000000000000000000000000000000000000000000006115df565b90505b90565b600073ffffffffffffffffffffffffffffffffffffffff168273ffffffffffffffffffffffffffffffffffffffff161415611197576040517f08c379a000000000000000000000000000000000000000000000000000000000815260040161118e906123c2565b60405180910390fd5b6111a3600083836115d5565b80600260008282546111b5919061243f565b92505081905550806000808473ffffffffffffffffffffffffffffffffffffffff1673ffffffffffffffffffffffffffffffffffffffff168152602001908152602001600020600082825461120a919061243f565b925050819055508173ffffffffffffffffffffffffffffffffffffffff16600073ffffffffffffffffffffffffffffffffffffffff167fddf252ad1be2c89b69c2b068fc378daa952ba7f163c4a11628f55a4df523b3ef8360405161126f91906123e2565b60405180910390a3611283600083836115da565b5050565b600073ffffffffffffffffffffffffffffffffffffffff168273ffffffffffffffffffffffffffffffffffffffff1614156112f7576040517f08c379a00000000000000000000000000000000000000000000000000000000081526004016112ee90612342565b60405180910390fd5b611303826000836115d5565b60008060008473ffffffffffffffffffffffffffffffffffffffff1673ffffffffffffffffffffffffffffffffffffffff16815260200190815260200160002054905081811015611389576040517f08c379a0000000000000000000000000000000000000000000000000000000008152600401611380906121e2565b60405180910390fd5b8181036000808573ffffffffffffffffffffffffffffffffffffffff1673ffffffffffffffffffffffffffffffffffffffff1681526020019081526020016000208190555081600260008282546113e09190612495565b92505081905550600073ffffffffffffffffffffffffffffffffffffffff168373ffffffffffffffffffffffffffffffffffffffff167fddf252ad1be2c89b69c2b068fc378daa952ba7f163c4a11628f55a4df523b3ef8460405161144591906123e2565b60405180910390a3611459836000846115da565b505050565b6000600760009054906101000a900473ffffffffffffffffffffffffffffffffffffffff16905081600760006101000a81548173ffffffffffffffffffffffffffffffffffffffff021916908373ffffffffffffffffffffffffffffffffffffffff1602179055508173ffffffffffffffffffffffffffffffffffffffff168173ffffffffffffffffffffffffffffffffffffffff167f8be0079c531659141344cd1fd0a4f28419497f9722a3daafe3b4186f6b6457e060405160405180910390a35050565b600081600001549050919050565b600080600560008473ffffffffffffffffffffffffffffffffffffffff1673ffffffffffffffffffffffffffffffffffffffff168152602001908152602001600020905061157f81611524565b915061158a81611619565b50919050565b60006115a361159d61100d565b8361162f565b9050919050565b60008060006115bb87878787611662565b915091506115c88161176f565b8192505050949350505050565b505050565b505050565b600083838346306040516020016115fa9594939291906120e8565b6040516020818303038152906040528051906020012090509392505050565b6001816000016000828254019250508190555050565b60008282604051602001611644929190611fff565b60405160208183030381529060405280519060200120905092915050565b6000807f7fffffffffffffffffffffffffffffff5d576e7357a4501ddfe92f46681b20a08360001c111561169d576000600391509150611766565b601b8560ff16141580156116b55750601c8560ff1614155b156116c7576000600491509150611766565b6000600187878787604051600081526020016040526040516116ec949392919061213b565b6020604051602081039080840390855afa15801561170e573d6000803e3d6000fd5b505050602060405103519050600073ffffffffffffffffffffffffffffffffffffffff168173ffffffffffffffffffffffffffffffffffffffff16141561175d57600060019250925050611766565b80600092509250505b94509492505050565b600060048111156117a9577f4e487b7100000000000000000000000000000000000000000000000000000000600052602160045260246000fd5b8160048111156117e2577f4e487b7100000000000000000000000000000000000000000000000000000000600052602160045260246000fd5b14156117ed57611abd565b60016004811115611827577f4e487b7100000000000000000000000000000000000000000000000000000000600052602160045260246000fd5b816004811115611860577f4e487b7100000000000000000000000000000000000000000000000000000000600052602160045260246000fd5b14156118a1576040517f08c379a0000000000000000000000000000000000000000000000000000000008152600401611898906121a2565b60405180910390fd5b600260048111156118db577f4e487b7100000000000000000000000000000000000000000000000000000000600052602160045260246000fd5b816004811115611914577f4e487b7100000000000000000000000000000000000000000000000000000000600052602160045260246000fd5b1415611955576040517f08c379a000000000000000000000000000000000000000000000000000000000815260040161194c90612202565b60405180910390fd5b6003600481111561198f577f4e487b7100000000000000000000000000000000000000000000000000000000600052602160045260246000fd5b8160048111156119c8577f4e487b7100000000000000000000000000000000000000000000000000000000600052602160045260246000fd5b1415611a09576040517f08c379a0000000000000000000000000000000000000000000000000000000008152600401611a00906122c2565b60405180910390fd5b600480811115611a42577f4e487b7100000000000000000000000000000000000000000000000000000000600052602160045260246000fd5b816004811115611a7b577f4e487b7100000000000000000000000000000000000000000000000000000000600052602160045260246000fd5b1415611abc576040517f08c379a0000000000000000000000000000000000000000000000000000000008152600401611ab3906122e2565b60405180910390fd5b5b50565b600081359050611acf81612ab3565b92915050565b600081359050611ae481612aca565b92915050565b600081359050611af981612ae1565b92915050565b600081359050611b0e81612af8565b92915050565b600060208284031215611b2657600080fd5b6000611b3484828501611ac0565b91505092915050565b60008060408385031215611b5057600080fd5b6000611b5e85828601611ac0565b9250506020611b6f85828601611ac0565b9150509250929050565b600080600060608486031215611b8e57600080fd5b6000611b9c86828701611ac0565b9350506020611bad86828701611ac0565b9250506040611bbe86828701611aea565b9150509250925092565b600080600080600080600060e0888a031215611be357600080fd5b6000611bf18a828b01611ac0565b9750506020611c028a828b01611ac0565b9650506040611c138a828b01611aea565b9550506060611c248a828b01611aea565b9450506080611c358a828b01611aff565b93505060a0611c468a828b01611ad5565b92505060c0611c578a828b01611ad5565b91505092959891949750929550565b60008060408385031215611c7957600080fd5b6000611c8785828601611ac0565b9250506020611c9885828601611aea565b9150509250929050565b600060208284031215611cb457600080fd5b6000611cc284828501611aea565b91505092915050565b611cd4816124c9565b82525050565b611ce3816124db565b82525050565b611cf2816124e7565b82525050565b611d09611d04826124e7565b61258d565b82525050565b6000611d1a82612418565b611d248185612423565b9350611d34818560208601612528565b611d3d816125f5565b840191505092915050565b6000611d55601883612423565b9150611d6082612606565b602082019050919050565b6000611d78602383612423565b9150611d838261262f565b604082019050919050565b6000611d9b602283612423565b9150611da68261267e565b604082019050919050565b6000611dbe601f83612423565b9150611dc9826126cd565b602082019050919050565b6000611de1602683612423565b9150611dec826126f6565b604082019050919050565b6000611e04602283612423565b9150611e0f82612745565b604082019050919050565b6000611e27600283612434565b9150611e3282612794565b600282019050919050565b6000611e4a601d83612423565b9150611e55826127bd565b602082019050919050565b6000611e6d601d83612423565b9150611e78826127e6565b602082019050919050565b6000611e90602683612423565b9150611e9b8261280f565b604082019050919050565b6000611eb3602283612423565b9150611ebe8261285e565b604082019050919050565b6000611ed6602283612423565b9150611ee1826128ad565b604082019050919050565b6000611ef9601e83612423565b9150611f04826128fc565b602082019050919050565b6000611f1c602083612423565b9150611f2782612925565b602082019050919050565b6000611f3f602183612423565b9150611f4a8261294e565b604082019050919050565b6000611f62602583612423565b9150611f6d8261299d565b604082019050919050565b6000611f85602483612423565b9150611f90826129ec565b604082019050919050565b6000611fa8602583612423565b9150611fb382612a3b565b604082019050919050565b6000611fcb601f83612423565b9150611fd682612a8a565b602082019050919050565b611fea81612511565b82525050565b611ff98161251b565b82525050565b600061200a82611e1a565b91506120168285611cf8565b6020820191506120268284611cf8565b6020820191508190509392505050565b600060208201905061204b6000830184611ccb565b92915050565b60006020820190506120666000830184611cda565b92915050565b60006020820190506120816000830184611ce9565b92915050565b600060c08201905061209c6000830189611ce9565b6120a96020830188611ccb565b6120b66040830187611ccb565b6120c36060830186611fe1565b6120d06080830185611fe1565b6120dd60a0830184611fe1565b979650505050505050565b600060a0820190506120fd6000830188611ce9565b61210a6020830187611ce9565b6121176040830186611ce9565b6121246060830185611fe1565b6121316080830184611ccb565b9695505050505050565b60006080820190506121506000830187611ce9565b61215d6020830186611ff0565b61216a6040830185611ce9565b6121776060830184611ce9565b95945050505050565b6000602082019050818103600083015261219a8184611d0f565b905092915050565b600060208201905081810360008301526121bb81611d48565b9050919050565b600060208201905081810360008301526121db81611d6b565b9050919050565b600060208201905081810360008301526121fb81611d8e565b9050919050565b6000602082019050818103600083015261221b81611db1565b9050919050565b6000602082019050818103600083015261223b81611dd4565b9050919050565b6000602082019050818103600083015261225b81611df7565b9050919050565b6000602082019050818103600083015261227b81611e3d565b9050919050565b6000602082019050818103600083015261229b81611e60565b9050919050565b600060208201905081810360008301526122bb81611e83565b9050919050565b600060208201905081810360008301526122db81611ea6565b9050919050565b600060208201905081810360008301526122fb81611ec9565b9050919050565b6000602082019050818103600083015261231b81611eec565b9050919050565b6000602082019050818103600083015261233b81611f0f565b9050919050565b6000602082019050818103600083015261235b81611f32565b9050919050565b6000602082019050818103600083015261237b81611f55565b9050919050565b6000602082019050818103600083015261239b81611f78565b9050919050565b600060208201905081810360008301526123bb81611f9b565b9050919050565b600060208201905081810360008301526123db81611fbe565b9050919050565b60006020820190506123f76000830184611fe1565b92915050565b60006020820190506124126000830184611ff0565b92915050565b600081519050919050565b600082825260208201905092915050565b600081905092915050565b600061244a82612511565b915061245583612511565b9250827fffffffffffffffffffffffffffffffffffffffffffffffffffffffffffffffff0382111561248a57612489612597565b5b828201905092915050565b60006124a082612511565b91506124ab83612511565b9250828210156124be576124bd612597565b5b828203905092915050565b60006124d4826124f1565b9050919050565b60008115159050919050565b6000819050919050565b600073ffffffffffffffffffffffffffffffffffffffff82169050919050565b6000819050919050565b600060ff82169050919050565b60005b8381101561254657808201518184015260208101905061252b565b83811115612555576000848401525b50505050565b6000600282049050600182168061257357607f821691505b60208210811415612587576125866125c6565b5b50919050565b6000819050919050565b7f4e487b7100000000000000000000000000000000000000000000000000000000600052601160045260246000fd5b7f4e487b7100000000000000000000000000000000000000000000000000000000600052602260045260246000fd5b6000601f19601f8301169050919050565b7f45434453413a20696e76616c6964207369676e61747572650000000000000000600082015250565b7f45524332303a207472616e7366657220746f20746865207a65726f206164647260008201527f6573730000000000000000000000000000000000000000000000000000000000602082015250565b7f45524332303a206275726e20616d6f756e7420657863656564732062616c616e60008201527f6365000000000000000000000000000000000000000000000000000000000000602082015250565b7f45434453413a20696e76616c6964207369676e6174757265206c656e67746800600082015250565b7f4f776e61626c653a206e6577206f776e657220697320746865207a65726f206160008201527f6464726573730000000000000000000000000000000000000000000000000000602082015250565b7f45524332303a20617070726f766520746f20746865207a65726f20616464726560008201527f7373000000000000000000000000000000000000000000000000000000000000602082015250565b7f1901000000000000000000000000000000000000000000000000000000000000600082015250565b7f45524332303a20696e73756666696369656e7420616c6c6f77616e6365000000600082015250565b7f45524332305065726d69743a206578706972656420646561646c696e65000000600082015250565b7f45524332303a207472616e7366657220616d6f756e742065786365656473206260008201527f616c616e63650000000000000000000000000000000000000000000000000000602082015250565b7f45434453413a20696e76616c6964207369676e6174757265202773272076616c60008201527f7565000000000000000000000000000000000000000000000000000000000000602082015250565b7f45434453413a20696e76616c6964207369676e6174757265202776272076616c60008201527f7565000000000000000000000000000000000000000000000000000000000000602082015250565b7f45524332305065726d69743a20696e76616c6964207369676e61747572650000600082015250565b7f4f776e61626c653a2063616c6c6572206973206e6f7420746865206f776e6572600082015250565b7f45524332303a206275726e2066726f6d20746865207a65726f2061646472657360008201527f7300000000000000000000000000000000000000000000000000000000000000602082015250565b7f45524332303a207472616e736665722066726f6d20746865207a65726f20616460008201527f6472657373000000000000000000000000000000000000000000000000000000602082015250565b7f45524332303a20617070726f76652066726f6d20746865207a65726f2061646460008201527f7265737300000000000000000000000000000000000000000000000000000000602082015250565b7f45524332303a2064656372656173656420616c6c6f77616e63652062656c6f7760008201527f207a65726f000000000000000000000000000000000000000000000000000000602082015250565b7f45524332303a206d696e7420746f20746865207a65726f206164647265737300600082015250565b612abc816124c9565b8114612ac757600080fd5b50565b612ad3816124e7565b8114612ade57600080fd5b50565b612aea81612511565b8114612af557600080fd5b50565b612b018161251b565b8114612b0c57600080fd5b5056fea264697066735822122046924f6a0cb7e80d8015ae14d49ea537898e75f4db591a8b273fe6b78e3966cd64736f6c63430008040033a2646970667358221220ba0a0dfabaa99d7ec1781ee06c607183223ce5eeba62fe23dee3959848a53fd364736f6c63430008040033",
  "linkReferences": {},
  "deployedLinkReferences": {}
}