{
  "_format": "hh-sol-artifact-1",
  "contractName": "Bridge",
  "sourceName": "contracts/Bridge.sol",
  "abi": [
    {
      "inputs": [
        {
          "internalType": "address",
          "name": "_governance",
          "type": "address"
        },
        {
          "internalType": "address",
          "name": "_wrappedTokenFactory",
          "type": "address"
        },
        {
          "internalType": "address",
          "name": "_feeCalculator",
          "type": "address"
        }
      ],
      "stateMutability": "nonpayable",
      "type": "constructor"
    },
    {
      "anonymous": false,
      "inputs": [
        {
          "indexed": true,
          "internalType": "address",
          "name": "from",
          "type": "address"
        },
        {
          "indexed": true,
          "internalType": "uint16",
          "name": "targetChainId",
          "type": "uint16"
        },
        {
          "indexed": false,
          "internalType": "address",
          "name": "wrappedToken",
          "type": "address"
        },
        {
          "indexed": false,
          "internalType": "uint256",
          "name": "amount",
          "type": "uint256"
        }
      ],
      "name": "Burn",
      "type": "event"
    },
    {
      "anonymous": false,
      "inputs": [
        {
          "indexed": true,
          "internalType": "address",
          "name": "from",
          "type": "address"
        },
        {
          "indexed": true,
          "internalType": "uint16",
          "name": "targetChainId",
          "type": "uint16"
        },
        {
          "indexed": false,
          "internalType": "address",
          "name": "token",
          "type": "address"
        },
        {
          "indexed": false,
          "internalType": "uint256",
          "name": "amount",
          "type": "uint256"
        }
      ],
      "name": "Lock",
      "type": "event"
    },
    {
      "anonymous": false,
      "inputs": [
        {
          "indexed": true,
          "internalType": "address",
          "name": "receiver",
          "type": "address"
        },
        {
          "indexed": false,
          "internalType": "address",
          "name": "token",
          "type": "address"
        },
        {
          "indexed": false,
          "internalType": "uint256",
          "name": "amount",
          "type": "uint256"
        }
      ],
      "name": "Mint",
      "type": "event"
    },
    {
      "anonymous": false,
      "inputs": [
        {
          "indexed": true,
          "internalType": "address",
          "name": "previousOwner",
          "type": "address"
        },
        {
          "indexed": true,
          "internalType": "address",
          "name": "newOwner",
          "type": "address"
        }
      ],
      "name": "OwnershipTransferred",
      "type": "event"
    },
    {
      "anonymous": false,
      "inputs": [
        {
          "indexed": true,
          "internalType": "address",
          "name": "receiver",
          "type": "address"
        },
        {
          "indexed": false,
          "internalType": "address",
          "name": "token",
          "type": "address"
        },
        {
          "indexed": false,
          "internalType": "uint256",
          "name": "amount",
          "type": "uint256"
        }
      ],
      "name": "Release",
      "type": "event"
    },
    {
      "inputs": [
        {
          "internalType": "uint16",
          "name": "_targetChainId",
          "type": "uint16"
        },
        {
          "internalType": "address",
          "name": "_wrappedToken",
          "type": "address"
        },
        {
          "internalType": "uint256",
          "name": "_amount",
          "type": "uint256"
        },
        {
          "internalType": "uint256",
          "name": "_deadline",
          "type": "uint256"
        },
        {
          "internalType": "uint8",
          "name": "v",
          "type": "uint8"
        },
        {
          "internalType": "bytes32",
          "name": "r",
          "type": "bytes32"
        },
        {
          "internalType": "bytes32",
          "name": "s",
          "type": "bytes32"
        }
      ],
      "name": "burn",
      "outputs": [],
      "stateMutability": "payable",
      "type": "function"
    },
    {
      "inputs": [],
      "name": "claimFees",
      "outputs": [],
      "stateMutability": "nonpayable",
      "type": "function"
    },
    {
      "inputs": [
        {
          "internalType": "string",
          "name": "_name",
          "type": "string"
        },
        {
          "internalType": "string",
          "name": "_symbol",
          "type": "string"
        }
      ],
      "name": "createToken",
      "outputs": [],
      "stateMutability": "nonpayable",
      "type": "function"
    },
    {
      "inputs": [],
      "name": "feeCalculator",
      "outputs": [
        {
          "internalType": "contract FeeCalculator",
          "name": "",
          "type": "address"
        }
      ],
      "stateMutability": "view",
      "type": "function"
    },
    {
      "inputs": [],
      "name": "governance",
      "outputs": [
        {
          "internalType": "contract Governance",
          "name": "",
          "type": "address"
        }
      ],
      "stateMutability": "view",
      "type": "function"
    },
    {
      "inputs": [
        {
          "internalType": "uint16",
          "name": "_targetChainId",
          "type": "uint16"
        },
        {
          "internalType": "address payable",
          "name": "_token",
          "type": "address"
        },
        {
          "internalType": "uint256",
          "name": "_amount",
          "type": "uint256"
        }
      ],
      "name": "lock",
      "outputs": [],
      "stateMutability": "payable",
      "type": "function"
    },
    {
      "inputs": [
        {
          "internalType": "uint16",
          "name": "_targetChainId",
          "type": "uint16"
        },
        {
          "internalType": "address payable",
          "name": "_token",
          "type": "address"
        },
        {
          "internalType": "uint256",
          "name": "_amount",
          "type": "uint256"
        },
        {
          "internalType": "uint256",
          "name": "_deadline",
          "type": "uint256"
        },
        {
          "internalType": "uint8",
          "name": "v",
          "type": "uint8"
        },
        {
          "internalType": "bytes32",
          "name": "r",
          "type": "bytes32"
        },
        {
          "internalType": "bytes32",
          "name": "s",
          "type": "bytes32"
        }
      ],
      "name": "lockWithPermit",
      "outputs": [],
      "stateMutability": "payable",
      "type": "function"
    },
    {
      "inputs": [
        {
          "internalType": "address",
          "name": "_receiver",
          "type": "address"
        },
        {
          "internalType": "uint256",
          "name": "_amount",
          "type": "uint256"
        },
        {
          "internalType": "address payable",
          "name": "_wrappedToken",
          "type": "address"
        },
        {
          "internalType": "bytes[]",
          "name": "_validatorsSignatures",
          "type": "bytes[]"
        }
      ],
      "name": "mint",
      "outputs": [],
      "stateMutability": "nonpayable",
      "type": "function"
    },
    {
      "inputs": [],
      "name": "owner",
      "outputs": [
        {
          "internalType": "address",
          "name": "",
          "type": "address"
        }
      ],
      "stateMutability": "view",
      "type": "function"
    },
    {
      "inputs": [
        {
          "internalType": "address",
          "name": "_receiver",
          "type": "address"
        },
        {
          "internalType": "uint256",
          "name": "_amount",
          "type": "uint256"
        },
        {
          "internalType": "address payable",
          "name": "_token",
          "type": "address"
        },
        {
          "internalType": "bytes[]",
          "name": "_validatorsSignatures",
          "type": "bytes[]"
        }
      ],
      "name": "release",
      "outputs": [],
      "stateMutability": "nonpayable",
      "type": "function"
    },
    {
      "inputs": [],
      "name": "renounceOwnership",
      "outputs": [],
      "stateMutability": "nonpayable",
      "type": "function"
    },
    {
      "inputs": [
        {
          "internalType": "address",
          "name": "_feeCalculator",
          "type": "address"
        }
      ],
      "name": "setFeeCalculator",
      "outputs": [],
      "stateMutability": "nonpayable",
      "type": "function"
    },
    {
      "inputs": [
        {
          "internalType": "address",
          "name": "_governance",
          "type": "address"
        }
      ],
      "name": "setGovernance",
      "outputs": [],
      "stateMutability": "nonpayable",
      "type": "function"
    },
    {
      "inputs": [
        {
          "internalType": "address",
          "name": "_wrappedTokenFactory",
          "type": "address"
        }
      ],
      "name": "setWrappedTokenFactory",
      "outputs": [],
      "stateMutability": "nonpayable",
      "type": "function"
    },
    {
      "inputs": [
        {
          "internalType": "address",
          "name": "newOwner",
          "type": "address"
        }
      ],
      "name": "transferOwnership",
      "outputs": [],
      "stateMutability": "nonpayable",
      "type": "function"
    },
    {
      "inputs": [],
      "name": "wrappedTokenFactory",
      "outputs": [
        {
          "internalType": "contract WrappedTokenFactory",
          "name": "",
          "type": "address"
        }
      ],
      "stateMutability": "view",
      "type": "function"
    }
  ],
  "bytecode": "0x60806040523480156200001157600080fd5b5060405162002c4638038062002c46833981810160405281019062000037919062000206565b620000576200004b6200012360201b60201c565b6200012b60201b60201c565b82600160006101000a81548173ffffffffffffffffffffffffffffffffffffffff021916908373ffffffffffffffffffffffffffffffffffffffff16021790555081600260006101000a81548173ffffffffffffffffffffffffffffffffffffffff021916908373ffffffffffffffffffffffffffffffffffffffff16021790555080600360006101000a81548173ffffffffffffffffffffffffffffffffffffffff021916908373ffffffffffffffffffffffffffffffffffffffff160217905550505050620002aa565b600033905090565b60008060009054906101000a900473ffffffffffffffffffffffffffffffffffffffff169050816000806101000a81548173ffffffffffffffffffffffffffffffffffffffff021916908373ffffffffffffffffffffffffffffffffffffffff1602179055508173ffffffffffffffffffffffffffffffffffffffff168173ffffffffffffffffffffffffffffffffffffffff167f8be0079c531659141344cd1fd0a4f28419497f9722a3daafe3b4186f6b6457e060405160405180910390a35050565b600081519050620002008162000290565b92915050565b6000806000606084860312156200021c57600080fd5b60006200022c86828701620001ef565b93505060206200023f86828701620001ef565b92505060406200025286828701620001ef565b9150509250925092565b6000620002698262000270565b9050919050565b600073ffffffffffffffffffffffffffffffffffffffff82169050919050565b6200029b816200025c565b8114620002a757600080fd5b50565b61298c80620002ba6000396000f3fe6080604052600436106100f35760003560e01c8063a8591ba81161008a578063dff11d7711610059578063dff11d77146102ac578063eaa7c826146102d5578063f2fde38b14610300578063ff8c9d5214610329576100f3565b8063a8591ba814610225578063ab033ea914610241578063b00eb9fe1461026a578063d294f09314610295576100f3565b80636791e447116100c65780636791e44714610191578063715018a6146101ba5780638c66d04f146101d15780638da5cb5b146101fa576100f3565b8063282f62b5146100f85780632f2f2d5614610114578063319cd4881461013d5780635aa6e67514610166575b600080fd5b610112600480360381019061010d9190611dcb565b610345565b005b34801561012057600080fd5b5061013b60048036038101906101369190611c69565b6106cb565b005b34801561014957600080fd5b50610164600480360381019061015f9190611b56565b61084e565b005b34801561017257600080fd5b5061017b6109ee565b60405161018891906122d1565b60405180910390f35b34801561019d57600080fd5b506101b860048036038101906101b39190611b56565b610a14565b005b3480156101c657600080fd5b506101cf610cb3565b005b3480156101dd57600080fd5b506101f860048036038101906101f39190611b2d565b610d3b565b005b34801561020657600080fd5b5061020f610dfb565b60405161021c919061213a565b60405180910390f35b61023f600480360381019061023a9190611cde565b610e24565b005b34801561024d57600080fd5b5061026860048036038101906102639190611b2d565b611032565b005b34801561027657600080fd5b5061027f6110f2565b60405161028c91906122b6565b60405180910390f35b3480156102a157600080fd5b506102aa611118565b005b3480156102b857600080fd5b506102d360048036038101906102ce9190611b2d565b6113fe565b005b3480156102e157600080fd5b506102ea6114be565b6040516102f791906122ec565b60405180910390f35b34801561030c57600080fd5b5061032760048036038101906103229190611b2d565b6114e4565b005b610343600480360381019061033e9190611d2d565b6115dc565b005b60008511610388576040517f08c379a000000000000000000000000000000000000000000000000000000000815260040161037f90612342565b60405180910390fd5b34600360009054906101000a900473ffffffffffffffffffffffffffffffffffffffff1673ffffffffffffffffffffffffffffffffffffffff16638abdf5aa6040518163ffffffff1660e01b815260040160206040518083038186803b1580156103f157600080fd5b505afa158015610405573d6000803e3d6000fd5b505050506040513d601f19601f820116820180604052508101906104299190611e69565b14610469576040517f08c379a0000000000000000000000000000000000000000000000000000000008152600401610460906123a2565b60405180910390fd5b6000600260009054906101000a900473ffffffffffffffffffffffffffffffffffffffff1673ffffffffffffffffffffffffffffffffffffffff16631050791c886040518263ffffffff1660e01b81526004016104c6919061213a565b60206040518083038186803b1580156104de57600080fd5b505afa1580156104f2573d6000803e3d6000fd5b505050506040513d601f19601f820116820180604052508101906105169190611c40565b9050600073ffffffffffffffffffffffffffffffffffffffff168173ffffffffffffffffffffffffffffffffffffffff161415610588576040517f08c379a000000000000000000000000000000000000000000000000000000000815260040161057f90612422565b60405180910390fd5b8073ffffffffffffffffffffffffffffffffffffffff1663d505accf333089898989896040518863ffffffff1660e01b81526004016105cd97969594939291906121d0565b600060405180830381600087803b1580156105e757600080fd5b505af11580156105fb573d6000803e3d6000fd5b505050508073ffffffffffffffffffffffffffffffffffffffff166379cc679033886040518363ffffffff1660e01b815260040161063a92919061223f565b600060405180830381600087803b15801561065457600080fd5b505af1158015610668573d6000803e3d6000fd5b505050508761ffff163373ffffffffffffffffffffffffffffffffffffffff167f5dc93246720564c1f3d731c12f61d58cec89d10712eeeb281f5c13d7bf5491f089896040516106b992919061223f565b60405180910390a35050505050505050565b600160009054906101000a900473ffffffffffffffffffffffffffffffffffffffff1673ffffffffffffffffffffffffffffffffffffffff166395a078e8336040518263ffffffff1660e01b8152600401610726919061213a565b60206040518083038186803b15801561073e57600080fd5b505afa158015610752573d6000803e3d6000fd5b505050506040513d601f19601f820116820180604052508101906107769190611c17565b6107b5576040517f08c379a00000000000000000000000000000000000000000000000000000000081526004016107ac90612402565b60405180910390fd5b600260009054906101000a900473ffffffffffffffffffffffffffffffffffffffff1673ffffffffffffffffffffffffffffffffffffffff16632f2f2d56858585856040518563ffffffff1660e01b81526004016108169493929190612307565b600060405180830381600087803b15801561083057600080fd5b505af1158015610844573d6000803e3d6000fd5b5050505050505050565b600160009054906101000a900473ffffffffffffffffffffffffffffffffffffffff1673ffffffffffffffffffffffffffffffffffffffff1663856fe16f86868686866040518663ffffffff1660e01b81526004016108b1959493929190612268565b600060405180830381600087803b1580156108cb57600080fd5b505af11580156108df573d6000803e3d6000fd5b505050506040513d6000823e3d601f19601f820116820180604052508101906109089190611bd6565b508273ffffffffffffffffffffffffffffffffffffffff1663a9059cbb33866040518363ffffffff1660e01b815260040161094492919061223f565b602060405180830381600087803b15801561095e57600080fd5b505af1158015610972573d6000803e3d6000fd5b505050506040513d601f19601f820116820180604052508101906109969190611c17565b503373ffffffffffffffffffffffffffffffffffffffff167fcb54aad3bd772fcfe1bc124e01bd1a91a91c9d80126d8b3014c4d9e687d5ca4884866040516109df929190612170565b60405180910390a25050505050565b600160009054906101000a900473ffffffffffffffffffffffffffffffffffffffff1681565b600160009054906101000a900473ffffffffffffffffffffffffffffffffffffffff1673ffffffffffffffffffffffffffffffffffffffff1663856fe16f86868686866040518663ffffffff1660e01b8152600401610a77959493929190612268565b600060405180830381600087803b158015610a9157600080fd5b505af1158015610aa5573d6000803e3d6000fd5b505050506040513d6000823e3d601f19601f82011682018060405250810190610ace9190611bd6565b506000600260009054906101000a900473ffffffffffffffffffffffffffffffffffffffff1673ffffffffffffffffffffffffffffffffffffffff16631050791c856040518263ffffffff1660e01b8152600401610b2c9190612155565b60206040518083038186803b158015610b4457600080fd5b505afa158015610b58573d6000803e3d6000fd5b505050506040513d601f19601f82011682018060405250810190610b7c9190611c40565b9050600073ffffffffffffffffffffffffffffffffffffffff168173ffffffffffffffffffffffffffffffffffffffff161415610bee576040517f08c379a0000000000000000000000000000000000000000000000000000000008152600401610be590612422565b60405180910390fd5b8073ffffffffffffffffffffffffffffffffffffffff166340c10f1987876040518363ffffffff1660e01b8152600401610c2992919061223f565b600060405180830381600087803b158015610c4357600080fd5b505af1158015610c57573d6000803e3d6000fd5b505050508573ffffffffffffffffffffffffffffffffffffffff167fab8530f87dc9b59234c4623bf917212bb2536d647574c8e7e5da92c2ede0c9f88587604051610ca3929190612170565b60405180910390a2505050505050565b610cbb611865565b73ffffffffffffffffffffffffffffffffffffffff16610cd9610dfb565b73ffffffffffffffffffffffffffffffffffffffff1614610d2f576040517f08c379a0000000000000000000000000000000000000000000000000000000008152600401610d26906123e2565b60405180910390fd5b610d39600061186d565b565b610d43611865565b73ffffffffffffffffffffffffffffffffffffffff16610d61610dfb565b73ffffffffffffffffffffffffffffffffffffffff1614610db7576040517f08c379a0000000000000000000000000000000000000000000000000000000008152600401610dae906123e2565b60405180910390fd5b80600360006101000a81548173ffffffffffffffffffffffffffffffffffffffff021916908373ffffffffffffffffffffffffffffffffffffffff16021790555050565b60008060009054906101000a900473ffffffffffffffffffffffffffffffffffffffff16905090565b60008111610e67576040517f08c379a0000000000000000000000000000000000000000000000000000000008152600401610e5e906123c2565b60405180910390fd5b34600360009054906101000a900473ffffffffffffffffffffffffffffffffffffffff1673ffffffffffffffffffffffffffffffffffffffff16638abdf5aa6040518163ffffffff1660e01b815260040160206040518083038186803b158015610ed057600080fd5b505afa158015610ee4573d6000803e3d6000fd5b505050506040513d601f19601f82011682018060405250810190610f089190611e69565b14610f48576040517f08c379a0000000000000000000000000000000000000000000000000000000008152600401610f3f906123a2565b60405180910390fd5b8173ffffffffffffffffffffffffffffffffffffffff166323b872dd3330846040518463ffffffff1660e01b8152600401610f8593929190612199565b602060405180830381600087803b158015610f9f57600080fd5b505af1158015610fb3573d6000803e3d6000fd5b505050506040513d601f19601f82011682018060405250810190610fd79190611c17565b508261ffff163373ffffffffffffffffffffffffffffffffffffffff167fa8c70ec6b821c5df3793c53c2cb5b13df03a73bb01afe315d12c8c980c7c30668484604051611025929190612170565b60405180910390a3505050565b61103a611865565b73ffffffffffffffffffffffffffffffffffffffff16611058610dfb565b73ffffffffffffffffffffffffffffffffffffffff16146110ae576040517f08c379a00000000000000000000000000000000000000000000000000000000081526004016110a5906123e2565b60405180910390fd5b80600160006101000a81548173ffffffffffffffffffffffffffffffffffffffff021916908373ffffffffffffffffffffffffffffffffffffffff16021790555050565b600360009054906101000a900473ffffffffffffffffffffffffffffffffffffffff1681565b600160009054906101000a900473ffffffffffffffffffffffffffffffffffffffff1673ffffffffffffffffffffffffffffffffffffffff166395a078e8336040518263ffffffff1660e01b8152600401611173919061213a565b60206040518083038186803b15801561118b57600080fd5b505afa15801561119f573d6000803e3d6000fd5b505050506040513d601f19601f820116820180604052508101906111c39190611c17565b611202576040517f08c379a00000000000000000000000000000000000000000000000000000000081526004016111f990612402565b60405180910390fd5b6000600360009054906101000a900473ffffffffffffffffffffffffffffffffffffffff1673ffffffffffffffffffffffffffffffffffffffff1663fcf66664336040518263ffffffff1660e01b815260040161125f919061213a565b60206040518083038186803b15801561127757600080fd5b505afa15801561128b573d6000803e3d6000fd5b505050506040513d601f19601f820116820180604052508101906112af9190611e69565b9050600081116112f4576040517f08c379a00000000000000000000000000000000000000000000000000000000081526004016112eb90612442565b60405180910390fd5b60003373ffffffffffffffffffffffffffffffffffffffff166108fc839081150290604051600060405180830381858888f1935050505090508061136d576040517f08c379a000000000000000000000000000000000000000000000000000000000815260040161136490612382565b60405180910390fd5b600360009054906101000a900473ffffffffffffffffffffffffffffffffffffffff1673ffffffffffffffffffffffffffffffffffffffff16631e83409a336040518263ffffffff1660e01b81526004016113c8919061213a565b600060405180830381600087803b1580156113e257600080fd5b505af11580156113f6573d6000803e3d6000fd5b505050505050565b611406611865565b73ffffffffffffffffffffffffffffffffffffffff16611424610dfb565b73ffffffffffffffffffffffffffffffffffffffff161461147a576040517f08c379a0000000000000000000000000000000000000000000000000000000008152600401611471906123e2565b60405180910390fd5b80600260006101000a81548173ffffffffffffffffffffffffffffffffffffffff021916908373ffffffffffffffffffffffffffffffffffffffff16021790555050565b600260009054906101000a900473ffffffffffffffffffffffffffffffffffffffff1681565b6114ec611865565b73ffffffffffffffffffffffffffffffffffffffff1661150a610dfb565b73ffffffffffffffffffffffffffffffffffffffff1614611560576040517f08c379a0000000000000000000000000000000000000000000000000000000008152600401611557906123e2565b60405180910390fd5b600073ffffffffffffffffffffffffffffffffffffffff168173ffffffffffffffffffffffffffffffffffffffff1614156115d0576040517f08c379a00000000000000000000000000000000000000000000000000000000081526004016115c790612362565b60405180910390fd5b6115d98161186d565b50565b6000851161161f576040517f08c379a0000000000000000000000000000000000000000000000000000000008152600401611616906123c2565b60405180910390fd5b34600360009054906101000a900473ffffffffffffffffffffffffffffffffffffffff1673ffffffffffffffffffffffffffffffffffffffff16638abdf5aa6040518163ffffffff1660e01b815260040160206040518083038186803b15801561168857600080fd5b505afa15801561169c573d6000803e3d6000fd5b505050506040513d601f19601f820116820180604052508101906116c09190611e69565b14611700576040517f08c379a00000000000000000000000000000000000000000000000000000000081526004016116f7906123a2565b60405180910390fd5b8573ffffffffffffffffffffffffffffffffffffffff1663d505accf333088888888886040518863ffffffff1660e01b815260040161174597969594939291906121d0565b600060405180830381600087803b15801561175f57600080fd5b505af1158015611773573d6000803e3d6000fd5b505050508573ffffffffffffffffffffffffffffffffffffffff166323b872dd3330886040518463ffffffff1660e01b81526004016117b493929190612199565b602060405180830381600087803b1580156117ce57600080fd5b505af11580156117e2573d6000803e3d6000fd5b505050506040513d601f19601f820116820180604052508101906118069190611c17565b508661ffff163373ffffffffffffffffffffffffffffffffffffffff167fa8c70ec6b821c5df3793c53c2cb5b13df03a73bb01afe315d12c8c980c7c30668888604051611854929190612170565b60405180910390a350505050505050565b600033905090565b60008060009054906101000a900473ffffffffffffffffffffffffffffffffffffffff169050816000806101000a81548173ffffffffffffffffffffffffffffffffffffffff021916908373ffffffffffffffffffffffffffffffffffffffff1602179055508173ffffffffffffffffffffffffffffffffffffffff168173ffffffffffffffffffffffffffffffffffffffff167f8be0079c531659141344cd1fd0a4f28419497f9722a3daafe3b4186f6b6457e060405160405180910390a35050565b600061194461193f84612487565b612462565b9050808382526020820190508285602086028201111561196357600080fd5b60005b85811015611993578161197988826119b2565b845260208401935060208301925050600181019050611966565b5050509392505050565b6000813590506119ac8161289e565b92915050565b6000815190506119c18161289e565b92915050565b6000813590506119d6816128b5565b92915050565b600082601f8301126119ed57600080fd5b81516119fd848260208601611931565b91505092915050565b60008083601f840112611a1857600080fd5b8235905067ffffffffffffffff811115611a3157600080fd5b602083019150836020820283011115611a4957600080fd5b9250929050565b600081519050611a5f816128cc565b92915050565b600081359050611a74816128e3565b92915050565b600081519050611a89816128fa565b92915050565b60008083601f840112611aa157600080fd5b8235905067ffffffffffffffff811115611aba57600080fd5b602083019150836001820283011115611ad257600080fd5b9250929050565b600081359050611ae881612911565b92915050565b600081359050611afd81612928565b92915050565b600081519050611b1281612928565b92915050565b600081359050611b278161293f565b92915050565b600060208284031215611b3f57600080fd5b6000611b4d8482850161199d565b91505092915050565b600080600080600060808688031215611b6e57600080fd5b6000611b7c8882890161199d565b9550506020611b8d88828901611aee565b9450506040611b9e888289016119c7565b935050606086013567ffffffffffffffff811115611bbb57600080fd5b611bc788828901611a06565b92509250509295509295909350565b600060208284031215611be857600080fd5b600082015167ffffffffffffffff811115611c0257600080fd5b611c0e848285016119dc565b91505092915050565b600060208284031215611c2957600080fd5b6000611c3784828501611a50565b91505092915050565b600060208284031215611c5257600080fd5b6000611c6084828501611a7a565b91505092915050565b60008060008060408587031215611c7f57600080fd5b600085013567ffffffffffffffff811115611c9957600080fd5b611ca587828801611a8f565b9450945050602085013567ffffffffffffffff811115611cc457600080fd5b611cd087828801611a8f565b925092505092959194509250565b600080600060608486031215611cf357600080fd5b6000611d0186828701611ad9565b9350506020611d12868287016119c7565b9250506040611d2386828701611aee565b9150509250925092565b600080600080600080600060e0888a031215611d4857600080fd5b6000611d568a828b01611ad9565b9750506020611d678a828b016119c7565b9650506040611d788a828b01611aee565b9550506060611d898a828b01611aee565b9450506080611d9a8a828b01611b18565b93505060a0611dab8a828b01611a65565b92505060c0611dbc8a828b01611a65565b91505092959891949750929550565b600080600080600080600060e0888a031215611de657600080fd5b6000611df48a828b01611ad9565b9750506020611e058a828b0161199d565b9650506040611e168a828b01611aee565b9550506060611e278a828b01611aee565b9450506080611e388a828b01611b18565b93505060a0611e498a828b01611a65565b92505060c0611e5a8a828b01611a65565b91505092959891949750929550565b600060208284031215611e7b57600080fd5b6000611e8984828501611b03565b91505092915050565b6000611e9f848484611f5a565b90509392505050565b611eb1816125e5565b82525050565b611ec081612566565b82525050565b611ecf81612554565b82525050565b6000611ee183856124ca565b935083602084028501611ef3846124b3565b8060005b87811015611f39578484038952611f0e82846124fd565b611f19868284611e92565b9550611f24846124bd565b935060208b019a505050600181019050611ef7565b50829750879450505050509392505050565b611f5481612584565b82525050565b6000611f6683856124db565b9350611f73838584612687565b611f7c836126f6565b840190509392505050565b611f90816125f7565b82525050565b611f9f8161261b565b82525050565b611fae8161263f565b82525050565b6000611fc083856124ec565b9350611fcd838584612687565b611fd6836126f6565b840190509392505050565b6000611fee6019836124ec565b9150611ff982612707565b602082019050919050565b60006120116026836124ec565b915061201c82612730565b604082019050919050565b60006120346018836124ec565b915061203f8261277f565b602082019050919050565b60006120576016836124ec565b9150612062826127a8565b602082019050919050565b600061207a601b836124ec565b9150612085826127d1565b602082019050919050565b600061209d6020836124ec565b91506120a8826127fa565b602082019050919050565b60006120c06018836124ec565b91506120cb82612823565b602082019050919050565b60006120e3601d836124ec565b91506120ee8261284c565b602082019050919050565b6000612106601c836124ec565b915061211182612875565b602082019050919050565b612125816125ce565b82525050565b612134816125d8565b82525050565b600060208201905061214f6000830184611ec6565b92915050565b600060208201905061216a6000830184611ea8565b92915050565b60006040820190506121856000830185611ea8565b612192602083018461211c565b9392505050565b60006060820190506121ae6000830186611ec6565b6121bb6020830185611ec6565b6121c8604083018461211c565b949350505050565b600060e0820190506121e5600083018a611ec6565b6121f26020830189611ec6565b6121ff604083018861211c565b61220c606083018761211c565b612219608083018661212b565b61222660a0830185611f4b565b61223360c0830184611f4b565b98975050505050505050565b60006040820190506122546000830185611ec6565b612261602083018461211c565b9392505050565b600060808201905061227d6000830188611ec6565b61228a602083018761211c565b6122976040830186611eb7565b81810360608301526122aa818486611ed5565b90509695505050505050565b60006020820190506122cb6000830184611f87565b92915050565b60006020820190506122e66000830184611f96565b92915050565b60006020820190506123016000830184611fa5565b92915050565b60006040820190508181036000830152612322818688611fb4565b90508181036020830152612337818486611fb4565b905095945050505050565b6000602082019050818103600083015261235b81611fe1565b9050919050565b6000602082019050818103600083015261237b81612004565b9050919050565b6000602082019050818103600083015261239b81612027565b9050919050565b600060208201905081810360008301526123bb8161204a565b9050919050565b600060208201905081810360008301526123db8161206d565b9050919050565b600060208201905081810360008301526123fb81612090565b9050919050565b6000602082019050818103600083015261241b816120b3565b9050919050565b6000602082019050818103600083015261243b816120d6565b9050919050565b6000602082019050818103600083015261245b816120f9565b9050919050565b600061246c61247d565b90506124788282612696565b919050565b6000604051905090565b600067ffffffffffffffff8211156124a2576124a16126c7565b5b602082029050602081019050919050565b6000819050919050565b6000602082019050919050565b600082825260208201905092915050565b600082825260208201905092915050565b600082825260208201905092915050565b6000808335600160200384360303811261251657600080fd5b83810192508235915060208301925067ffffffffffffffff82111561253a57600080fd5b60018202360384131561254c57600080fd5b509250929050565b600061255f826125ae565b9050919050565b6000612571826125ae565b9050919050565b60008115159050919050565b6000819050919050565b600061259982612554565b9050919050565b600061ffff82169050919050565b600073ffffffffffffffffffffffffffffffffffffffff82169050919050565b6000819050919050565b600060ff82169050919050565b60006125f082612663565b9050919050565b600061260282612609565b9050919050565b6000612614826125ae565b9050919050565b60006126268261262d565b9050919050565b6000612638826125ae565b9050919050565b600061264a82612651565b9050919050565b600061265c826125ae565b9050919050565b600061266e82612675565b9050919050565b6000612680826125ae565b9050919050565b82818337600083830152505050565b61269f826126f6565b810181811067ffffffffffffffff821117156126be576126bd6126c7565b5b80604052505050565b7f4e487b7100000000000000000000000000000000000000000000000000000000600052604160045260246000fd5b6000601f19601f8301169050919050565b7f4275726e7420616d6f756e742069732072657175697265642e00000000000000600082015250565b7f4f776e61626c653a206e6577206f776e657220697320746865207a65726f206160008201527f6464726573730000000000000000000000000000000000000000000000000000602082015250565b7f4665657320636f756c646e277420626520636c61696d65640000000000000000600082015250565b7f4e6f7420656e6f75676820736572766963652066656500000000000000000000600082015250565b7f4272696467656420616d6f756e742069732072657175697265642e0000000000600082015250565b7f4f776e61626c653a2063616c6c6572206973206e6f7420746865206f776e6572600082015250565b7f56616c696461746f72206e6f7420726567697374657265640000000000000000600082015250565b7f5772617070656420546f6b656e206973206e6f74206578697374696e67000000600082015250565b7f4e6f20616363756d756c61746564206665657320746f20636c61696d00000000600082015250565b6128a781612554565b81146128b257600080fd5b50565b6128be81612566565b81146128c957600080fd5b50565b6128d581612578565b81146128e057600080fd5b50565b6128ec81612584565b81146128f757600080fd5b50565b6129038161258e565b811461290e57600080fd5b50565b61291a816125a0565b811461292557600080fd5b50565b612931816125ce565b811461293c57600080fd5b50565b612948816125d8565b811461295357600080fd5b5056fea264697066735822122084883e78db2d8cbef4634e4c3b190858b83ef1d4f4c5bf80d1dbbeec9b42f2bc64736f6c63430008040033",
  "linkReferences": {},
  "deployedLinkReferences": {}
}