{
  "_format": "hh-sol-artifact-1",
  "contractName": "Bridge",
  "sourceName": "contracts/Bridge.sol",
  "abi": [
    {
      "inputs": [
        {
          "internalType": "address",
          "name": "_governance",
          "type": "address"
        },
        {
          "internalType": "address",
          "name": "_wrappedTokenFactory",
          "type": "address"
        },
        {
          "internalType": "address",
          "name": "_feeCalculator",
          "type": "address"
        }
      ],
      "stateMutability": "nonpayable",
      "type": "constructor"
    },
    {
      "anonymous": false,
      "inputs": [
        {
          "indexed": true,
          "internalType": "address",
          "name": "from",
          "type": "address"
        },
        {
          "indexed": true,
          "internalType": "uint16",
          "name": "targetChainId",
          "type": "uint16"
        },
        {
          "indexed": false,
          "internalType": "address",
          "name": "wrappedToken",
          "type": "address"
        },
        {
          "indexed": false,
          "internalType": "uint256",
          "name": "amount",
          "type": "uint256"
        }
      ],
      "name": "Burn",
      "type": "event"
    },
    {
      "anonymous": false,
      "inputs": [
        {
          "indexed": true,
          "internalType": "address",
          "name": "from",
          "type": "address"
        },
        {
          "indexed": true,
          "internalType": "uint16",
          "name": "targetChainId",
          "type": "uint16"
        },
        {
          "indexed": false,
          "internalType": "address",
          "name": "token",
          "type": "address"
        },
        {
          "indexed": false,
          "internalType": "uint256",
          "name": "amount",
          "type": "uint256"
        }
      ],
      "name": "Lock",
      "type": "event"
    },
    {
      "anonymous": false,
      "inputs": [
        {
          "indexed": true,
          "internalType": "address",
          "name": "receiver",
          "type": "address"
        },
        {
          "indexed": false,
          "internalType": "address",
          "name": "token",
          "type": "address"
        },
        {
          "indexed": false,
          "internalType": "uint256",
          "name": "amount",
          "type": "uint256"
        }
      ],
      "name": "Mint",
      "type": "event"
    },
    {
      "anonymous": false,
      "inputs": [
        {
          "indexed": true,
          "internalType": "address",
          "name": "previousOwner",
          "type": "address"
        },
        {
          "indexed": true,
          "internalType": "address",
          "name": "newOwner",
          "type": "address"
        }
      ],
      "name": "OwnershipTransferred",
      "type": "event"
    },
    {
      "anonymous": false,
      "inputs": [
        {
          "indexed": true,
          "internalType": "address",
          "name": "receiver",
          "type": "address"
        },
        {
          "indexed": false,
          "internalType": "address",
          "name": "token",
          "type": "address"
        },
        {
          "indexed": false,
          "internalType": "uint256",
          "name": "amount",
          "type": "uint256"
        }
      ],
      "name": "Release",
      "type": "event"
    },
    {
      "inputs": [
        {
          "internalType": "uint16",
          "name": "_targetChainId",
          "type": "uint16"
        },
        {
          "internalType": "address",
          "name": "_wrappedToken",
          "type": "address"
        },
        {
          "internalType": "uint256",
          "name": "_amount",
          "type": "uint256"
        },
        {
          "internalType": "uint256",
          "name": "_deadline",
          "type": "uint256"
        },
        {
          "internalType": "uint8",
          "name": "v",
          "type": "uint8"
        },
        {
          "internalType": "bytes32",
          "name": "r",
          "type": "bytes32"
        },
        {
          "internalType": "bytes32",
          "name": "s",
          "type": "bytes32"
        }
      ],
      "name": "burn",
      "outputs": [],
      "stateMutability": "nonpayable",
      "type": "function"
    },
    {
      "inputs": [],
      "name": "claimFees",
      "outputs": [],
      "stateMutability": "nonpayable",
      "type": "function"
    },
    {
      "inputs": [
        {
          "internalType": "string",
          "name": "_name",
          "type": "string"
        },
        {
          "internalType": "string",
          "name": "_symbol",
          "type": "string"
        }
      ],
      "name": "createToken",
      "outputs": [],
      "stateMutability": "nonpayable",
      "type": "function"
    },
    {
      "inputs": [],
      "name": "feeCalculator",
      "outputs": [
        {
          "internalType": "contract FeeCalculator",
          "name": "",
          "type": "address"
        }
      ],
      "stateMutability": "view",
      "type": "function"
    },
    {
      "inputs": [],
      "name": "governance",
      "outputs": [
        {
          "internalType": "contract Governance",
          "name": "",
          "type": "address"
        }
      ],
      "stateMutability": "view",
      "type": "function"
    },
    {
      "inputs": [
        {
          "internalType": "uint16",
          "name": "_targetChainId",
          "type": "uint16"
        },
        {
          "internalType": "address payable",
          "name": "_token",
          "type": "address"
        },
        {
          "internalType": "uint256",
          "name": "_amount",
          "type": "uint256"
        }
      ],
      "name": "lock",
      "outputs": [],
      "stateMutability": "nonpayable",
      "type": "function"
    },
    {
      "inputs": [
        {
          "internalType": "uint16",
          "name": "_targetChainId",
          "type": "uint16"
        },
        {
          "internalType": "address payable",
          "name": "_token",
          "type": "address"
        },
        {
          "internalType": "uint256",
          "name": "_amount",
          "type": "uint256"
        },
        {
          "internalType": "uint256",
          "name": "_deadline",
          "type": "uint256"
        },
        {
          "internalType": "uint8",
          "name": "v",
          "type": "uint8"
        },
        {
          "internalType": "bytes32",
          "name": "r",
          "type": "bytes32"
        },
        {
          "internalType": "bytes32",
          "name": "s",
          "type": "bytes32"
        }
      ],
      "name": "lockWithPermit",
      "outputs": [],
      "stateMutability": "nonpayable",
      "type": "function"
    },
    {
      "inputs": [
        {
          "internalType": "address",
          "name": "_receiver",
          "type": "address"
        },
        {
          "internalType": "uint256",
          "name": "_amount",
          "type": "uint256"
        },
        {
          "internalType": "address payable",
          "name": "_wrappedToken",
          "type": "address"
        },
        {
          "internalType": "bytes[]",
          "name": "_validatorsSignatures",
          "type": "bytes[]"
        }
      ],
      "name": "mint",
      "outputs": [],
      "stateMutability": "payable",
      "type": "function"
    },
    {
      "inputs": [],
      "name": "owner",
      "outputs": [
        {
          "internalType": "address",
          "name": "",
          "type": "address"
        }
      ],
      "stateMutability": "view",
      "type": "function"
    },
    {
      "inputs": [
        {
          "internalType": "address",
          "name": "_receiver",
          "type": "address"
        },
        {
          "internalType": "uint256",
          "name": "_amount",
          "type": "uint256"
        },
        {
          "internalType": "address payable",
          "name": "_token",
          "type": "address"
        },
        {
          "internalType": "bytes[]",
          "name": "_validatorsSignatures",
          "type": "bytes[]"
        }
      ],
      "name": "release",
      "outputs": [],
      "stateMutability": "payable",
      "type": "function"
    },
    {
      "inputs": [],
      "name": "renounceOwnership",
      "outputs": [],
      "stateMutability": "nonpayable",
      "type": "function"
    },
    {
      "inputs": [
        {
          "internalType": "address",
          "name": "_feeCalculator",
          "type": "address"
        }
      ],
      "name": "setFeeCalculator",
      "outputs": [],
      "stateMutability": "nonpayable",
      "type": "function"
    },
    {
      "inputs": [
        {
          "internalType": "address",
          "name": "_governance",
          "type": "address"
        }
      ],
      "name": "setGovernance",
      "outputs": [],
      "stateMutability": "nonpayable",
      "type": "function"
    },
    {
      "inputs": [
        {
          "internalType": "address",
          "name": "_wrappedTokenFactory",
          "type": "address"
        }
      ],
      "name": "setWrappedTokenFactory",
      "outputs": [],
      "stateMutability": "nonpayable",
      "type": "function"
    },
    {
      "inputs": [
        {
          "internalType": "address",
          "name": "newOwner",
          "type": "address"
        }
      ],
      "name": "transferOwnership",
      "outputs": [],
      "stateMutability": "nonpayable",
      "type": "function"
    },
    {
      "inputs": [],
      "name": "wrappedTokenFactory",
      "outputs": [
        {
          "internalType": "contract WrappedTokenFactory",
          "name": "",
          "type": "address"
        }
      ],
      "stateMutability": "view",
      "type": "function"
    }
  ],
  "bytecode": "0x60806040523480156200001157600080fd5b5060405162002d1638038062002d16833981810160405281019062000037919062000206565b620000576200004b6200012360201b60201c565b6200012b60201b60201c565b82600160006101000a81548173ffffffffffffffffffffffffffffffffffffffff021916908373ffffffffffffffffffffffffffffffffffffffff16021790555081600260006101000a81548173ffffffffffffffffffffffffffffffffffffffff021916908373ffffffffffffffffffffffffffffffffffffffff16021790555080600360006101000a81548173ffffffffffffffffffffffffffffffffffffffff021916908373ffffffffffffffffffffffffffffffffffffffff160217905550505050620002aa565b600033905090565b60008060009054906101000a900473ffffffffffffffffffffffffffffffffffffffff169050816000806101000a81548173ffffffffffffffffffffffffffffffffffffffff021916908373ffffffffffffffffffffffffffffffffffffffff1602179055508173ffffffffffffffffffffffffffffffffffffffff168173ffffffffffffffffffffffffffffffffffffffff167f8be0079c531659141344cd1fd0a4f28419497f9722a3daafe3b4186f6b6457e060405160405180910390a35050565b600081519050620002008162000290565b92915050565b6000806000606084860312156200021c57600080fd5b60006200022c86828701620001ef565b93505060206200023f86828701620001ef565b92505060406200025286828701620001ef565b9150509250925092565b6000620002698262000270565b9050919050565b600073ffffffffffffffffffffffffffffffffffffffff82169050919050565b6200029b816200025c565b8114620002a757600080fd5b50565b612a5c80620002ba6000396000f3fe6080604052600436106100f35760003560e01c8063a8591ba81161008a578063dff11d7711610059578063dff11d77146102ac578063eaa7c826146102d5578063f2fde38b14610300578063ff8c9d5214610329576100f3565b8063a8591ba814610218578063ab033ea914610241578063b00eb9fe1461026a578063d294f09314610295576100f3565b80636791e447116100c65780636791e44714610191578063715018a6146101ad5780638c66d04f146101c45780638da5cb5b146101ed576100f3565b8063282f62b5146100f85780632f2f2d5614610121578063319cd4881461014a5780635aa6e67514610166575b600080fd5b34801561010457600080fd5b5061011f600480360381019061011a9190611e9b565b610352565b005b34801561012d57600080fd5b5061014860048036038101906101439190611d39565b6105f7565b005b610164600480360381019061015f9190611c26565b61077a565b005b34801561017257600080fd5b5061017b610acd565b60405161018891906123a1565b60405180910390f35b6101ab60048036038101906101a69190611c26565b610af3565b005b3480156101b957600080fd5b506101c2610f45565b005b3480156101d057600080fd5b506101eb60048036038101906101e69190611bfd565b610fcd565b005b3480156101f957600080fd5b5061020261108d565b60405161020f919061220a565b60405180910390f35b34801561022457600080fd5b5061023f600480360381019061023a9190611dae565b6110b6565b005b34801561024d57600080fd5b5061026860048036038101906102639190611bfd565b6111e3565b005b34801561027657600080fd5b5061027f6112a3565b60405161028c9190612386565b60405180910390f35b3480156102a157600080fd5b506102aa6112c9565b005b3480156102b857600080fd5b506102d360048036038101906102ce9190611bfd565b6115af565b005b3480156102e157600080fd5b506102ea61166f565b6040516102f791906123bc565b60405180910390f35b34801561030c57600080fd5b5061032760048036038101906103229190611bfd565b611695565b005b34801561033557600080fd5b50610350600480360381019061034b9190611dfd565b61178d565b005b60008511610395576040517f08c379a000000000000000000000000000000000000000000000000000000000815260040161038c90612412565b60405180910390fd5b6000600260009054906101000a900473ffffffffffffffffffffffffffffffffffffffff1673ffffffffffffffffffffffffffffffffffffffff16631050791c886040518263ffffffff1660e01b81526004016103f2919061220a565b60206040518083038186803b15801561040a57600080fd5b505afa15801561041e573d6000803e3d6000fd5b505050506040513d601f19601f820116820180604052508101906104429190611d10565b9050600073ffffffffffffffffffffffffffffffffffffffff168173ffffffffffffffffffffffffffffffffffffffff1614156104b4576040517f08c379a00000000000000000000000000000000000000000000000000000000081526004016104ab906124f2565b60405180910390fd5b8073ffffffffffffffffffffffffffffffffffffffff1663d505accf333089898989896040518863ffffffff1660e01b81526004016104f997969594939291906122a0565b600060405180830381600087803b15801561051357600080fd5b505af1158015610527573d6000803e3d6000fd5b505050508073ffffffffffffffffffffffffffffffffffffffff166379cc679033886040518363ffffffff1660e01b815260040161056692919061230f565b600060405180830381600087803b15801561058057600080fd5b505af1158015610594573d6000803e3d6000fd5b505050508761ffff163373ffffffffffffffffffffffffffffffffffffffff167f5dc93246720564c1f3d731c12f61d58cec89d10712eeeb281f5c13d7bf5491f089896040516105e592919061230f565b60405180910390a35050505050505050565b600160009054906101000a900473ffffffffffffffffffffffffffffffffffffffff1673ffffffffffffffffffffffffffffffffffffffff166395a078e8336040518263ffffffff1660e01b8152600401610652919061220a565b60206040518083038186803b15801561066a57600080fd5b505afa15801561067e573d6000803e3d6000fd5b505050506040513d601f19601f820116820180604052508101906106a29190611ce7565b6106e1576040517f08c379a00000000000000000000000000000000000000000000000000000000081526004016106d8906124d2565b60405180910390fd5b600260009054906101000a900473ffffffffffffffffffffffffffffffffffffffff1673ffffffffffffffffffffffffffffffffffffffff16632f2f2d56858585856040518563ffffffff1660e01b815260040161074294939291906123d7565b600060405180830381600087803b15801561075c57600080fd5b505af1158015610770573d6000803e3d6000fd5b5050505050505050565b34600360009054906101000a900473ffffffffffffffffffffffffffffffffffffffff1673ffffffffffffffffffffffffffffffffffffffff16638abdf5aa6040518163ffffffff1660e01b815260040160206040518083038186803b1580156107e357600080fd5b505afa1580156107f7573d6000803e3d6000fd5b505050506040513d601f19601f8201168201806040525081019061081b9190611f39565b1461085b576040517f08c379a000000000000000000000000000000000000000000000000000000000815260040161085290612472565b60405180910390fd5b6000600160009054906101000a900473ffffffffffffffffffffffffffffffffffffffff1673ffffffffffffffffffffffffffffffffffffffff1663856fe16f87878787876040518663ffffffff1660e01b81526004016108c0959493929190612338565b600060405180830381600087803b1580156108da57600080fd5b505af11580156108ee573d6000803e3d6000fd5b505050506040513d6000823e3d601f19601f820116820180604052508101906109179190611ca6565b90508373ffffffffffffffffffffffffffffffffffffffff1663a9059cbb33876040518363ffffffff1660e01b815260040161095492919061230f565b602060405180830381600087803b15801561096e57600080fd5b505af1158015610982573d6000803e3d6000fd5b505050506040513d601f19601f820116820180604052508101906109a69190611ce7565b50600360009054906101000a900473ffffffffffffffffffffffffffffffffffffffff1673ffffffffffffffffffffffffffffffffffffffff16637bf8def282600081518110610a1f577f4e487b7100000000000000000000000000000000000000000000000000000000600052603260045260246000fd5b60200260200101516040518263ffffffff1660e01b8152600401610a43919061220a565b600060405180830381600087803b158015610a5d57600080fd5b505af1158015610a71573d6000803e3d6000fd5b505050503373ffffffffffffffffffffffffffffffffffffffff167fcb54aad3bd772fcfe1bc124e01bd1a91a91c9d80126d8b3014c4d9e687d5ca488587604051610abd929190612240565b60405180910390a2505050505050565b600160009054906101000a900473ffffffffffffffffffffffffffffffffffffffff1681565b34600360009054906101000a900473ffffffffffffffffffffffffffffffffffffffff1673ffffffffffffffffffffffffffffffffffffffff16638abdf5aa6040518163ffffffff1660e01b815260040160206040518083038186803b158015610b5c57600080fd5b505afa158015610b70573d6000803e3d6000fd5b505050506040513d601f19601f82011682018060405250810190610b949190611f39565b14610bd4576040517f08c379a0000000000000000000000000000000000000000000000000000000008152600401610bcb90612472565b60405180910390fd5b6000600160009054906101000a900473ffffffffffffffffffffffffffffffffffffffff1673ffffffffffffffffffffffffffffffffffffffff1663856fe16f87878787876040518663ffffffff1660e01b8152600401610c39959493929190612338565b600060405180830381600087803b158015610c5357600080fd5b505af1158015610c67573d6000803e3d6000fd5b505050506040513d6000823e3d601f19601f82011682018060405250810190610c909190611ca6565b90506000600260009054906101000a900473ffffffffffffffffffffffffffffffffffffffff1673ffffffffffffffffffffffffffffffffffffffff16631050791c866040518263ffffffff1660e01b8152600401610cef9190612225565b60206040518083038186803b158015610d0757600080fd5b505afa158015610d1b573d6000803e3d6000fd5b505050506040513d601f19601f82011682018060405250810190610d3f9190611d10565b9050600073ffffffffffffffffffffffffffffffffffffffff168173ffffffffffffffffffffffffffffffffffffffff161415610db1576040517f08c379a0000000000000000000000000000000000000000000000000000000008152600401610da8906124f2565b60405180910390fd5b8073ffffffffffffffffffffffffffffffffffffffff166340c10f1988886040518363ffffffff1660e01b8152600401610dec92919061230f565b600060405180830381600087803b158015610e0657600080fd5b505af1158015610e1a573d6000803e3d6000fd5b50505050600360009054906101000a900473ffffffffffffffffffffffffffffffffffffffff1673ffffffffffffffffffffffffffffffffffffffff16637bf8def283600081518110610e96577f4e487b7100000000000000000000000000000000000000000000000000000000600052603260045260246000fd5b60200260200101516040518263ffffffff1660e01b8152600401610eba919061220a565b600060405180830381600087803b158015610ed457600080fd5b505af1158015610ee8573d6000803e3d6000fd5b505050508673ffffffffffffffffffffffffffffffffffffffff167fab8530f87dc9b59234c4623bf917212bb2536d647574c8e7e5da92c2ede0c9f88688604051610f34929190612240565b60405180910390a250505050505050565b610f4d611935565b73ffffffffffffffffffffffffffffffffffffffff16610f6b61108d565b73ffffffffffffffffffffffffffffffffffffffff1614610fc1576040517f08c379a0000000000000000000000000000000000000000000000000000000008152600401610fb8906124b2565b60405180910390fd5b610fcb600061193d565b565b610fd5611935565b73ffffffffffffffffffffffffffffffffffffffff16610ff361108d565b73ffffffffffffffffffffffffffffffffffffffff1614611049576040517f08c379a0000000000000000000000000000000000000000000000000000000008152600401611040906124b2565b60405180910390fd5b80600360006101000a81548173ffffffffffffffffffffffffffffffffffffffff021916908373ffffffffffffffffffffffffffffffffffffffff16021790555050565b60008060009054906101000a900473ffffffffffffffffffffffffffffffffffffffff16905090565b600081116110f9576040517f08c379a00000000000000000000000000000000000000000000000000000000081526004016110f090612492565b60405180910390fd5b8173ffffffffffffffffffffffffffffffffffffffff166323b872dd3330846040518463ffffffff1660e01b815260040161113693929190612269565b602060405180830381600087803b15801561115057600080fd5b505af1158015611164573d6000803e3d6000fd5b505050506040513d601f19601f820116820180604052508101906111889190611ce7565b508261ffff163373ffffffffffffffffffffffffffffffffffffffff167fa8c70ec6b821c5df3793c53c2cb5b13df03a73bb01afe315d12c8c980c7c306684846040516111d6929190612240565b60405180910390a3505050565b6111eb611935565b73ffffffffffffffffffffffffffffffffffffffff1661120961108d565b73ffffffffffffffffffffffffffffffffffffffff161461125f576040517f08c379a0000000000000000000000000000000000000000000000000000000008152600401611256906124b2565b60405180910390fd5b80600160006101000a81548173ffffffffffffffffffffffffffffffffffffffff021916908373ffffffffffffffffffffffffffffffffffffffff16021790555050565b600360009054906101000a900473ffffffffffffffffffffffffffffffffffffffff1681565b600160009054906101000a900473ffffffffffffffffffffffffffffffffffffffff1673ffffffffffffffffffffffffffffffffffffffff166395a078e8336040518263ffffffff1660e01b8152600401611324919061220a565b60206040518083038186803b15801561133c57600080fd5b505afa158015611350573d6000803e3d6000fd5b505050506040513d601f19601f820116820180604052508101906113749190611ce7565b6113b3576040517f08c379a00000000000000000000000000000000000000000000000000000000081526004016113aa906124d2565b60405180910390fd5b6000600360009054906101000a900473ffffffffffffffffffffffffffffffffffffffff1673ffffffffffffffffffffffffffffffffffffffff1663fcf66664336040518263ffffffff1660e01b8152600401611410919061220a565b60206040518083038186803b15801561142857600080fd5b505afa15801561143c573d6000803e3d6000fd5b505050506040513d601f19601f820116820180604052508101906114609190611f39565b9050600081116114a5576040517f08c379a000000000000000000000000000000000000000000000000000000000815260040161149c90612512565b60405180910390fd5b60003373ffffffffffffffffffffffffffffffffffffffff166108fc839081150290604051600060405180830381858888f1935050505090508061151e576040517f08c379a000000000000000000000000000000000000000000000000000000000815260040161151590612452565b60405180910390fd5b600360009054906101000a900473ffffffffffffffffffffffffffffffffffffffff1673ffffffffffffffffffffffffffffffffffffffff16631e83409a336040518263ffffffff1660e01b8152600401611579919061220a565b600060405180830381600087803b15801561159357600080fd5b505af11580156115a7573d6000803e3d6000fd5b505050505050565b6115b7611935565b73ffffffffffffffffffffffffffffffffffffffff166115d561108d565b73ffffffffffffffffffffffffffffffffffffffff161461162b576040517f08c379a0000000000000000000000000000000000000000000000000000000008152600401611622906124b2565b60405180910390fd5b80600260006101000a81548173ffffffffffffffffffffffffffffffffffffffff021916908373ffffffffffffffffffffffffffffffffffffffff16021790555050565b600260009054906101000a900473ffffffffffffffffffffffffffffffffffffffff1681565b61169d611935565b73ffffffffffffffffffffffffffffffffffffffff166116bb61108d565b73ffffffffffffffffffffffffffffffffffffffff1614611711576040517f08c379a0000000000000000000000000000000000000000000000000000000008152600401611708906124b2565b60405180910390fd5b600073ffffffffffffffffffffffffffffffffffffffff168173ffffffffffffffffffffffffffffffffffffffff161415611781576040517f08c379a000000000000000000000000000000000000000000000000000000000815260040161177890612432565b60405180910390fd5b61178a8161193d565b50565b600085116117d0576040517f08c379a00000000000000000000000000000000000000000000000000000000081526004016117c790612492565b60405180910390fd5b8573ffffffffffffffffffffffffffffffffffffffff1663d505accf333088888888886040518863ffffffff1660e01b815260040161181597969594939291906122a0565b600060405180830381600087803b15801561182f57600080fd5b505af1158015611843573d6000803e3d6000fd5b505050508573ffffffffffffffffffffffffffffffffffffffff166323b872dd3330886040518463ffffffff1660e01b815260040161188493929190612269565b602060405180830381600087803b15801561189e57600080fd5b505af11580156118b2573d6000803e3d6000fd5b505050506040513d601f19601f820116820180604052508101906118d69190611ce7565b508661ffff163373ffffffffffffffffffffffffffffffffffffffff167fa8c70ec6b821c5df3793c53c2cb5b13df03a73bb01afe315d12c8c980c7c30668888604051611924929190612240565b60405180910390a350505050505050565b600033905090565b60008060009054906101000a900473ffffffffffffffffffffffffffffffffffffffff169050816000806101000a81548173ffffffffffffffffffffffffffffffffffffffff021916908373ffffffffffffffffffffffffffffffffffffffff1602179055508173ffffffffffffffffffffffffffffffffffffffff168173ffffffffffffffffffffffffffffffffffffffff167f8be0079c531659141344cd1fd0a4f28419497f9722a3daafe3b4186f6b6457e060405160405180910390a35050565b6000611a14611a0f84612557565b612532565b90508083825260208201905082856020860282011115611a3357600080fd5b60005b85811015611a635781611a498882611a82565b845260208401935060208301925050600181019050611a36565b5050509392505050565b600081359050611a7c8161296e565b92915050565b600081519050611a918161296e565b92915050565b600081359050611aa681612985565b92915050565b600082601f830112611abd57600080fd5b8151611acd848260208601611a01565b91505092915050565b60008083601f840112611ae857600080fd5b8235905067ffffffffffffffff811115611b0157600080fd5b602083019150836020820283011115611b1957600080fd5b9250929050565b600081519050611b2f8161299c565b92915050565b600081359050611b44816129b3565b92915050565b600081519050611b59816129ca565b92915050565b60008083601f840112611b7157600080fd5b8235905067ffffffffffffffff811115611b8a57600080fd5b602083019150836001820283011115611ba257600080fd5b9250929050565b600081359050611bb8816129e1565b92915050565b600081359050611bcd816129f8565b92915050565b600081519050611be2816129f8565b92915050565b600081359050611bf781612a0f565b92915050565b600060208284031215611c0f57600080fd5b6000611c1d84828501611a6d565b91505092915050565b600080600080600060808688031215611c3e57600080fd5b6000611c4c88828901611a6d565b9550506020611c5d88828901611bbe565b9450506040611c6e88828901611a97565b935050606086013567ffffffffffffffff811115611c8b57600080fd5b611c9788828901611ad6565b92509250509295509295909350565b600060208284031215611cb857600080fd5b600082015167ffffffffffffffff811115611cd257600080fd5b611cde84828501611aac565b91505092915050565b600060208284031215611cf957600080fd5b6000611d0784828501611b20565b91505092915050565b600060208284031215611d2257600080fd5b6000611d3084828501611b4a565b91505092915050565b60008060008060408587031215611d4f57600080fd5b600085013567ffffffffffffffff811115611d6957600080fd5b611d7587828801611b5f565b9450945050602085013567ffffffffffffffff811115611d9457600080fd5b611da087828801611b5f565b925092505092959194509250565b600080600060608486031215611dc357600080fd5b6000611dd186828701611ba9565b9350506020611de286828701611a97565b9250506040611df386828701611bbe565b9150509250925092565b600080600080600080600060e0888a031215611e1857600080fd5b6000611e268a828b01611ba9565b9750506020611e378a828b01611a97565b9650506040611e488a828b01611bbe565b9550506060611e598a828b01611bbe565b9450506080611e6a8a828b01611be8565b93505060a0611e7b8a828b01611b35565b92505060c0611e8c8a828b01611b35565b91505092959891949750929550565b600080600080600080600060e0888a031215611eb657600080fd5b6000611ec48a828b01611ba9565b9750506020611ed58a828b01611a6d565b9650506040611ee68a828b01611bbe565b9550506060611ef78a828b01611bbe565b9450506080611f088a828b01611be8565b93505060a0611f198a828b01611b35565b92505060c0611f2a8a828b01611b35565b91505092959891949750929550565b600060208284031215611f4b57600080fd5b6000611f5984828501611bd3565b91505092915050565b6000611f6f84848461202a565b90509392505050565b611f81816126b5565b82525050565b611f9081612636565b82525050565b611f9f81612624565b82525050565b6000611fb1838561259a565b935083602084028501611fc384612583565b8060005b87811015612009578484038952611fde82846125cd565b611fe9868284611f62565b9550611ff48461258d565b935060208b019a505050600181019050611fc7565b50829750879450505050509392505050565b61202481612654565b82525050565b600061203683856125ab565b9350612043838584612757565b61204c836127c6565b840190509392505050565b612060816126c7565b82525050565b61206f816126eb565b82525050565b61207e8161270f565b82525050565b600061209083856125bc565b935061209d838584612757565b6120a6836127c6565b840190509392505050565b60006120be6019836125bc565b91506120c9826127d7565b602082019050919050565b60006120e16026836125bc565b91506120ec82612800565b604082019050919050565b60006121046018836125bc565b915061210f8261284f565b602082019050919050565b60006121276016836125bc565b915061213282612878565b602082019050919050565b600061214a601b836125bc565b9150612155826128a1565b602082019050919050565b600061216d6020836125bc565b9150612178826128ca565b602082019050919050565b60006121906018836125bc565b915061219b826128f3565b602082019050919050565b60006121b3601d836125bc565b91506121be8261291c565b602082019050919050565b60006121d6601c836125bc565b91506121e182612945565b602082019050919050565b6121f58161269e565b82525050565b612204816126a8565b82525050565b600060208201905061221f6000830184611f96565b92915050565b600060208201905061223a6000830184611f78565b92915050565b60006040820190506122556000830185611f78565b61226260208301846121ec565b9392505050565b600060608201905061227e6000830186611f96565b61228b6020830185611f96565b61229860408301846121ec565b949350505050565b600060e0820190506122b5600083018a611f96565b6122c26020830189611f96565b6122cf60408301886121ec565b6122dc60608301876121ec565b6122e960808301866121fb565b6122f660a083018561201b565b61230360c083018461201b565b98975050505050505050565b60006040820190506123246000830185611f96565b61233160208301846121ec565b9392505050565b600060808201905061234d6000830188611f96565b61235a60208301876121ec565b6123676040830186611f87565b818103606083015261237a818486611fa5565b90509695505050505050565b600060208201905061239b6000830184612057565b92915050565b60006020820190506123b66000830184612066565b92915050565b60006020820190506123d16000830184612075565b92915050565b600060408201905081810360008301526123f2818688612084565b90508181036020830152612407818486612084565b905095945050505050565b6000602082019050818103600083015261242b816120b1565b9050919050565b6000602082019050818103600083015261244b816120d4565b9050919050565b6000602082019050818103600083015261246b816120f7565b9050919050565b6000602082019050818103600083015261248b8161211a565b9050919050565b600060208201905081810360008301526124ab8161213d565b9050919050565b600060208201905081810360008301526124cb81612160565b9050919050565b600060208201905081810360008301526124eb81612183565b9050919050565b6000602082019050818103600083015261250b816121a6565b9050919050565b6000602082019050818103600083015261252b816121c9565b9050919050565b600061253c61254d565b90506125488282612766565b919050565b6000604051905090565b600067ffffffffffffffff82111561257257612571612797565b5b602082029050602081019050919050565b6000819050919050565b6000602082019050919050565b600082825260208201905092915050565b600082825260208201905092915050565b600082825260208201905092915050565b600080833560016020038436030381126125e657600080fd5b83810192508235915060208301925067ffffffffffffffff82111561260a57600080fd5b60018202360384131561261c57600080fd5b509250929050565b600061262f8261267e565b9050919050565b60006126418261267e565b9050919050565b60008115159050919050565b6000819050919050565b600061266982612624565b9050919050565b600061ffff82169050919050565b600073ffffffffffffffffffffffffffffffffffffffff82169050919050565b6000819050919050565b600060ff82169050919050565b60006126c082612733565b9050919050565b60006126d2826126d9565b9050919050565b60006126e48261267e565b9050919050565b60006126f6826126fd565b9050919050565b60006127088261267e565b9050919050565b600061271a82612721565b9050919050565b600061272c8261267e565b9050919050565b600061273e82612745565b9050919050565b60006127508261267e565b9050919050565b82818337600083830152505050565b61276f826127c6565b810181811067ffffffffffffffff8211171561278e5761278d612797565b5b80604052505050565b7f4e487b7100000000000000000000000000000000000000000000000000000000600052604160045260246000fd5b6000601f19601f8301169050919050565b7f4275726e7420616d6f756e742069732072657175697265642e00000000000000600082015250565b7f4f776e61626c653a206e6577206f776e657220697320746865207a65726f206160008201527f6464726573730000000000000000000000000000000000000000000000000000602082015250565b7f4665657320636f756c646e277420626520636c61696d65640000000000000000600082015250565b7f4e6f7420656e6f75676820736572766963652066656500000000000000000000600082015250565b7f4272696467656420616d6f756e742069732072657175697265642e0000000000600082015250565b7f4f776e61626c653a2063616c6c6572206973206e6f7420746865206f776e6572600082015250565b7f56616c696461746f72206e6f7420726567697374657265640000000000000000600082015250565b7f5772617070656420546f6b656e206973206e6f74206578697374696e67000000600082015250565b7f4e6f20616363756d756c61746564206665657320746f20636c61696d00000000600082015250565b61297781612624565b811461298257600080fd5b50565b61298e81612636565b811461299957600080fd5b50565b6129a581612648565b81146129b057600080fd5b50565b6129bc81612654565b81146129c757600080fd5b50565b6129d38161265e565b81146129de57600080fd5b50565b6129ea81612670565b81146129f557600080fd5b50565b612a018161269e565b8114612a0c57600080fd5b50565b612a18816126a8565b8114612a2357600080fd5b5056fea2646970667358221220cfeac3562fee22b7d2c8efabb11e52b65ce39fecd7c869d8e22a736ddf84506c64736f6c63430008040033",
  "linkReferences": {},
  "deployedLinkReferences": {}
}