{
  "_format": "hh-sol-artifact-1",
  "contractName": "FeeCalculator",
  "sourceName": "contracts/FeeCalculator.sol",
  "abi": [
    {
      "inputs": [
        {
          "internalType": "uint256",
          "name": "_serviceFee",
          "type": "uint256"
        }
      ],
      "stateMutability": "nonpayable",
      "type": "constructor"
    },
    {
      "anonymous": false,
      "inputs": [
        {
          "indexed": true,
          "internalType": "address",
          "name": "validator",
          "type": "address"
        },
        {
          "indexed": false,
          "internalType": "uint256",
          "name": "amount",
          "type": "uint256"
        }
      ],
      "name": "Claim",
      "type": "event"
    },
    {
      "anonymous": false,
      "inputs": [
        {
          "indexed": true,
          "internalType": "address",
          "name": "previousOwner",
          "type": "address"
        },
        {
          "indexed": true,
          "internalType": "address",
          "name": "newOwner",
          "type": "address"
        }
      ],
      "name": "OwnershipTransferred",
      "type": "event"
    },
    {
      "anonymous": false,
      "inputs": [
        {
          "indexed": false,
          "internalType": "uint256",
          "name": "newServiceFee",
          "type": "uint256"
        }
      ],
      "name": "ServiceFeeSet",
      "type": "event"
    },
    {
      "inputs": [
        {
          "internalType": "address",
          "name": "_validator",
          "type": "address"
        }
      ],
      "name": "accumulatedFees",
      "outputs": [
        {
          "internalType": "uint256",
          "name": "",
          "type": "uint256"
        }
      ],
      "stateMutability": "view",
      "type": "function"
    },
    {
      "inputs": [
        {
          "internalType": "address",
          "name": "_validator",
          "type": "address"
        }
      ],
      "name": "accureFees",
      "outputs": [],
      "stateMutability": "nonpayable",
      "type": "function"
    },
    {
      "inputs": [
        {
          "internalType": "address",
          "name": "_validator",
          "type": "address"
        }
      ],
      "name": "claim",
      "outputs": [],
      "stateMutability": "nonpayable",
      "type": "function"
    },
    {
      "inputs": [],
      "name": "owner",
      "outputs": [
        {
          "internalType": "address",
          "name": "",
          "type": "address"
        }
      ],
      "stateMutability": "view",
      "type": "function"
    },
    {
      "inputs": [],
      "name": "renounceOwnership",
      "outputs": [],
      "stateMutability": "nonpayable",
      "type": "function"
    },
    {
      "inputs": [],
      "name": "serviceFee",
      "outputs": [
        {
          "internalType": "uint256",
          "name": "",
          "type": "uint256"
        }
      ],
      "stateMutability": "view",
      "type": "function"
    },
    {
      "inputs": [
        {
          "internalType": "uint256",
          "name": "_serviceFee",
          "type": "uint256"
        }
      ],
      "name": "setServiceFee",
      "outputs": [],
      "stateMutability": "nonpayable",
      "type": "function"
    },
    {
      "inputs": [
        {
          "internalType": "address",
          "name": "newOwner",
          "type": "address"
        }
      ],
      "name": "transferOwnership",
      "outputs": [],
      "stateMutability": "nonpayable",
      "type": "function"
    }
  ],
  "bytecode": "0x60806040523480156200001157600080fd5b506040516200119b3803806200119b83398181016040528101906200003791906200033a565b620000576200004b6200010b60201b60201c565b6200011360201b60201c565b6200008b7f5eee2ce931dbdbc7154f0d99acd06be07b09fb75a09091cefad8dbdd31f1a65860001b620001d760201b60201c565b620000bf7f7586f4b9344f18a249fb141a92036b4d136c9ba26fbd0505c45dfccad4a994c260001b620001d760201b60201c565b620000f37f47f862e74a114cd79f9a974b72be36a0e2c457ba042e0b568a88da9f86ee1cd860001b620001d760201b60201c565b6200010481620001da60201b60201c565b50620003b8565b600033905090565b60008060009054906101000a900473ffffffffffffffffffffffffffffffffffffffff169050816000806101000a81548173ffffffffffffffffffffffffffffffffffffffff021916908373ffffffffffffffffffffffffffffffffffffffff1602179055508173ffffffffffffffffffffffffffffffffffffffff168173ffffffffffffffffffffffffffffffffffffffff167f8be0079c531659141344cd1fd0a4f28419497f9722a3daafe3b4186f6b6457e060405160405180910390a35050565b50565b6200020e7f866fdd0a38c3a525784e90ef10ae36e143997238ed6687df576e06f40b7bdc4860001b620001d760201b60201c565b620002427f55a7606a71e425ff034563debab5e648848e91a84881380287868cfd56c686ad60001b620001d760201b60201c565b620002767f2f65c95c417c80a82ed7bcb00b599d32d20a1837c19335b4bb4a19815c3c7abc60001b620001d760201b60201c565b80600181905550620002b17f5d9b19fc112bc2023728d46b2e10d8e14237e76bdb3f904a83806b57c84eaafe60001b620001d760201b60201c565b620002e57f0ccea28dcc8c69840ffe7fcc2f64a3878fdeba87287ebd5d484678f5a18f435960001b620001d760201b60201c565b7fe2fe2af9f10aef22facefaa714f8d678288ee884fa15c5a52c0f776f92baafef60015460405162000318919062000377565b60405180910390a150565b60008151905062000334816200039e565b92915050565b6000602082840312156200034d57600080fd5b60006200035d8482850162000323565b91505092915050565b620003718162000394565b82525050565b60006020820190506200038e600083018462000366565b92915050565b6000819050919050565b620003a98162000394565b8114620003b557600080fd5b50565b610dd380620003c86000396000f3fe608060405234801561001057600080fd5b50600436106100885760003560e01c80638abdf5aa1161005b5780638abdf5aa146100eb5780638da5cb5b14610109578063f2fde38b14610127578063fcf666641461014357610088565b80631e83409a1461008d5780635cdf76f8146100a9578063715018a6146100c55780637bf8def2146100cf575b600080fd5b6100a760048036038101906100a29190610af9565b610173565b005b6100c360048036038101906100be9190610b22565b6103fe565b005b6100cd61050a565b005b6100e960048036038101906100e49190610af9565b610592565b005b6100f36106ed565b6040516101009190610c0a565b60405180910390f35b6101116106f3565b60405161011e9190610baf565b60405180910390f35b610141600480360381019061013c9190610af9565b61071c565b005b61015d60048036038101906101589190610af9565b610814565b60405161016a9190610c0a565b60405180910390f35b61017b6108e1565b73ffffffffffffffffffffffffffffffffffffffff166101996106f3565b73ffffffffffffffffffffffffffffffffffffffff16146101ef576040517f08c379a00000000000000000000000000000000000000000000000000000000081526004016101e690610bea565b60405180910390fd5b61021b7f45058bb9852c54636b27444cf97be8c318d894c755e3ec395c2087f808f9bc5660001b6108e9565b6102477f1b84a36b35ace0b46c70c09503e13a9396cda99612b662b9bce39a44a0afa88560001b6108e9565b6102737f108eb593de9966fe8a7311df1ff267cec9faea1e64dbc59f94ff6081942cd21160001b6108e9565b6000600260008373ffffffffffffffffffffffffffffffffffffffff1673ffffffffffffffffffffffffffffffffffffffff1681526020019081526020016000205490506102e37fb45e5f5b38efe5de5261a890bd8cd36c8d1bbbabd5e91b42dafc53541ef8110b60001b6108e9565b61030f7f2b5bb0e0cc8d020c6aa2aca469bd7a401d96b7f5fd241ac6506a3807fddec50760001b6108e9565b6000600260008473ffffffffffffffffffffffffffffffffffffffff1673ffffffffffffffffffffffffffffffffffffffff168152602001908152602001600020819055506103807f56bacb1efd73653b59aab3a5055c84308c7490be858b6aafef07617516c0bd4560001b6108e9565b6103ac7fd098d570bae71d46209b3be5772e28111dcf4c62e448b54ec52f5dd10c88b77d60001b6108e9565b8173ffffffffffffffffffffffffffffffffffffffff167f47cee97cb7acd717b3c0aa1435d004cd5b3c8c57d70dbceb4e4458bbd60e39d4826040516103f29190610c0a565b60405180910390a25050565b6104066108e1565b73ffffffffffffffffffffffffffffffffffffffff166104246106f3565b73ffffffffffffffffffffffffffffffffffffffff161461047a576040517f08c379a000000000000000000000000000000000000000000000000000000000815260040161047190610bea565b60405180910390fd5b6104a67f79d3b489695a3494365d93ef724349444cb6383fcb24df8a3d7beddb2034a95460001b6108e9565b6104d27f86a6de39458630a15a2156f2df8e6ed0993ce5ffaf80907114f8b47d06cddb1b60001b6108e9565b6104fe7f3dfb36e4a952ac35f092bc83eda5504df25226bd879c51e53e284a3deaadd05260001b6108e9565b610507816108ec565b50565b6105126108e1565b73ffffffffffffffffffffffffffffffffffffffff166105306106f3565b73ffffffffffffffffffffffffffffffffffffffff1614610586576040517f08c379a000000000000000000000000000000000000000000000000000000000815260040161057d90610bea565b60405180910390fd5b6105906000610a0b565b565b61059a6108e1565b73ffffffffffffffffffffffffffffffffffffffff166105b86106f3565b73ffffffffffffffffffffffffffffffffffffffff161461060e576040517f08c379a000000000000000000000000000000000000000000000000000000000815260040161060590610bea565b60405180910390fd5b61063a7f16582646128607e9e84d2592b2dbddc5e08acfc0cdd81444b0dec9e67424796060001b6108e9565b6106667f4d4e2225bdf2fba674ee224b582c628c594b5237198aa189a44fd0b3108c7cb860001b6108e9565b6106927fa480db1cd671dbd3fd97930879c96d6b3524330afeb68494eea53c7b694d5b5d60001b6108e9565b600154600260008373ffffffffffffffffffffffffffffffffffffffff1673ffffffffffffffffffffffffffffffffffffffff16815260200190815260200160002060008282546106e39190610c36565b9250508190555050565b60015481565b60008060009054906101000a900473ffffffffffffffffffffffffffffffffffffffff16905090565b6107246108e1565b73ffffffffffffffffffffffffffffffffffffffff166107426106f3565b73ffffffffffffffffffffffffffffffffffffffff1614610798576040517f08c379a000000000000000000000000000000000000000000000000000000000815260040161078f90610bea565b60405180910390fd5b600073ffffffffffffffffffffffffffffffffffffffff168173ffffffffffffffffffffffffffffffffffffffff161415610808576040517f08c379a00000000000000000000000000000000000000000000000000000000081526004016107ff90610bca565b60405180910390fd5b61081181610a0b565b50565b60006108427f4271f0d5a632a9b2bf28deb88fa41a52323979f37f65c662e47006856a1c768e60001b6108e9565b61086e7fd98c5083767f43f7e5625f9a5bd92b9cad414a8a2f7b84873a1f1e3cd2f0c63760001b6108e9565b61089a7f7294e6d377595bff2231ed153e9a5e349cb51de9e938681fa7a2a50f49ae19f360001b6108e9565b600260008373ffffffffffffffffffffffffffffffffffffffff1673ffffffffffffffffffffffffffffffffffffffff168152602001908152602001600020549050919050565b600033905090565b50565b6109187f866fdd0a38c3a525784e90ef10ae36e143997238ed6687df576e06f40b7bdc4860001b6108e9565b6109447f55a7606a71e425ff034563debab5e648848e91a84881380287868cfd56c686ad60001b6108e9565b6109707f2f65c95c417c80a82ed7bcb00b599d32d20a1837c19335b4bb4a19815c3c7abc60001b6108e9565b806001819055506109a37f5d9b19fc112bc2023728d46b2e10d8e14237e76bdb3f904a83806b57c84eaafe60001b6108e9565b6109cf7f0ccea28dcc8c69840ffe7fcc2f64a3878fdeba87287ebd5d484678f5a18f435960001b6108e9565b7fe2fe2af9f10aef22facefaa714f8d678288ee884fa15c5a52c0f776f92baafef600154604051610a009190610c0a565b60405180910390a150565b60008060009054906101000a900473ffffffffffffffffffffffffffffffffffffffff169050816000806101000a81548173ffffffffffffffffffffffffffffffffffffffff021916908373ffffffffffffffffffffffffffffffffffffffff1602179055508173ffffffffffffffffffffffffffffffffffffffff168173ffffffffffffffffffffffffffffffffffffffff167f8be0079c531659141344cd1fd0a4f28419497f9722a3daafe3b4186f6b6457e060405160405180910390a35050565b600081359050610ade81610d6f565b92915050565b600081359050610af381610d86565b92915050565b600060208284031215610b0b57600080fd5b6000610b1984828501610acf565b91505092915050565b600060208284031215610b3457600080fd5b6000610b4284828501610ae4565b91505092915050565b610b5481610c8c565b82525050565b6000610b67602683610c25565b9150610b7282610cf7565b604082019050919050565b6000610b8a602083610c25565b9150610b9582610d46565b602082019050919050565b610ba981610cbe565b82525050565b6000602082019050610bc46000830184610b4b565b92915050565b60006020820190508181036000830152610be381610b5a565b9050919050565b60006020820190508181036000830152610c0381610b7d565b9050919050565b6000602082019050610c1f6000830184610ba0565b92915050565b600082825260208201905092915050565b6000610c4182610cbe565b9150610c4c83610cbe565b9250827fffffffffffffffffffffffffffffffffffffffffffffffffffffffffffffffff03821115610c8157610c80610cc8565b5b828201905092915050565b6000610c9782610c9e565b9050919050565b600073ffffffffffffffffffffffffffffffffffffffff82169050919050565b6000819050919050565b7f4e487b7100000000000000000000000000000000000000000000000000000000600052601160045260246000fd5b7f4f776e61626c653a206e6577206f776e657220697320746865207a65726f206160008201527f6464726573730000000000000000000000000000000000000000000000000000602082015250565b7f4f776e61626c653a2063616c6c6572206973206e6f7420746865206f776e6572600082015250565b610d7881610c8c565b8114610d8357600080fd5b50565b610d8f81610cbe565b8114610d9a57600080fd5b5056fea26469706673582212201a7b85d2b495ba6934716573baeb0e4b9c2429cf07fa7bd511bdea653470601764736f6c63430008040033",
  "linkReferences": {},
  "deployedLinkReferences": {}
}