{
  "_format": "hh-sol-artifact-1",
  "contractName": "Governance",
  "sourceName": "contracts/Governance.sol",
  "abi": [
    {
      "inputs": [
        {
          "internalType": "address[]",
          "name": "_validators",
          "type": "address[]"
        }
      ],
      "stateMutability": "nonpayable",
      "type": "constructor"
    },
    {
      "anonymous": false,
      "inputs": [
        {
          "indexed": true,
          "internalType": "address",
          "name": "previousOwner",
          "type": "address"
        },
        {
          "indexed": true,
          "internalType": "address",
          "name": "newOwner",
          "type": "address"
        }
      ],
      "name": "OwnershipTransferred",
      "type": "event"
    },
    {
      "anonymous": false,
      "inputs": [
        {
          "indexed": true,
          "internalType": "address",
          "name": "validator",
          "type": "address"
        }
      ],
      "name": "ValidatorRegistered",
      "type": "event"
    },
    {
      "anonymous": false,
      "inputs": [
        {
          "indexed": true,
          "internalType": "address",
          "name": "validator",
          "type": "address"
        }
      ],
      "name": "ValidatorUnRegistered",
      "type": "event"
    },
    {
      "anonymous": false,
      "inputs": [
        {
          "indexed": true,
          "internalType": "address[]",
          "name": "validators",
          "type": "address[]"
        }
      ],
      "name": "ValidatorsInitialized",
      "type": "event"
    },
    {
      "inputs": [
        {
          "internalType": "address",
          "name": "_validator",
          "type": "address"
        }
      ],
      "name": "hasAccess",
      "outputs": [
        {
          "internalType": "bool",
          "name": "",
          "type": "bool"
        }
      ],
      "stateMutability": "view",
      "type": "function"
    },
    {
      "inputs": [
        {
          "internalType": "address",
          "name": "owner",
          "type": "address"
        }
      ],
      "name": "nonces",
      "outputs": [
        {
          "internalType": "uint256",
          "name": "",
          "type": "uint256"
        }
      ],
      "stateMutability": "view",
      "type": "function"
    },
    {
      "inputs": [],
      "name": "owner",
      "outputs": [
        {
          "internalType": "address",
          "name": "",
          "type": "address"
        }
      ],
      "stateMutability": "view",
      "type": "function"
    },
    {
      "inputs": [
        {
          "internalType": "address",
          "name": "_validator",
          "type": "address"
        }
      ],
      "name": "registerValidator",
      "outputs": [],
      "stateMutability": "nonpayable",
      "type": "function"
    },
    {
      "inputs": [],
      "name": "renounceOwnership",
      "outputs": [],
      "stateMutability": "nonpayable",
      "type": "function"
    },
    {
      "inputs": [
        {
          "internalType": "address",
          "name": "newOwner",
          "type": "address"
        }
      ],
      "name": "transferOwnership",
      "outputs": [],
      "stateMutability": "nonpayable",
      "type": "function"
    },
    {
      "inputs": [
        {
          "internalType": "address",
          "name": "_validator",
          "type": "address"
        }
      ],
      "name": "unRegisterValidator",
      "outputs": [],
      "stateMutability": "nonpayable",
      "type": "function"
    },
    {
      "inputs": [
        {
          "internalType": "address",
          "name": "_receiver",
          "type": "address"
        },
        {
          "internalType": "uint256",
          "name": "_amount",
          "type": "uint256"
        },
        {
          "internalType": "address payable",
          "name": "_token",
          "type": "address"
        },
        {
          "internalType": "bytes[]",
          "name": "_validatorsSignatures",
          "type": "bytes[]"
        }
      ],
      "name": "validateAllowanceSignatures",
      "outputs": [
        {
          "internalType": "address[]",
          "name": "_validators",
          "type": "address[]"
        }
      ],
      "stateMutability": "nonpayable",
      "type": "function"
    }
  ],
  "bytecode": "0x60806040523480156200001157600080fd5b5060405162002ba738038062002ba783398181016040528101906200003791906200066c565b620000576200004b620004e460201b60201c565b620004ec60201b60201c565b6200008b7f4f2dd1e5f2545e0530714faa941867a50d214b688274ed3b8723e049468f938360001b620005b060201b60201c565b620000bf7fa038283fda3e1b6e6df7ccb2dc7d82d963c0e7e31cbc66f99fda634c5c31d78f60001b620005b060201b60201c565b620000f37f1d83bab401f89628e2dde9ec56d39b6f2aa93b2538780781d0581ce9b63d369760001b620005b060201b60201c565b7f8b73c3c69bb8fe3d512ecc4cf759cc79239f7b179b0ffacaa9a75d522b39400f6040518060400160405280600a81526020017f476f7665726e616e636500000000000000000000000000000000000000000000815250805190602001206040518060400160405280600181526020017f3100000000000000000000000000000000000000000000000000000000000000815250805190602001204630604051602001620001a695949392919062000792565b60405160208183030381529060405280519060200120600281905550620001f67fa77c7032d88e0244cf5bb64b1a045a672b9e9e57d6332fa16af210ec9f5ffb4860001b620005b060201b60201c565b6200022a7f6caf41d1e34123d5064f78654a1ab84e8d247f7c1a2c48dcd805baaa72c47ebc60001b620005b060201b60201c565b60005b81518110156200034e576200026b7fb4ae3e8f3132263438f1d6b9e7edaba4a2b4b38a033f268fb5dd02b9f8af2cef60001b620005b060201b60201c565b6200029f7f25e9caa7cf2af5bb64cfb705f8d3bb22c2b9c5dc4561027b82512bb85759046b60001b620005b060201b60201c565b600160036000848481518110620002df577f4e487b7100000000000000000000000000000000000000000000000000000000600052603260045260246000fd5b602002602001015173ffffffffffffffffffffffffffffffffffffffff1673ffffffffffffffffffffffffffffffffffffffff16815260200190815260200160002060006101000a81548160ff02191690831515021790555080806200034590620008f8565b9150506200022d565b50620003837fd1b35e60ee8f3f1c809f608c9faf6d95345733d3ef3289e7bd8c1868922782df60001b620005b060201b60201c565b620003b77f77c06955f17db4c9cfd0e5f2e809572a48fccb9831a558ae5e6355b15618672a60001b620005b060201b60201c565b600081511115620004a857620003f67f3f86bc705160b41c19ebff63116f37372ddc2688c49a48c9267e8e0bcaad7c5c60001b620005b060201b60201c565b6200042a7f5215061150cc5c4b6f8669fe2fa5f67fa296978a66ce11fd1d89661834d1667a60001b620005b060201b60201c565b6200045e7f9e4dffc324425aad5dcb553873e8e5c450378185fc1b92034dc5c502042e435760001b620005b060201b60201c565b806040516200046e919062000779565b60405180910390207f820f68b9d060f5d911b3243881ada086c3768ea90e97a10f7f5023d84b94d95260405160405180910390a2620004dd565b620004dc7ff50b69ba8a62223e9ea5fe9da96678c50d4e4189b21fe367857c52dede22eb4260001b620005b060201b60201c565b5b50620009cf565b600033905090565b60008060009054906101000a900473ffffffffffffffffffffffffffffffffffffffff169050816000806101000a81548173ffffffffffffffffffffffffffffffffffffffff021916908373ffffffffffffffffffffffffffffffffffffffff1602179055508173ffffffffffffffffffffffffffffffffffffffff168173ffffffffffffffffffffffffffffffffffffffff167f8be0079c531659141344cd1fd0a4f28419497f9722a3daafe3b4186f6b6457e060405160405180910390a35050565b50565b6000620005ca620005c48462000818565b620007ef565b90508083825260208201905082856020860282011115620005ea57600080fd5b60005b858110156200061e578162000603888262000628565b845260208401935060208301925050600181019050620005ed565b5050509392505050565b6000815190506200063981620009b5565b92915050565b600082601f8301126200065157600080fd5b815162000663848260208601620005b3565b91505092915050565b6000602082840312156200067f57600080fd5b600082015167ffffffffffffffff8111156200069a57600080fd5b620006a8848285016200063f565b91505092915050565b6000620006bf8383620006dc565b60208301905092915050565b620006d6816200087a565b82525050565b620006e7816200087a565b82525050565b6000620006fa8262000857565b6200070681856200086f565b9350620007138362000847565b8060005b838110156200074a5781516200072e8882620006b1565b97506200073b8362000862565b92505060018101905062000717565b5085935050505092915050565b62000762816200088e565b82525050565b6200077381620008b8565b82525050565b6000620007878284620006ed565b915081905092915050565b600060a082019050620007a9600083018862000757565b620007b8602083018762000757565b620007c7604083018662000757565b620007d6606083018562000768565b620007e56080830184620006cb565b9695505050505050565b6000620007fb6200080e565b9050620008098282620008c2565b919050565b6000604051905090565b600067ffffffffffffffff82111562000836576200083562000975565b5b602082029050602081019050919050565b6000819050602082019050919050565b600081519050919050565b6000602082019050919050565b600081905092915050565b6000620008878262000898565b9050919050565b6000819050919050565b600073ffffffffffffffffffffffffffffffffffffffff82169050919050565b6000819050919050565b620008cd82620009a4565b810181811067ffffffffffffffff82111715620008ef57620008ee62000975565b5b80604052505050565b60006200090582620008b8565b91507fffffffffffffffffffffffffffffffffffffffffffffffffffffffffffffffff8214156200093b576200093a62000946565b5b600182019050919050565b7f4e487b7100000000000000000000000000000000000000000000000000000000600052601160045260246000fd5b7f4e487b7100000000000000000000000000000000000000000000000000000000600052604160045260246000fd5b6000601f19601f8301169050919050565b620009c0816200087a565b8114620009cc57600080fd5b50565b6121c880620009df6000396000f3fe608060405234801561001057600080fd5b50600436106100885760003560e01c80638da5cb5b1161005b5780638da5cb5b1461011357806395a078e8146101315780639fca516914610161578063f2fde38b1461017d57610088565b80632d763f5a1461008d578063715018a6146100a95780637ecebe00146100b3578063856fe16f146100e3575b600080fd5b6100a760048036038101906100a2919061181f565b610199565b005b6100b161038f565b005b6100cd60048036038101906100c8919061181f565b610417565b6040516100da9190611cd8565b60405180910390f35b6100fd60048036038101906100f89190611848565b6104eb565b60405161010a9190611b23565b60405180910390f35b61011b610972565b6040516101289190611b08565b60405180910390f35b61014b6004803603810190610146919061181f565b61099b565b6040516101589190611b45565b60405180910390f35b61017b6004803603810190610176919061181f565b610a75565b005b6101976004803603810190610192919061181f565b610c6b565b005b6101a1610d63565b73ffffffffffffffffffffffffffffffffffffffff166101bf610972565b73ffffffffffffffffffffffffffffffffffffffff1614610215576040517f08c379a000000000000000000000000000000000000000000000000000000000815260040161020c90611cb8565b60405180910390fd5b6102417fba18ee82230e72fbdc1d910fe25119dcdaa7f857858f2e752985e36d352933cf60001b610d6b565b61026d7fb6ab03036f81509fcfbea32aa9d76e46139ea59c9482fa588d88c6f2830452f160001b610d6b565b6102997f5710004f99084a8f6afc5bdf48dddf65953e7c1b1a30b77da39c5665d13fa13060001b610d6b565b6000600360008373ffffffffffffffffffffffffffffffffffffffff1673ffffffffffffffffffffffffffffffffffffffff16815260200190815260200160002060006101000a81548160ff02191690831515021790555061031d7f8699c4655f8c35b88b93533b19cd0c4e40a377afd7d6335528f2c4450dac673e60001b610d6b565b6103497f7660fe710a699d7c8720a1c38b6fd584f0e3296dfebc759728f72d09328fafbf60001b610d6b565b8073ffffffffffffffffffffffffffffffffffffffff167f05abd4719d2e9b1e5b0f772b7a3b26c9bc48ebaf9a66945092fe09602619aa6b60405160405180910390a250565b610397610d63565b73ffffffffffffffffffffffffffffffffffffffff166103b5610972565b73ffffffffffffffffffffffffffffffffffffffff161461040b576040517f08c379a000000000000000000000000000000000000000000000000000000000815260040161040290611cb8565b60405180910390fd5b6104156000610d6e565b565b60006104457f53491ac69e7987164e64c434a2ff4de9a262a80b92cd729d336005330711c95c60001b610d6b565b6104717f89627bdbbceffc69de621d6b2f01139e619580f858280ec0347ae2183652ac5c60001b610d6b565b61049d7f069a6c6cecc20d75f3c001467b37bc02aeab715e377ecebc199e59e36dd9323260001b610d6b565b6104e4600160008473ffffffffffffffffffffffffffffffffffffffff1673ffffffffffffffffffffffffffffffffffffffff168152602001908152602001600020610e32565b9050919050565b60606105197f43e5a9dc5e049ad9b65a3597d6e7f84759d93d89cd626c9aa071ac3b80ad823960001b610d6b565b6105457fba25f2c3d147dfb8ada5fba8806f6787e24b1b159d994bce961e1f2c35ff6dfe60001b610d6b565b6105717f2c5590c70e201272e3c9cc023c8f283e9c2bf4ccbd03de45512ba838ccf4768360001b610d6b565b815167ffffffffffffffff8111156105b2577f4e487b7100000000000000000000000000000000000000000000000000000000600052604160045260246000fd5b6040519080825280602002602001820160405280156105e05781602001602082028036833780820191505090505b50905061060f7f712a3378415ae4f8d76b90473ec0d859a21e295fc66011476afbfeb6c0f0c39060001b610d6b565b61063b7f104b58e36fc2c8f28ba46bd9e2534d9a18f11b718c8aa85d71f0463e67de2ae260001b610d6b565b60005b8251811015610969576106737f89d7f027b731f978afe251077315eff5cf0fdff7d9752a955d0916e13eaebdb560001b610d6b565b61069f7fa075d2a0e645a2a2f47299b8865af6813fa4bfef16f2b84380b02d2d32f4a75d60001b610d6b565b60008382815181106106da577f4e487b7100000000000000000000000000000000000000000000000000000000600052603260045260246000fd5b602002602001015190506107107ffe7490ae91505392b49964a1ba5e0bebbab787d1bd41ee124155ddd876d6344860001b610d6b565b61073c7f611107396adc469f7dee935966e0ebaa70a7fa8d199969e3f92e6b0c35d3afbf60001b610d6b565b600061074a88888885610e40565b90506107787f17929189601bccb65ec9994dc3a7782815e25d2a5457ba788f9a554be5b54e0560001b610d6b565b6107a47f9d2afac140404f229d9ed0f73a35efd551e99bbf0e6a341d9a6a912d3abcbf3560001b610d6b565b6107d07fab256a0395c71b0c39a8ba3769f750d0783acfbafd59410a44c67f92273460b060001b610d6b565b600360008273ffffffffffffffffffffffffffffffffffffffff1673ffffffffffffffffffffffffffffffffffffffff16815260200190815260200160002060009054906101000a900460ff1661085c576040517f08c379a000000000000000000000000000000000000000000000000000000000815260040161085390611c58565b60405180910390fd5b6108887f2cdf82ed2d1ad1adb1b8537da561aeb216dd4a1c2c1407007f15eed34accdff560001b610d6b565b6108b47f4c0669adb1811b00d267b11a442ee2c788415d07d509cbd4438e47693b64c9a760001b610d6b565b6108e07f71f8f07c7b2b99b392ad994156272816ca7cb865661fba0b025217a449b135d760001b610d6b565b8084848151811061091a577f4e487b7100000000000000000000000000000000000000000000000000000000600052603260045260246000fd5b602002602001019073ffffffffffffffffffffffffffffffffffffffff16908173ffffffffffffffffffffffffffffffffffffffff16815250505050808061096190611ed1565b91505061063e565b50949350505050565b60008060009054906101000a900473ffffffffffffffffffffffffffffffffffffffff16905090565b60006109c97fadaf5bad8e2d21d541370563e0e8e9637d12765c5112f9c4763bedb4968745b760001b610d6b565b6109f57f8f1bde4fa064de8e45ceda2d43c0ce139405925016d277dc6f4073c58a6c88f860001b610d6b565b610a217fb0bd9f76fa312d5b29d7a40f1225633d2616d80dba3433aa3251503572b197ca60001b610d6b565b600360008373ffffffffffffffffffffffffffffffffffffffff1673ffffffffffffffffffffffffffffffffffffffff16815260200190815260200160002060009054906101000a900460ff169050919050565b610a7d610d63565b73ffffffffffffffffffffffffffffffffffffffff16610a9b610972565b73ffffffffffffffffffffffffffffffffffffffff1614610af1576040517f08c379a0000000000000000000000000000000000000000000000000000000008152600401610ae890611cb8565b60405180910390fd5b610b1d7fae6e1139e8abd0f7114228789124674b48b9dd7bfd3b91b7d73653ee21613ad060001b610d6b565b610b497ff1bea15bb1ce2590e6c3a6b00a414ccc0ab207c10fb1afc6705f96ceee0c4cb660001b610d6b565b610b757fd7d01694bf3de467114db890239e04da72765f3afa22ab7ce7bb4b184441593060001b610d6b565b6001600360008373ffffffffffffffffffffffffffffffffffffffff1673ffffffffffffffffffffffffffffffffffffffff16815260200190815260200160002060006101000a81548160ff021916908315150217905550610bf97f8d0e58a2d4d818f6b69ead42ca287915b0871459128c2f43b4fa6189722d848360001b610d6b565b610c257f216b60fd70e58d5240d9c173e3b9e4aa0804a2cbb5328a6eb4f16daccae10d7c60001b610d6b565b8073ffffffffffffffffffffffffffffffffffffffff167fd09501348473474a20c772c79c653e1fd7e8b437e418fe235d277d2c8885325160405160405180910390a250565b610c73610d63565b73ffffffffffffffffffffffffffffffffffffffff16610c91610972565b73ffffffffffffffffffffffffffffffffffffffff1614610ce7576040517f08c379a0000000000000000000000000000000000000000000000000000000008152600401610cde90611cb8565b60405180910390fd5b600073ffffffffffffffffffffffffffffffffffffffff168173ffffffffffffffffffffffffffffffffffffffff161415610d57576040517f08c379a0000000000000000000000000000000000000000000000000000000008152600401610d4e90611c38565b60405180910390fd5b610d6081610d6e565b50565b600033905090565b50565b60008060009054906101000a900473ffffffffffffffffffffffffffffffffffffffff169050816000806101000a81548173ffffffffffffffffffffffffffffffffffffffff021916908373ffffffffffffffffffffffffffffffffffffffff1602179055508173ffffffffffffffffffffffffffffffffffffffff168173ffffffffffffffffffffffffffffffffffffffff167f8be0079c531659141344cd1fd0a4f28419497f9722a3daafe3b4186f6b6457e060405160405180910390a35050565b600081600001549050919050565b6000610e6e7f147b008dab76ba6bce788cabfe6469e11e9ed1abdfcb046da87619cbcffe446a60001b610d6b565b610e9a7fab7ef16097ed0c6669be162367b4b459046c80a04a21a7e200992446320d9e7560001b610d6b565b610ec67f06dcd7e011ed7bca46252f1e02ac2c61aa97c3ed935c28dc10338fc74811bbfe60001b610d6b565b60006002547fd6b2ab5ded2d8c26ac9353dec41220d4e7abf3a3253d57b02c5f6d5ec3480d38878787610ef88b610fb8565b604051602001610f0c959493929190611b60565b60405160208183030381529060405280519060200120604051602001610f33929190611ad1565b604051602081830303815290604052805190602001209050610f777f1e7a2f8df5b44a48d9660dd3f405e43f2bc91aa13591accb4637412a22df4db360001b610d6b565b610fa37f102c4a8e0d824f6aab3efe7d630d18424d8d3342d85b25482c6fda49e791ba6f60001b610d6b565b610fad818461114b565b915050949350505050565b6000610fe67f1e32fca8fbab51cae7de5ff1dc9c050834d530ce9b5382b588f0239d77e63d5c60001b610d6b565b6110127f9f551bb34de2ecd63591a972868fb4980d942a4a34c00bfd19c39cc12a1dfe3a60001b610d6b565b61103e7f55430801afa3200d0b4a5d89f8f6cf3080743748838448450c77e4b2017fc91e60001b610d6b565b6000600160008473ffffffffffffffffffffffffffffffffffffffff1673ffffffffffffffffffffffffffffffffffffffff16815260200190815260200160002090506110ad7fa831364e807fbd0a21105a002268eb2b7794fa7f1271a387203884b21b49979c60001b610d6b565b6110d97f10648d22ec6e2b4189b8f38d78c72c99620922b4fcfa87498b3f3640519a0d6760001b610d6b565b6110e281610e32565b91506111107ff971a68e32629a8e829ed39487d27a9af9fb2862f9817cb62840f3c302dc0ffc60001b610d6b565b61113c7f27cf43d0ab69261d28132468aaa2ee348588fae5e42d6745d8088996e799962560001b610d6b565b61114581611172565b50919050565b600080600061115a8585611188565b915091506111678161120b565b819250505092915050565b6001816000016000828254019250508190555050565b6000806041835114156111ca5760008060006020860151925060408601519150606086015160001a90506111be8782858561155c565b94509450505050611204565b6040835114156111fb5760008060208501519150604085015190506111f0868383611669565b935093505050611204565b60006002915091505b9250929050565b60006004811115611245577f4e487b7100000000000000000000000000000000000000000000000000000000600052602160045260246000fd5b81600481111561127e577f4e487b7100000000000000000000000000000000000000000000000000000000600052602160045260246000fd5b141561128957611559565b600160048111156112c3577f4e487b7100000000000000000000000000000000000000000000000000000000600052602160045260246000fd5b8160048111156112fc577f4e487b7100000000000000000000000000000000000000000000000000000000600052602160045260246000fd5b141561133d576040517f08c379a000000000000000000000000000000000000000000000000000000000815260040161133490611bf8565b60405180910390fd5b60026004811115611377577f4e487b7100000000000000000000000000000000000000000000000000000000600052602160045260246000fd5b8160048111156113b0577f4e487b7100000000000000000000000000000000000000000000000000000000600052602160045260246000fd5b14156113f1576040517f08c379a00000000000000000000000000000000000000000000000000000000081526004016113e890611c18565b60405180910390fd5b6003600481111561142b577f4e487b7100000000000000000000000000000000000000000000000000000000600052602160045260246000fd5b816004811115611464577f4e487b7100000000000000000000000000000000000000000000000000000000600052602160045260246000fd5b14156114a5576040517f08c379a000000000000000000000000000000000000000000000000000000000815260040161149c90611c78565b60405180910390fd5b6004808111156114de577f4e487b7100000000000000000000000000000000000000000000000000000000600052602160045260246000fd5b816004811115611517577f4e487b7100000000000000000000000000000000000000000000000000000000600052602160045260246000fd5b1415611558576040517f08c379a000000000000000000000000000000000000000000000000000000000815260040161154f90611c98565b60405180910390fd5b5b50565b6000807f7fffffffffffffffffffffffffffffff5d576e7357a4501ddfe92f46681b20a08360001c1115611597576000600391509150611660565b601b8560ff16141580156115af5750601c8560ff1614155b156115c1576000600491509150611660565b6000600187878787604051600081526020016040526040516115e69493929190611bb3565b6020604051602081039080840390855afa158015611608573d6000803e3d6000fd5b505050602060405103519050600073ffffffffffffffffffffffffffffffffffffffff168173ffffffffffffffffffffffffffffffffffffffff16141561165757600060019250925050611660565b80600092509250505b94509492505050565b60008060007f7fffffffffffffffffffffffffffffffffffffffffffffffffffffffffffffff60001b841690506000601b60ff8660001c901c6116ac9190611dca565b90506116ba8782888561155c565b935093505050935093915050565b60006116db6116d684611d18565b611cf3565b905080838252602082019050828560208602820111156116fa57600080fd5b60005b8581101561174457813567ffffffffffffffff81111561171c57600080fd5b80860161172989826117e0565b855260208501945060208401935050506001810190506116fd565b5050509392505050565b600061176161175c84611d44565b611cf3565b90508281526020810184848401111561177957600080fd5b611784848285611e91565b509392505050565b60008135905061179b8161214d565b92915050565b6000813590506117b081612164565b92915050565b600082601f8301126117c757600080fd5b81356117d78482602086016116c8565b91505092915050565b600082601f8301126117f157600080fd5b813561180184826020860161174e565b91505092915050565b6000813590506118198161217b565b92915050565b60006020828403121561183157600080fd5b600061183f8482850161178c565b91505092915050565b6000806000806080858703121561185e57600080fd5b600061186c8782880161178c565b945050602061187d8782880161180a565b935050604061188e878288016117a1565b925050606085013567ffffffffffffffff8111156118ab57600080fd5b6118b7878288016117b6565b91505092959194509250565b60006118cf83836118ea565b60208301905092915050565b6118e481611e32565b82525050565b6118f381611e20565b82525050565b61190281611e20565b82525050565b600061191382611d85565b61191d8185611d9d565b935061192883611d75565b8060005b8381101561195957815161194088826118c3565b975061194b83611d90565b92505060018101905061192c565b5085935050505092915050565b61196f81611e44565b82525050565b61197e81611e50565b82525050565b61199561199082611e50565b611f1a565b82525050565b60006119a8601883611dae565b91506119b382611f93565b602082019050919050565b60006119cb601f83611dae565b91506119d682611fbc565b602082019050919050565b60006119ee602683611dae565b91506119f982611fe5565b604082019050919050565b6000611a11602083611dae565b9150611a1c82612034565b602082019050919050565b6000611a34600283611dbf565b9150611a3f8261205d565b600282019050919050565b6000611a57602283611dae565b9150611a6282612086565b604082019050919050565b6000611a7a602283611dae565b9150611a85826120d5565b604082019050919050565b6000611a9d602083611dae565b9150611aa882612124565b602082019050919050565b611abc81611e7a565b82525050565b611acb81611e84565b82525050565b6000611adc82611a27565b9150611ae88285611984565b602082019150611af88284611984565b6020820191508190509392505050565b6000602082019050611b1d60008301846118f9565b92915050565b60006020820190508181036000830152611b3d8184611908565b905092915050565b6000602082019050611b5a6000830184611966565b92915050565b600060a082019050611b756000830188611975565b611b8260208301876118f9565b611b8f6040830186611ab3565b611b9c60608301856118db565b611ba96080830184611ab3565b9695505050505050565b6000608082019050611bc86000830187611975565b611bd56020830186611ac2565b611be26040830185611975565b611bef6060830184611975565b95945050505050565b60006020820190508181036000830152611c118161199b565b9050919050565b60006020820190508181036000830152611c31816119be565b9050919050565b60006020820190508181036000830152611c51816119e1565b9050919050565b60006020820190508181036000830152611c7181611a04565b9050919050565b60006020820190508181036000830152611c9181611a4a565b9050919050565b60006020820190508181036000830152611cb181611a6d565b9050919050565b60006020820190508181036000830152611cd181611a90565b9050919050565b6000602082019050611ced6000830184611ab3565b92915050565b6000611cfd611d0e565b9050611d098282611ea0565b919050565b6000604051905090565b600067ffffffffffffffff821115611d3357611d32611f53565b5b602082029050602081019050919050565b600067ffffffffffffffff821115611d5f57611d5e611f53565b5b611d6882611f82565b9050602081019050919050565b6000819050602082019050919050565b600081519050919050565b6000602082019050919050565b600082825260208201905092915050565b600082825260208201905092915050565b600081905092915050565b6000611dd582611e7a565b9150611de083611e7a565b9250827fffffffffffffffffffffffffffffffffffffffffffffffffffffffffffffffff03821115611e1557611e14611f24565b5b828201905092915050565b6000611e2b82611e5a565b9050919050565b6000611e3d82611e5a565b9050919050565b60008115159050919050565b6000819050919050565b600073ffffffffffffffffffffffffffffffffffffffff82169050919050565b6000819050919050565b600060ff82169050919050565b82818337600083830152505050565b611ea982611f82565b810181811067ffffffffffffffff82111715611ec857611ec7611f53565b5b80604052505050565b6000611edc82611e7a565b91507fffffffffffffffffffffffffffffffffffffffffffffffffffffffffffffffff821415611f0f57611f0e611f24565b5b600182019050919050565b6000819050919050565b7f4e487b7100000000000000000000000000000000000000000000000000000000600052601160045260246000fd5b7f4e487b7100000000000000000000000000000000000000000000000000000000600052604160045260246000fd5b6000601f19601f8301169050919050565b7f45434453413a20696e76616c6964207369676e61747572650000000000000000600082015250565b7f45434453413a20696e76616c6964207369676e6174757265206c656e67746800600082015250565b7f4f776e61626c653a206e6577206f776e657220697320746865207a65726f206160008201527f6464726573730000000000000000000000000000000000000000000000000000602082015250565b7f556e7265636f676e697a65642076616c696461746f72207369676e6174757265600082015250565b7f1901000000000000000000000000000000000000000000000000000000000000600082015250565b7f45434453413a20696e76616c6964207369676e6174757265202773272076616c60008201527f7565000000000000000000000000000000000000000000000000000000000000602082015250565b7f45434453413a20696e76616c6964207369676e6174757265202776272076616c60008201527f7565000000000000000000000000000000000000000000000000000000000000602082015250565b7f4f776e61626c653a2063616c6c6572206973206e6f7420746865206f776e6572600082015250565b61215681611e20565b811461216157600080fd5b50565b61216d81611e32565b811461217857600080fd5b50565b61218481611e7a565b811461218f57600080fd5b5056fea26469706673582212209c11cf554a346a43e4b45e4cd48215c389ea4231733f9372d5e6501b58c69f7064736f6c63430008040033",
  "linkReferences": {},
  "deployedLinkReferences": {}
}