{
  "_format": "hh-sol-artifact-1",
  "contractName": "Registry",
  "sourceName": "contracts/Registry.sol",
  "abi": [
    {
      "inputs": [
        {
          "internalType": "address",
          "name": "_governance",
          "type": "address"
        }
      ],
      "stateMutability": "nonpayable",
      "type": "constructor"
    },
    {
      "anonymous": false,
      "inputs": [
        {
          "indexed": true,
          "internalType": "address",
          "name": "previousOwner",
          "type": "address"
        },
        {
          "indexed": true,
          "internalType": "address",
          "name": "newOwner",
          "type": "address"
        }
      ],
      "name": "OwnershipTransferred",
      "type": "event"
    },
    {
      "anonymous": false,
      "inputs": [
        {
          "indexed": true,
          "internalType": "address",
          "name": "sourceToken",
          "type": "address"
        },
        {
          "indexed": true,
          "internalType": "address",
          "name": "targetToken",
          "type": "address"
        },
        {
          "indexed": false,
          "internalType": "uint16",
          "name": "sourceChainId",
          "type": "uint16"
        },
        {
          "indexed": false,
          "internalType": "uint16",
          "name": "targetChainId",
          "type": "uint16"
        }
      ],
      "name": "TokenConnectionRegistered",
      "type": "event"
    },
    {
      "inputs": [],
      "name": "governance",
      "outputs": [
        {
          "internalType": "contract Governance",
          "name": "",
          "type": "address"
        }
      ],
      "stateMutability": "view",
      "type": "function"
    },
    {
      "inputs": [
        {
          "internalType": "address",
          "name": "_targetToken",
          "type": "address"
        },
        {
          "internalType": "uint16",
          "name": "_sourceChainId",
          "type": "uint16"
        }
      ],
      "name": "lookupSourceTokenAddress",
      "outputs": [
        {
          "internalType": "address",
          "name": "",
          "type": "address"
        }
      ],
      "stateMutability": "view",
      "type": "function"
    },
    {
      "inputs": [
        {
          "internalType": "address",
          "name": "_sourceToken",
          "type": "address"
        },
        {
          "internalType": "uint16",
          "name": "_targetChainId",
          "type": "uint16"
        }
      ],
      "name": "lookupTargetTokenAddress",
      "outputs": [
        {
          "internalType": "address",
          "name": "",
          "type": "address"
        }
      ],
      "stateMutability": "view",
      "type": "function"
    },
    {
      "inputs": [],
      "name": "owner",
      "outputs": [
        {
          "internalType": "address",
          "name": "",
          "type": "address"
        }
      ],
      "stateMutability": "view",
      "type": "function"
    },
    {
      "inputs": [
        {
          "internalType": "address",
          "name": "_sourceToken",
          "type": "address"
        },
        {
          "internalType": "uint16",
          "name": "_targetChainId",
          "type": "uint16"
        },
        {
          "internalType": "address",
          "name": "_targetToken",
          "type": "address"
        }
      ],
      "name": "registerTargetTokenAddress",
      "outputs": [],
      "stateMutability": "nonpayable",
      "type": "function"
    },
    {
      "inputs": [],
      "name": "renounceOwnership",
      "outputs": [],
      "stateMutability": "nonpayable",
      "type": "function"
    },
    {
      "inputs": [
        {
          "internalType": "address",
          "name": "_governance",
          "type": "address"
        }
      ],
      "name": "setGovernance",
      "outputs": [],
      "stateMutability": "nonpayable",
      "type": "function"
    },
    {
      "inputs": [
        {
          "internalType": "address",
          "name": "newOwner",
          "type": "address"
        }
      ],
      "name": "transferOwnership",
      "outputs": [],
      "stateMutability": "nonpayable",
      "type": "function"
    }
  ],
  "bytecode": "0x60806040523480156200001157600080fd5b506040516200107b3803806200107b83398181016040528101906200003791906200019f565b620000576200004b620000bc60201b60201c565b620000c460201b60201c565b46600160146101000a81548161ffff021916908361ffff16021790555080600160006101000a81548173ffffffffffffffffffffffffffffffffffffffff021916908373ffffffffffffffffffffffffffffffffffffffff1602179055505062000219565b600033905090565b60008060009054906101000a900473ffffffffffffffffffffffffffffffffffffffff169050816000806101000a81548173ffffffffffffffffffffffffffffffffffffffff021916908373ffffffffffffffffffffffffffffffffffffffff1602179055508173ffffffffffffffffffffffffffffffffffffffff168173ffffffffffffffffffffffffffffffffffffffff167f8be0079c531659141344cd1fd0a4f28419497f9722a3daafe3b4186f6b6457e060405160405180910390a35050565b6000815190506200019981620001ff565b92915050565b600060208284031215620001b257600080fd5b6000620001c28482850162000188565b91505092915050565b6000620001d882620001df565b9050919050565b600073ffffffffffffffffffffffffffffffffffffffff82169050919050565b6200020a81620001cb565b81146200021657600080fd5b50565b610e5280620002296000396000f3fe608060405234801561001057600080fd5b50600436106100885760003560e01c80638da5cb5b1161005b5780638da5cb5b14610101578063ab033ea91461011f578063b99ba4a41461013b578063f2fde38b1461016b57610088565b80635aa6e6751461008d5780635e28e87b146100ab57806360f95f97146100db578063715018a6146100f7575b600080fd5b610095610187565b6040516100a29190610b7f565b60405180910390f35b6100c560048036038101906100c091906109d4565b6101ad565b6040516100d29190610b64565b60405180910390f35b6100f560048036038101906100f09190610a10565b610230565b005b6100ff6105b4565b005b61010961063c565b6040516101169190610b64565b60405180910390f35b610139600480360381019061013491906109ab565b610665565b005b610155600480360381019061015091906109d4565b610725565b6040516101629190610b64565b60405180910390f35b610185600480360381019061018091906109ab565b6107a8565b005b600160009054906101000a900473ffffffffffffffffffffffffffffffffffffffff1681565b6000600360008473ffffffffffffffffffffffffffffffffffffffff1673ffffffffffffffffffffffffffffffffffffffff16815260200190815260200160002060008361ffff1661ffff16815260200190815260200160002060009054906101000a900473ffffffffffffffffffffffffffffffffffffffff16905092915050565b600160009054906101000a900473ffffffffffffffffffffffffffffffffffffffff1673ffffffffffffffffffffffffffffffffffffffff166395a078e8336040518263ffffffff1660e01b815260040161028b9190610b64565b60206040518083038186803b1580156102a357600080fd5b505afa1580156102b7573d6000803e3d6000fd5b505050506040513d601f19601f820116820180604052508101906102db9190610a5f565b61031a576040517f08c379a000000000000000000000000000000000000000000000000000000000815260040161031190610bfa565b60405180910390fd5b600073ffffffffffffffffffffffffffffffffffffffff168373ffffffffffffffffffffffffffffffffffffffff16141561038a576040517f08c379a000000000000000000000000000000000000000000000000000000000815260040161038190610c1a565b60405180910390fd5b600073ffffffffffffffffffffffffffffffffffffffff168173ffffffffffffffffffffffffffffffffffffffff1614156103fa576040517f08c379a00000000000000000000000000000000000000000000000000000000081526004016103f190610bba565b60405180910390fd5b80600260008573ffffffffffffffffffffffffffffffffffffffff1673ffffffffffffffffffffffffffffffffffffffff16815260200190815260200160002060008461ffff1661ffff16815260200190815260200160002060006101000a81548173ffffffffffffffffffffffffffffffffffffffff021916908373ffffffffffffffffffffffffffffffffffffffff16021790555082600360008373ffffffffffffffffffffffffffffffffffffffff1673ffffffffffffffffffffffffffffffffffffffff1681526020019081526020016000206000600160149054906101000a900461ffff1661ffff1661ffff16815260200190815260200160002060006101000a81548173ffffffffffffffffffffffffffffffffffffffff021916908373ffffffffffffffffffffffffffffffffffffffff1602179055508073ffffffffffffffffffffffffffffffffffffffff168373ffffffffffffffffffffffffffffffffffffffff167fdd8e0663fc9c0f5c166eee607f13e09d94a3d693cf782f112fe5af4d48c23860600160149054906101000a900461ffff16856040516105a7929190610c3a565b60405180910390a3505050565b6105bc6108a0565b73ffffffffffffffffffffffffffffffffffffffff166105da61063c565b73ffffffffffffffffffffffffffffffffffffffff1614610630576040517f08c379a000000000000000000000000000000000000000000000000000000000815260040161062790610bda565b60405180910390fd5b61063a60006108a8565b565b60008060009054906101000a900473ffffffffffffffffffffffffffffffffffffffff16905090565b61066d6108a0565b73ffffffffffffffffffffffffffffffffffffffff1661068b61063c565b73ffffffffffffffffffffffffffffffffffffffff16146106e1576040517f08c379a00000000000000000000000000000000000000000000000000000000081526004016106d890610bda565b60405180910390fd5b80600160006101000a81548173ffffffffffffffffffffffffffffffffffffffff021916908373ffffffffffffffffffffffffffffffffffffffff16021790555050565b6000600260008473ffffffffffffffffffffffffffffffffffffffff1673ffffffffffffffffffffffffffffffffffffffff16815260200190815260200160002060008361ffff1661ffff16815260200190815260200160002060009054906101000a900473ffffffffffffffffffffffffffffffffffffffff16905092915050565b6107b06108a0565b73ffffffffffffffffffffffffffffffffffffffff166107ce61063c565b73ffffffffffffffffffffffffffffffffffffffff1614610824576040517f08c379a000000000000000000000000000000000000000000000000000000000815260040161081b90610bda565b60405180910390fd5b600073ffffffffffffffffffffffffffffffffffffffff168173ffffffffffffffffffffffffffffffffffffffff161415610894576040517f08c379a000000000000000000000000000000000000000000000000000000000815260040161088b90610b9a565b60405180910390fd5b61089d816108a8565b50565b600033905090565b60008060009054906101000a900473ffffffffffffffffffffffffffffffffffffffff169050816000806101000a81548173ffffffffffffffffffffffffffffffffffffffff021916908373ffffffffffffffffffffffffffffffffffffffff1602179055508173ffffffffffffffffffffffffffffffffffffffff168173ffffffffffffffffffffffffffffffffffffffff167f8be0079c531659141344cd1fd0a4f28419497f9722a3daafe3b4186f6b6457e060405160405180910390a35050565b60008135905061097b81610dd7565b92915050565b60008151905061099081610dee565b92915050565b6000813590506109a581610e05565b92915050565b6000602082840312156109bd57600080fd5b60006109cb8482850161096c565b91505092915050565b600080604083850312156109e757600080fd5b60006109f58582860161096c565b9250506020610a0685828601610996565b9150509250929050565b600080600060608486031215610a2557600080fd5b6000610a338682870161096c565b9350506020610a4486828701610996565b9250506040610a558682870161096c565b9150509250925092565b600060208284031215610a7157600080fd5b6000610a7f84828501610981565b91505092915050565b610a9181610c74565b82525050565b610aa081610cc0565b82525050565b6000610ab3602683610c63565b9150610abe82610ce4565b604082019050919050565b6000610ad6601683610c63565b9150610ae182610d33565b602082019050919050565b6000610af9602083610c63565b9150610b0482610d5c565b602082019050919050565b6000610b1c601883610c63565b9150610b2782610d85565b602082019050919050565b6000610b3f601683610c63565b9150610b4a82610dae565b602082019050919050565b610b5e81610c92565b82525050565b6000602082019050610b796000830184610a88565b92915050565b6000602082019050610b946000830184610a97565b92915050565b60006020820190508181036000830152610bb381610aa6565b9050919050565b60006020820190508181036000830152610bd381610ac9565b9050919050565b60006020820190508181036000830152610bf381610aec565b9050919050565b60006020820190508181036000830152610c1381610b0f565b9050919050565b60006020820190508181036000830152610c3381610b32565b9050919050565b6000604082019050610c4f6000830185610b55565b610c5c6020830184610b55565b9392505050565b600082825260208201905092915050565b6000610c7f82610ca0565b9050919050565b60008115159050919050565b600061ffff82169050919050565b600073ffffffffffffffffffffffffffffffffffffffff82169050919050565b6000610ccb82610cd2565b9050919050565b6000610cdd82610ca0565b9050919050565b7f4f776e61626c653a206e6577206f776e657220697320746865207a65726f206160008201527f6464726573730000000000000000000000000000000000000000000000000000602082015250565b7f496e76616c696420746172676574206164647265737300000000000000000000600082015250565b7f4f776e61626c653a2063616c6c6572206973206e6f7420746865206f776e6572600082015250565b7f56616c696461746f72206e6f7420726567697374657265640000000000000000600082015250565b7f496e76616c696420736f75726365206164647265737300000000000000000000600082015250565b610de081610c74565b8114610deb57600080fd5b50565b610df781610c86565b8114610e0257600080fd5b50565b610e0e81610c92565b8114610e1957600080fd5b5056fea264697066735822122042f6bf2472d478c51ac6d0faf515ed75fab55ac893cf868247a5a048218a200264736f6c63430008040033",
  "linkReferences": {},
  "deployedLinkReferences": {}
}