{
  "_format": "hh-sol-artifact-1",
  "contractName": "WrappedTokenFactory",
  "sourceName": "contracts/WrappedTokenFactory.sol",
  "abi": [
    {
      "anonymous": false,
      "inputs": [
        {
          "indexed": true,
          "internalType": "address",
          "name": "previousOwner",
          "type": "address"
        },
        {
          "indexed": true,
          "internalType": "address",
          "name": "newOwner",
          "type": "address"
        }
      ],
      "name": "OwnershipTransferred",
      "type": "event"
    },
    {
      "anonymous": false,
      "inputs": [
        {
          "indexed": true,
          "internalType": "address",
          "name": "newTokenAddress",
          "type": "address"
        },
        {
          "indexed": false,
          "internalType": "string",
          "name": "name",
          "type": "string"
        },
        {
          "indexed": false,
          "internalType": "string",
          "name": "symbol",
          "type": "string"
        }
      ],
      "name": "TokenCreated",
      "type": "event"
    },
    {
      "inputs": [
        {
          "internalType": "string",
          "name": "_name",
          "type": "string"
        },
        {
          "internalType": "string",
          "name": "_symbol",
          "type": "string"
        }
      ],
      "name": "createToken",
      "outputs": [],
      "stateMutability": "nonpayable",
      "type": "function"
    },
    {
      "inputs": [
        {
          "internalType": "address",
          "name": "_token",
          "type": "address"
        }
      ],
      "name": "lookupTokenContract",
      "outputs": [
        {
          "internalType": "contract ERC20Token",
          "name": "",
          "type": "address"
        }
      ],
      "stateMutability": "view",
      "type": "function"
    },
    {
      "inputs": [],
      "name": "owner",
      "outputs": [
        {
          "internalType": "address",
          "name": "",
          "type": "address"
        }
      ],
      "stateMutability": "view",
      "type": "function"
    },
    {
      "inputs": [],
      "name": "renounceOwnership",
      "outputs": [],
      "stateMutability": "nonpayable",
      "type": "function"
    },
    {
      "inputs": [
        {
          "internalType": "address",
          "name": "newOwner",
          "type": "address"
        }
      ],
      "name": "transferOwnership",
      "outputs": [],
      "stateMutability": "nonpayable",
      "type": "function"
    }
  ],
  "bytecode": "0x608060405234801561001057600080fd5b5061002d61002261003260201b60201c565b61003a60201b60201c565b6100fe565b600033905090565b60008060009054906101000a900473ffffffffffffffffffffffffffffffffffffffff169050816000806101000a81548173ffffffffffffffffffffffffffffffffffffffff021916908373ffffffffffffffffffffffffffffffffffffffff1602179055508173ffffffffffffffffffffffffffffffffffffffff168173ffffffffffffffffffffffffffffffffffffffff167f8be0079c531659141344cd1fd0a4f28419497f9722a3daafe3b4186f6b6457e060405160405180910390a35050565b6142838061010d6000396000f3fe60806040523480156200001157600080fd5b50600436106200005e5760003560e01c80631050791c14620000635780632f2f2d561462000099578063715018a614620000b95780638da5cb5b14620000c5578063f2fde38b14620000e7575b600080fd5b6200008160048036038101906200007b9190620007f9565b62000107565b60405162000090919062000966565b60405180910390f35b620000b76004803603810190620000b1919062000825565b620001fa565b005b620000c3620004d5565b005b620000cf62000566565b604051620000de919062000949565b60405180910390f35b620001056004803603810190620000ff9190620007f9565b6200058f565b005b6000620001377f18cd38c34665713e1edb187f0984cfdfe0074d7282bcbe7ad02e2315a949b41d60001b62000693565b620001657f17448ec4a00e74f2a9d56c32fe86573fbc89f6349653d97e8ca1227e2035dfac60001b62000693565b620001937f668a38da19d1fc4640eb514ebedea052c4550e7865c5426348baeb920f8f007460001b62000693565b600160008373ffffffffffffffffffffffffffffffffffffffff1673ffffffffffffffffffffffffffffffffffffffff16815260200190815260200160002060009054906101000a900473ffffffffffffffffffffffffffffffffffffffff169050919050565b6200020462000696565b73ffffffffffffffffffffffffffffffffffffffff166200022462000566565b73ffffffffffffffffffffffffffffffffffffffff16146200027d576040517f08c379a0000000000000000000000000000000000000000000000000000000008152600401620002749062000a2b565b60405180910390fd5b620002ab7ff5b0f5f5cd0c5697a7088a9cd9521fdb5c549e67c086feab9c00c17d4670e78760001b62000693565b620002d97fcf00655a8f00e97420f047132700d98a4b1eb2e0931d2a533b6ce4cd4f808a0160001b62000693565b620003077fe3e3dc54a3177ab8a3457da57608672e25d889b72431ba6f27b02929bbf3a09d60001b62000693565b60008282336040516200031a9062000762565b6200032893929190620009be565b604051809103906000f08015801562000345573d6000803e3d6000fd5b509050620003767fe3d9e91508905651996ab653a86c0729a04551f69baf61ed743a3b4ff283268a60001b62000693565b620003a47fc4065a8fb05d49457d463d92bcfe9f38c35704bc9f6bdb3935b068a3b2faeaf160001b62000693565b80600160008373ffffffffffffffffffffffffffffffffffffffff1673ffffffffffffffffffffffffffffffffffffffff16815260200190815260200160002060006101000a81548173ffffffffffffffffffffffffffffffffffffffff021916908373ffffffffffffffffffffffffffffffffffffffff160217905550620004507fa113f93c3ad46f89096ea82acc10efb27dfdd914080eae4f7991891c12d3d7c360001b62000693565b6200047e7fb98ae075dc365c8b7fa86b9a0be574f6a77f521627146f3b2ff8594083badbbd60001b62000693565b8073ffffffffffffffffffffffffffffffffffffffff167fffc04f682c7b287e4b552dacd4b833d7c33dc0549cd6da84388408e4830c05628484604051620004c892919062000983565b60405180910390a2505050565b620004df62000696565b73ffffffffffffffffffffffffffffffffffffffff16620004ff62000566565b73ffffffffffffffffffffffffffffffffffffffff161462000558576040517f08c379a00000000000000000000000000000000000000000000000000000000081526004016200054f9062000a2b565b60405180910390fd5b6200056460006200069e565b565b60008060009054906101000a900473ffffffffffffffffffffffffffffffffffffffff16905090565b6200059962000696565b73ffffffffffffffffffffffffffffffffffffffff16620005b962000566565b73ffffffffffffffffffffffffffffffffffffffff161462000612576040517f08c379a0000000000000000000000000000000000000000000000000000000008152600401620006099062000a2b565b60405180910390fd5b600073ffffffffffffffffffffffffffffffffffffffff168173ffffffffffffffffffffffffffffffffffffffff16141562000685576040517f08c379a00000000000000000000000000000000000000000000000000000000081526004016200067c9062000a09565b60405180910390fd5b62000690816200069e565b50565b50565b600033905090565b60008060009054906101000a900473ffffffffffffffffffffffffffffffffffffffff169050816000806101000a81548173ffffffffffffffffffffffffffffffffffffffff021916908373ffffffffffffffffffffffffffffffffffffffff1602179055508173ffffffffffffffffffffffffffffffffffffffff168173ffffffffffffffffffffffffffffffffffffffff167f8be0079c531659141344cd1fd0a4f28419497f9722a3daafe3b4186f6b6457e060405160405180910390a35050565b6135dc8062000c7283390190565b600062000787620007818462000a76565b62000a4d565b905082815260208101848484011115620007a057600080fd5b620007ad84828562000b24565b509392505050565b600081359050620007c68162000c57565b92915050565b600082601f830112620007de57600080fd5b8135620007f084826020860162000770565b91505092915050565b6000602082840312156200080c57600080fd5b60006200081c84828501620007b5565b91505092915050565b600080604083850312156200083957600080fd5b600083013567ffffffffffffffff8111156200085457600080fd5b6200086285828601620007cc565b925050602083013567ffffffffffffffff8111156200088057600080fd5b6200088e85828601620007cc565b9150509250929050565b620008a38162000ac8565b82525050565b620008b48162000afc565b82525050565b6000620008c78262000aac565b620008d3818562000ab7565b9350620008e581856020860162000b33565b620008f08162000bce565b840191505092915050565b60006200090a60268362000ab7565b9150620009178262000bdf565b604082019050919050565b60006200093160208362000ab7565b91506200093e8262000c2e565b602082019050919050565b600060208201905062000960600083018462000898565b92915050565b60006020820190506200097d6000830184620008a9565b92915050565b600060408201905081810360008301526200099f8185620008ba565b90508181036020830152620009b58184620008ba565b90509392505050565b60006060820190508181036000830152620009da8186620008ba565b90508181036020830152620009f08185620008ba565b905062000a01604083018462000898565b949350505050565b6000602082019050818103600083015262000a2481620008fb565b9050919050565b6000602082019050818103600083015262000a468162000922565b9050919050565b600062000a5962000a6c565b905062000a67828262000b69565b919050565b6000604051905090565b600067ffffffffffffffff82111562000a945762000a9362000b9f565b5b62000a9f8262000bce565b9050602081019050919050565b600081519050919050565b600082825260208201905092915050565b600062000ad58262000adc565b9050919050565b600073ffffffffffffffffffffffffffffffffffffffff82169050919050565b600062000b098262000b10565b9050919050565b600062000b1d8262000adc565b9050919050565b82818337600083830152505050565b60005b8381101562000b5357808201518184015260208101905062000b36565b8381111562000b63576000848401525b50505050565b62000b748262000bce565b810181811067ffffffffffffffff8211171562000b965762000b9562000b9f565b5b80604052505050565b7f4e487b7100000000000000000000000000000000000000000000000000000000600052604160045260246000fd5b6000601f19601f8301169050919050565b7f4f776e61626c653a206e6577206f776e657220697320746865207a65726f206160008201527f6464726573730000000000000000000000000000000000000000000000000000602082015250565b7f4f776e61626c653a2063616c6c6572206973206e6f7420746865206f776e6572600082015250565b62000c628162000ac8565b811462000c6e57600080fd5b5056fe6101406040523480156200001257600080fd5b50604051620035dc380380620035dc8339818101604052810190620000389190620005b8565b82806040518060400160405280600181526020017f3100000000000000000000000000000000000000000000000000000000000000815250858581600390805190602001906200008a9291906200047f565b508060049080519060200190620000a39291906200047f565b50505060008280519060200120905060008280519060200120905060007f8b73c3c69bb8fe3d512ecc4cf759cc79239f7b179b0ffacaa9a75d522b39400f90508260e081815250508161010081815250504660a081815250506200010f8184846200023260201b60201c565b608081815250503073ffffffffffffffffffffffffffffffffffffffff1660c08173ffffffffffffffffffffffffffffffffffffffff1660601b815250508061012081815250505050505050506200017c620001706200026e60201b60201c565b6200027660201b60201c565b620001b07fc20e1354e2fbf5b46c9b246ed156da4f57e14a22348eff84a7b83f08e1f5615560001b6200033c60201b60201c565b620001e47f887356ddc1050f1f9e5cb219967ebd1a23ead245732e6d951ba5d60767aa50d860001b6200033c60201b60201c565b620002187ff3b81329c0afd8219697726e36fdaac617e044f089de3974687271edb11b09aa60001b6200033c60201b60201c565b62000229816200033f60201b60201c565b505050620009bd565b600083838346306040516020016200024f959493929190620006c1565b6040516020818303038152906040528051906020012090509392505050565b600033905090565b6000600760009054906101000a900473ffffffffffffffffffffffffffffffffffffffff16905081600760006101000a81548173ffffffffffffffffffffffffffffffffffffffff021916908373ffffffffffffffffffffffffffffffffffffffff1602179055508173ffffffffffffffffffffffffffffffffffffffff168173ffffffffffffffffffffffffffffffffffffffff167f8be0079c531659141344cd1fd0a4f28419497f9722a3daafe3b4186f6b6457e060405160405180910390a35050565b50565b6200034f6200026e60201b60201c565b73ffffffffffffffffffffffffffffffffffffffff16620003756200045560201b60201c565b73ffffffffffffffffffffffffffffffffffffffff1614620003ce576040517f08c379a0000000000000000000000000000000000000000000000000000000008152600401620003c59062000740565b60405180910390fd5b600073ffffffffffffffffffffffffffffffffffffffff168173ffffffffffffffffffffffffffffffffffffffff16141562000441576040517f08c379a000000000000000000000000000000000000000000000000000000000815260040162000438906200071e565b60405180910390fd5b62000452816200027660201b60201c565b50565b6000600760009054906101000a900473ffffffffffffffffffffffffffffffffffffffff16905090565b8280546200048d9062000850565b90600052602060002090601f016020900481019282620004b15760008555620004fd565b82601f10620004cc57805160ff1916838001178555620004fd565b82800160010185558215620004fd579182015b82811115620004fc578251825591602001919060010190620004df565b5b5090506200050c919062000510565b5090565b5b808211156200052b57600081600090555060010162000511565b5090565b60006200054662000540846200078b565b62000762565b9050828152602081018484840111156200055f57600080fd5b6200056c8482856200081a565b509392505050565b6000815190506200058581620009a3565b92915050565b600082601f8301126200059d57600080fd5b8151620005af8482602086016200052f565b91505092915050565b600080600060608486031215620005ce57600080fd5b600084015167ffffffffffffffff811115620005e957600080fd5b620005f7868287016200058b565b935050602084015167ffffffffffffffff8111156200061557600080fd5b62000623868287016200058b565b9250506040620006368682870162000574565b9150509250925092565b6200064b81620007d2565b82525050565b6200065c81620007e6565b82525050565b600062000671602683620007c1565b91506200067e826200092b565b604082019050919050565b600062000698602083620007c1565b9150620006a5826200097a565b602082019050919050565b620006bb8162000810565b82525050565b600060a082019050620006d8600083018862000651565b620006e7602083018762000651565b620006f6604083018662000651565b620007056060830185620006b0565b62000714608083018462000640565b9695505050505050565b60006020820190508181036000830152620007398162000662565b9050919050565b600060208201905081810360008301526200075b8162000689565b9050919050565b60006200076e62000781565b90506200077c828262000886565b919050565b6000604051905090565b600067ffffffffffffffff821115620007a957620007a8620008eb565b5b620007b4826200091a565b9050602081019050919050565b600082825260208201905092915050565b6000620007df82620007f0565b9050919050565b6000819050919050565b600073ffffffffffffffffffffffffffffffffffffffff82169050919050565b6000819050919050565b60005b838110156200083a5780820151818401526020810190506200081d565b838111156200084a576000848401525b50505050565b600060028204905060018216806200086957607f821691505b6020821081141562000880576200087f620008bc565b5b50919050565b62000891826200091a565b810181811067ffffffffffffffff82111715620008b357620008b2620008eb565b5b80604052505050565b7f4e487b7100000000000000000000000000000000000000000000000000000000600052602260045260246000fd5b7f4e487b7100000000000000000000000000000000000000000000000000000000600052604160045260246000fd5b6000601f19601f8301169050919050565b7f4f776e61626c653a206e6577206f776e657220697320746865207a65726f206160008201527f6464726573730000000000000000000000000000000000000000000000000000602082015250565b7f4f776e61626c653a2063616c6c6572206973206e6f7420746865206f776e6572600082015250565b620009ae81620007d2565b8114620009ba57600080fd5b50565b60805160a05160c05160601c60e0516101005161012051612bcc62000a10600039600061113f015260006111810152600061116001526000611095015260006110eb015260006111140152612bcc6000f3fe608060405234801561001057600080fd5b506004361061012c5760003560e01c8063715018a6116100ad578063a457c2d711610071578063a457c2d714610333578063a9059cbb14610363578063d505accf14610393578063dd62ed3e146103af578063f2fde38b146103df5761012c565b8063715018a6146102a157806379cc6790146102ab5780637ecebe00146102c75780638da5cb5b146102f757806395d89b41146103155761012c565b80633644e515116100f45780633644e515146101eb578063395093511461020957806340c10f191461023957806342966c681461025557806370a08231146102715761012c565b806306fdde0314610131578063095ea7b31461014f57806318160ddd1461017f57806323b872dd1461019d578063313ce567146101cd575b600080fd5b6101396103fb565b6040516101469190612207565b60405180910390f35b61016960048036038101906101649190611ced565b61048d565b60405161017691906120d8565b60405180910390f35b6101876104b0565b6040516101949190612469565b60405180910390f35b6101b760048036038101906101b29190611c00565b6104ba565b6040516101c491906120d8565b60405180910390f35b6101d56104e9565b6040516101e29190612484565b60405180910390f35b6101f36104f2565b60405161020091906120f3565b60405180910390f35b610223600480360381019061021e9190611ced565b610501565b60405161023091906120d8565b60405180910390f35b610253600480360381019061024e9190611ced565b610538565b005b61026f600480360381019061026a9190611d29565b610646565b005b61028b60048036038101906102869190611b9b565b61065a565b6040516102989190612469565b60405180910390f35b6102a96106a2565b005b6102c560048036038101906102c09190611ced565b61072a565b005b6102e160048036038101906102dc9190611b9b565b61074a565b6040516102ee9190612469565b60405180910390f35b6102ff61079a565b60405161030c91906120bd565b60405180910390f35b61031d6107c4565b60405161032a9190612207565b60405180910390f35b61034d60048036038101906103489190611ced565b610856565b60405161035a91906120d8565b60405180910390f35b61037d60048036038101906103789190611ced565b6108cd565b60405161038a91906120d8565b60405180910390f35b6103ad60048036038101906103a89190611c4f565b6108f0565b005b6103c960048036038101906103c49190611bc4565b610a32565b6040516103d69190612469565b60405180910390f35b6103f960048036038101906103f49190611b9b565b610ab9565b005b60606003805461040a906125e2565b80601f0160208091040260200160405190810160405280929190818152602001828054610436906125e2565b80156104835780601f1061045857610100808354040283529160200191610483565b820191906000526020600020905b81548152906001019060200180831161046657829003601f168201915b5050505050905090565b600080610498610bb1565b90506104a5818585610bb9565b600191505092915050565b6000600254905090565b6000806104c5610bb1565b90506104d2858285610d84565b6104dd858585610e10565b60019150509392505050565b60006012905090565b60006104fc611091565b905090565b60008061050c610bb1565b905061052d81858561051e8589610a32565b61052891906124c6565b610bb9565b600191505092915050565b610540610bb1565b73ffffffffffffffffffffffffffffffffffffffff1661055e61079a565b73ffffffffffffffffffffffffffffffffffffffff16146105b4576040517f08c379a00000000000000000000000000000000000000000000000000000000081526004016105ab906123a9565b60405180910390fd5b6105e07f88ac838e05106f2b0332413c55e5fc6edec86e42b5fd2caca3360794d682d5d860001b6111ab565b61060c7fd0a4678bd6fae38aa2d10e1bbd1d076f93a6de5426d087ded03b57701bb7b11760001b6111ab565b6106387f2d5709497df775ee364cd9fe805e3b25dd92727a145843bd62256cc7f92a806260001b6111ab565b61064282826111ae565b5050565b610657610651610bb1565b8261130e565b50565b60008060008373ffffffffffffffffffffffffffffffffffffffff1673ffffffffffffffffffffffffffffffffffffffff168152602001908152602001600020549050919050565b6106aa610bb1565b73ffffffffffffffffffffffffffffffffffffffff166106c861079a565b73ffffffffffffffffffffffffffffffffffffffff161461071e576040517f08c379a0000000000000000000000000000000000000000000000000000000008152600401610715906123a9565b60405180910390fd5b61072860006114e5565b565b61073c82610736610bb1565b83610d84565b610746828261130e565b5050565b6000610793600560008473ffffffffffffffffffffffffffffffffffffffff1673ffffffffffffffffffffffffffffffffffffffff1681526020019081526020016000206115ab565b9050919050565b6000600760009054906101000a900473ffffffffffffffffffffffffffffffffffffffff16905090565b6060600480546107d3906125e2565b80601f01602080910402602001604051908101604052809291908181526020018280546107ff906125e2565b801561084c5780601f106108215761010080835404028352916020019161084c565b820191906000526020600020905b81548152906001019060200180831161082f57829003601f168201915b5050505050905090565b600080610861610bb1565b9050600061086f8286610a32565b9050838110156108b4576040517f08c379a00000000000000000000000000000000000000000000000000000000081526004016108ab90612429565b60405180910390fd5b6108c18286868403610bb9565b60019250505092915050565b6000806108d8610bb1565b90506108e5818585610e10565b600191505092915050565b83421115610933576040517f08c379a000000000000000000000000000000000000000000000000000000000815260040161092a90612309565b60405180910390fd5b60007f6e71edae12b1b97f4d1f60370fef10105fa2faae0126114a169c64845d6126c98888886109628c6115b9565b896040516020016109789695949392919061210e565b604051602081830303815290604052805190602001209050600061099b82611617565b905060006109ab82878787611631565b90508973ffffffffffffffffffffffffffffffffffffffff168173ffffffffffffffffffffffffffffffffffffffff1614610a1b576040517f08c379a0000000000000000000000000000000000000000000000000000000008152600401610a1290612389565b60405180910390fd5b610a268a8a8a610bb9565b50505050505050505050565b6000600160008473ffffffffffffffffffffffffffffffffffffffff1673ffffffffffffffffffffffffffffffffffffffff16815260200190815260200160002060008373ffffffffffffffffffffffffffffffffffffffff1673ffffffffffffffffffffffffffffffffffffffff16815260200190815260200160002054905092915050565b610ac1610bb1565b73ffffffffffffffffffffffffffffffffffffffff16610adf61079a565b73ffffffffffffffffffffffffffffffffffffffff1614610b35576040517f08c379a0000000000000000000000000000000000000000000000000000000008152600401610b2c906123a9565b60405180910390fd5b600073ffffffffffffffffffffffffffffffffffffffff168173ffffffffffffffffffffffffffffffffffffffff161415610ba5576040517f08c379a0000000000000000000000000000000000000000000000000000000008152600401610b9c906122a9565b60405180910390fd5b610bae816114e5565b50565b600033905090565b600073ffffffffffffffffffffffffffffffffffffffff168373ffffffffffffffffffffffffffffffffffffffff161415610c29576040517f08c379a0000000000000000000000000000000000000000000000000000000008152600401610c2090612409565b60405180910390fd5b600073ffffffffffffffffffffffffffffffffffffffff168273ffffffffffffffffffffffffffffffffffffffff161415610c99576040517f08c379a0000000000000000000000000000000000000000000000000000000008152600401610c90906122c9565b60405180910390fd5b80600160008573ffffffffffffffffffffffffffffffffffffffff1673ffffffffffffffffffffffffffffffffffffffff16815260200190815260200160002060008473ffffffffffffffffffffffffffffffffffffffff1673ffffffffffffffffffffffffffffffffffffffff168152602001908152602001600020819055508173ffffffffffffffffffffffffffffffffffffffff168373ffffffffffffffffffffffffffffffffffffffff167f8c5be1e5ebec7d5bd14f71427d1e84f3dd0314c0f7b2291e5b200ac8c7c3b92583604051610d779190612469565b60405180910390a3505050565b6000610d908484610a32565b90507fffffffffffffffffffffffffffffffffffffffffffffffffffffffffffffffff8114610e0a5781811015610dfc576040517f08c379a0000000000000000000000000000000000000000000000000000000008152600401610df3906122e9565b60405180910390fd5b610e098484848403610bb9565b5b50505050565b600073ffffffffffffffffffffffffffffffffffffffff168373ffffffffffffffffffffffffffffffffffffffff161415610e80576040517f08c379a0000000000000000000000000000000000000000000000000000000008152600401610e77906123e9565b60405180910390fd5b600073ffffffffffffffffffffffffffffffffffffffff168273ffffffffffffffffffffffffffffffffffffffff161415610ef0576040517f08c379a0000000000000000000000000000000000000000000000000000000008152600401610ee790612249565b60405180910390fd5b610efb83838361165c565b60008060008573ffffffffffffffffffffffffffffffffffffffff1673ffffffffffffffffffffffffffffffffffffffff16815260200190815260200160002054905081811015610f81576040517f08c379a0000000000000000000000000000000000000000000000000000000008152600401610f7890612329565b60405180910390fd5b8181036000808673ffffffffffffffffffffffffffffffffffffffff1673ffffffffffffffffffffffffffffffffffffffff16815260200190815260200160002081905550816000808573ffffffffffffffffffffffffffffffffffffffff1673ffffffffffffffffffffffffffffffffffffffff168152602001908152602001600020600082825461101491906124c6565b925050819055508273ffffffffffffffffffffffffffffffffffffffff168473ffffffffffffffffffffffffffffffffffffffff167fddf252ad1be2c89b69c2b068fc378daa952ba7f163c4a11628f55a4df523b3ef846040516110789190612469565b60405180910390a361108b848484611661565b50505050565b60007f000000000000000000000000000000000000000000000000000000000000000073ffffffffffffffffffffffffffffffffffffffff163073ffffffffffffffffffffffffffffffffffffffff1614801561110d57507f000000000000000000000000000000000000000000000000000000000000000046145b1561113a577f000000000000000000000000000000000000000000000000000000000000000090506111a8565b6111a57f00000000000000000000000000000000000000000000000000000000000000007f00000000000000000000000000000000000000000000000000000000000000007f0000000000000000000000000000000000000000000000000000000000000000611666565b90505b90565b50565b600073ffffffffffffffffffffffffffffffffffffffff168273ffffffffffffffffffffffffffffffffffffffff16141561121e576040517f08c379a000000000000000000000000000000000000000000000000000000000815260040161121590612449565b60405180910390fd5b61122a6000838361165c565b806002600082825461123c91906124c6565b92505081905550806000808473ffffffffffffffffffffffffffffffffffffffff1673ffffffffffffffffffffffffffffffffffffffff168152602001908152602001600020600082825461129191906124c6565b925050819055508173ffffffffffffffffffffffffffffffffffffffff16600073ffffffffffffffffffffffffffffffffffffffff167fddf252ad1be2c89b69c2b068fc378daa952ba7f163c4a11628f55a4df523b3ef836040516112f69190612469565b60405180910390a361130a60008383611661565b5050565b600073ffffffffffffffffffffffffffffffffffffffff168273ffffffffffffffffffffffffffffffffffffffff16141561137e576040517f08c379a0000000000000000000000000000000000000000000000000000000008152600401611375906123c9565b60405180910390fd5b61138a8260008361165c565b60008060008473ffffffffffffffffffffffffffffffffffffffff1673ffffffffffffffffffffffffffffffffffffffff16815260200190815260200160002054905081811015611410576040517f08c379a000000000000000000000000000000000000000000000000000000000815260040161140790612269565b60405180910390fd5b8181036000808573ffffffffffffffffffffffffffffffffffffffff1673ffffffffffffffffffffffffffffffffffffffff168152602001908152602001600020819055508160026000828254611467919061251c565b92505081905550600073ffffffffffffffffffffffffffffffffffffffff168373ffffffffffffffffffffffffffffffffffffffff167fddf252ad1be2c89b69c2b068fc378daa952ba7f163c4a11628f55a4df523b3ef846040516114cc9190612469565b60405180910390a36114e083600084611661565b505050565b6000600760009054906101000a900473ffffffffffffffffffffffffffffffffffffffff16905081600760006101000a81548173ffffffffffffffffffffffffffffffffffffffff021916908373ffffffffffffffffffffffffffffffffffffffff1602179055508173ffffffffffffffffffffffffffffffffffffffff168173ffffffffffffffffffffffffffffffffffffffff167f8be0079c531659141344cd1fd0a4f28419497f9722a3daafe3b4186f6b6457e060405160405180910390a35050565b600081600001549050919050565b600080600560008473ffffffffffffffffffffffffffffffffffffffff1673ffffffffffffffffffffffffffffffffffffffff1681526020019081526020016000209050611606816115ab565b9150611611816116a0565b50919050565b600061162a611624611091565b836116b6565b9050919050565b6000806000611642878787876116e9565b9150915061164f816117f6565b8192505050949350505050565b505050565b505050565b6000838383463060405160200161168195949392919061216f565b6040516020818303038152906040528051906020012090509392505050565b6001816000016000828254019250508190555050565b600082826040516020016116cb929190612086565b60405160208183030381529060405280519060200120905092915050565b6000807f7fffffffffffffffffffffffffffffff5d576e7357a4501ddfe92f46681b20a08360001c11156117245760006003915091506117ed565b601b8560ff161415801561173c5750601c8560ff1614155b1561174e5760006004915091506117ed565b60006001878787876040516000815260200160405260405161177394939291906121c2565b6020604051602081039080840390855afa158015611795573d6000803e3d6000fd5b505050602060405103519050600073ffffffffffffffffffffffffffffffffffffffff168173ffffffffffffffffffffffffffffffffffffffff1614156117e4576000600192509250506117ed565b80600092509250505b94509492505050565b60006004811115611830577f4e487b7100000000000000000000000000000000000000000000000000000000600052602160045260246000fd5b816004811115611869577f4e487b7100000000000000000000000000000000000000000000000000000000600052602160045260246000fd5b141561187457611b44565b600160048111156118ae577f4e487b7100000000000000000000000000000000000000000000000000000000600052602160045260246000fd5b8160048111156118e7577f4e487b7100000000000000000000000000000000000000000000000000000000600052602160045260246000fd5b1415611928576040517f08c379a000000000000000000000000000000000000000000000000000000000815260040161191f90612229565b60405180910390fd5b60026004811115611962577f4e487b7100000000000000000000000000000000000000000000000000000000600052602160045260246000fd5b81600481111561199b577f4e487b7100000000000000000000000000000000000000000000000000000000600052602160045260246000fd5b14156119dc576040517f08c379a00000000000000000000000000000000000000000000000000000000081526004016119d390612289565b60405180910390fd5b60036004811115611a16577f4e487b7100000000000000000000000000000000000000000000000000000000600052602160045260246000fd5b816004811115611a4f577f4e487b7100000000000000000000000000000000000000000000000000000000600052602160045260246000fd5b1415611a90576040517f08c379a0000000000000000000000000000000000000000000000000000000008152600401611a8790612349565b60405180910390fd5b600480811115611ac9577f4e487b7100000000000000000000000000000000000000000000000000000000600052602160045260246000fd5b816004811115611b02577f4e487b7100000000000000000000000000000000000000000000000000000000600052602160045260246000fd5b1415611b43576040517f08c379a0000000000000000000000000000000000000000000000000000000008152600401611b3a90612369565b60405180910390fd5b5b50565b600081359050611b5681612b3a565b92915050565b600081359050611b6b81612b51565b92915050565b600081359050611b8081612b68565b92915050565b600081359050611b9581612b7f565b92915050565b600060208284031215611bad57600080fd5b6000611bbb84828501611b47565b91505092915050565b60008060408385031215611bd757600080fd5b6000611be585828601611b47565b9250506020611bf685828601611b47565b9150509250929050565b600080600060608486031215611c1557600080fd5b6000611c2386828701611b47565b9350506020611c3486828701611b47565b9250506040611c4586828701611b71565b9150509250925092565b600080600080600080600060e0888a031215611c6a57600080fd5b6000611c788a828b01611b47565b9750506020611c898a828b01611b47565b9650506040611c9a8a828b01611b71565b9550506060611cab8a828b01611b71565b9450506080611cbc8a828b01611b86565b93505060a0611ccd8a828b01611b5c565b92505060c0611cde8a828b01611b5c565b91505092959891949750929550565b60008060408385031215611d0057600080fd5b6000611d0e85828601611b47565b9250506020611d1f85828601611b71565b9150509250929050565b600060208284031215611d3b57600080fd5b6000611d4984828501611b71565b91505092915050565b611d5b81612550565b82525050565b611d6a81612562565b82525050565b611d798161256e565b82525050565b611d90611d8b8261256e565b612614565b82525050565b6000611da18261249f565b611dab81856124aa565b9350611dbb8185602086016125af565b611dc48161267c565b840191505092915050565b6000611ddc6018836124aa565b9150611de78261268d565b602082019050919050565b6000611dff6023836124aa565b9150611e0a826126b6565b604082019050919050565b6000611e226022836124aa565b9150611e2d82612705565b604082019050919050565b6000611e45601f836124aa565b9150611e5082612754565b602082019050919050565b6000611e686026836124aa565b9150611e738261277d565b604082019050919050565b6000611e8b6022836124aa565b9150611e96826127cc565b604082019050919050565b6000611eae6002836124bb565b9150611eb98261281b565b600282019050919050565b6000611ed1601d836124aa565b9150611edc82612844565b602082019050919050565b6000611ef4601d836124aa565b9150611eff8261286d565b602082019050919050565b6000611f176026836124aa565b9150611f2282612896565b604082019050919050565b6000611f3a6022836124aa565b9150611f45826128e5565b604082019050919050565b6000611f5d6022836124aa565b9150611f6882612934565b604082019050919050565b6000611f80601e836124aa565b9150611f8b82612983565b602082019050919050565b6000611fa36020836124aa565b9150611fae826129ac565b602082019050919050565b6000611fc66021836124aa565b9150611fd1826129d5565b604082019050919050565b6000611fe96025836124aa565b9150611ff482612a24565b604082019050919050565b600061200c6024836124aa565b915061201782612a73565b604082019050919050565b600061202f6025836124aa565b915061203a82612ac2565b604082019050919050565b6000612052601f836124aa565b915061205d82612b11565b602082019050919050565b61207181612598565b82525050565b612080816125a2565b82525050565b600061209182611ea1565b915061209d8285611d7f565b6020820191506120ad8284611d7f565b6020820191508190509392505050565b60006020820190506120d26000830184611d52565b92915050565b60006020820190506120ed6000830184611d61565b92915050565b60006020820190506121086000830184611d70565b92915050565b600060c0820190506121236000830189611d70565b6121306020830188611d52565b61213d6040830187611d52565b61214a6060830186612068565b6121576080830185612068565b61216460a0830184612068565b979650505050505050565b600060a0820190506121846000830188611d70565b6121916020830187611d70565b61219e6040830186611d70565b6121ab6060830185612068565b6121b86080830184611d52565b9695505050505050565b60006080820190506121d76000830187611d70565b6121e46020830186612077565b6121f16040830185611d70565b6121fe6060830184611d70565b95945050505050565b600060208201905081810360008301526122218184611d96565b905092915050565b6000602082019050818103600083015261224281611dcf565b9050919050565b6000602082019050818103600083015261226281611df2565b9050919050565b6000602082019050818103600083015261228281611e15565b9050919050565b600060208201905081810360008301526122a281611e38565b9050919050565b600060208201905081810360008301526122c281611e5b565b9050919050565b600060208201905081810360008301526122e281611e7e565b9050919050565b6000602082019050818103600083015261230281611ec4565b9050919050565b6000602082019050818103600083015261232281611ee7565b9050919050565b6000602082019050818103600083015261234281611f0a565b9050919050565b6000602082019050818103600083015261236281611f2d565b9050919050565b6000602082019050818103600083015261238281611f50565b9050919050565b600060208201905081810360008301526123a281611f73565b9050919050565b600060208201905081810360008301526123c281611f96565b9050919050565b600060208201905081810360008301526123e281611fb9565b9050919050565b6000602082019050818103600083015261240281611fdc565b9050919050565b6000602082019050818103600083015261242281611fff565b9050919050565b6000602082019050818103600083015261244281612022565b9050919050565b6000602082019050818103600083015261246281612045565b9050919050565b600060208201905061247e6000830184612068565b92915050565b60006020820190506124996000830184612077565b92915050565b600081519050919050565b600082825260208201905092915050565b600081905092915050565b60006124d182612598565b91506124dc83612598565b9250827fffffffffffffffffffffffffffffffffffffffffffffffffffffffffffffffff038211156125115761251061261e565b5b828201905092915050565b600061252782612598565b915061253283612598565b9250828210156125455761254461261e565b5b828203905092915050565b600061255b82612578565b9050919050565b60008115159050919050565b6000819050919050565b600073ffffffffffffffffffffffffffffffffffffffff82169050919050565b6000819050919050565b600060ff82169050919050565b60005b838110156125cd5780820151818401526020810190506125b2565b838111156125dc576000848401525b50505050565b600060028204905060018216806125fa57607f821691505b6020821081141561260e5761260d61264d565b5b50919050565b6000819050919050565b7f4e487b7100000000000000000000000000000000000000000000000000000000600052601160045260246000fd5b7f4e487b7100000000000000000000000000000000000000000000000000000000600052602260045260246000fd5b6000601f19601f8301169050919050565b7f45434453413a20696e76616c6964207369676e61747572650000000000000000600082015250565b7f45524332303a207472616e7366657220746f20746865207a65726f206164647260008201527f6573730000000000000000000000000000000000000000000000000000000000602082015250565b7f45524332303a206275726e20616d6f756e7420657863656564732062616c616e60008201527f6365000000000000000000000000000000000000000000000000000000000000602082015250565b7f45434453413a20696e76616c6964207369676e6174757265206c656e67746800600082015250565b7f4f776e61626c653a206e6577206f776e657220697320746865207a65726f206160008201527f6464726573730000000000000000000000000000000000000000000000000000602082015250565b7f45524332303a20617070726f766520746f20746865207a65726f20616464726560008201527f7373000000000000000000000000000000000000000000000000000000000000602082015250565b7f1901000000000000000000000000000000000000000000000000000000000000600082015250565b7f45524332303a20696e73756666696369656e7420616c6c6f77616e6365000000600082015250565b7f45524332305065726d69743a206578706972656420646561646c696e65000000600082015250565b7f45524332303a207472616e7366657220616d6f756e742065786365656473206260008201527f616c616e63650000000000000000000000000000000000000000000000000000602082015250565b7f45434453413a20696e76616c6964207369676e6174757265202773272076616c60008201527f7565000000000000000000000000000000000000000000000000000000000000602082015250565b7f45434453413a20696e76616c6964207369676e6174757265202776272076616c60008201527f7565000000000000000000000000000000000000000000000000000000000000602082015250565b7f45524332305065726d69743a20696e76616c6964207369676e61747572650000600082015250565b7f4f776e61626c653a2063616c6c6572206973206e6f7420746865206f776e6572600082015250565b7f45524332303a206275726e2066726f6d20746865207a65726f2061646472657360008201527f7300000000000000000000000000000000000000000000000000000000000000602082015250565b7f45524332303a207472616e736665722066726f6d20746865207a65726f20616460008201527f6472657373000000000000000000000000000000000000000000000000000000602082015250565b7f45524332303a20617070726f76652066726f6d20746865207a65726f2061646460008201527f7265737300000000000000000000000000000000000000000000000000000000602082015250565b7f45524332303a2064656372656173656420616c6c6f77616e63652062656c6f7760008201527f207a65726f000000000000000000000000000000000000000000000000000000602082015250565b7f45524332303a206d696e7420746f20746865207a65726f206164647265737300600082015250565b612b4381612550565b8114612b4e57600080fd5b50565b612b5a8161256e565b8114612b6557600080fd5b50565b612b7181612598565b8114612b7c57600080fd5b50565b612b88816125a2565b8114612b9357600080fd5b5056fea26469706673582212204c2ae912873b906cb1e82633a6efbd0216fa006deff1d4b3a29d6ce1b420267264736f6c63430008040033a26469706673582212204be831659059cc063a05f92d44d885e564f1c695c77e07750f8aa01886fe3fae64736f6c63430008040033",
  "linkReferences": {},
  "deployedLinkReferences": {}
}